{
  "_format": "hh-sol-artifact-1",
  "contractName": "TrueTicketNFT",
  "sourceName": "contracts/TrueTicketNFT.sol",
  "abi": [
    {
      "inputs": [],
      "stateMutability": "nonpayable",
      "type": "constructor"
    },
    {
      "inputs": [],
      "name": "AccessControlBadConfirmation",
      "type": "error"
    },
    {
      "inputs": [
        {
          "internalType": "address",
          "name": "account",
          "type": "address"
        },
        {
          "internalType": "bytes32",
          "name": "neededRole",
          "type": "bytes32"
        }
      ],
      "name": "AccessControlUnauthorizedAccount",
      "type": "error"
    },
    {
      "inputs": [],
      "name": "ArrayLengthMismatch",
      "type": "error"
    },
    {
      "inputs": [],
      "name": "BiometricAlreadyBound",
      "type": "error"
    },
    {
      "inputs": [],
      "name": "BiometricNotBound",
      "type": "error"
    },
    {
      "inputs": [],
      "name": "BiometricRebindPending",
      "type": "error"
    },
    {
      "inputs": [
        {
          "internalType": "uint256",
          "name": "numerator",
          "type": "uint256"
        },
        {
          "internalType": "uint256",
          "name": "denominator",
          "type": "uint256"
        }
      ],
      "name": "ERC2981InvalidDefaultRoyalty",
      "type": "error"
    },
    {
      "inputs": [
        {
          "internalType": "address",
          "name": "receiver",
          "type": "address"
        }
      ],
      "name": "ERC2981InvalidDefaultRoyaltyReceiver",
      "type": "error"
    },
    {
      "inputs": [
        {
          "internalType": "uint256",
          "name": "tokenId",
          "type": "uint256"
        },
        {
          "internalType": "uint256",
          "name": "numerator",
          "type": "uint256"
        },
        {
          "internalType": "uint256",
          "name": "denominator",
          "type": "uint256"
        }
      ],
      "name": "ERC2981InvalidTokenRoyalty",
      "type": "error"
    },
    {
      "inputs": [
        {
          "internalType": "uint256",
          "name": "tokenId",
          "type": "uint256"
        },
        {
          "internalType": "address",
          "name": "receiver",
          "type": "address"
        }
      ],
      "name": "ERC2981InvalidTokenRoyaltyReceiver",
      "type": "error"
    },
    {
      "inputs": [],
      "name": "ERC721EnumerableForbiddenBatchMint",
      "type": "error"
    },
    {
      "inputs": [
        {
          "internalType": "address",
          "name": "sender",
          "type": "address"
        },
        {
          "internalType": "uint256",
          "name": "tokenId",
          "type": "uint256"
        },
        {
          "internalType": "address",
          "name": "owner",
          "type": "address"
        }
      ],
      "name": "ERC721IncorrectOwner",
      "type": "error"
    },
    {
      "inputs": [
        {
          "internalType": "address",
          "name": "operator",
          "type": "address"
        },
        {
          "internalType": "uint256",
          "name": "tokenId",
          "type": "uint256"
        }
      ],
      "name": "ERC721InsufficientApproval",
      "type": "error"
    },
    {
      "inputs": [
        {
          "internalType": "address",
          "name": "approver",
          "type": "address"
        }
      ],
      "name": "ERC721InvalidApprover",
      "type": "error"
    },
    {
      "inputs": [
        {
          "internalType": "address",
          "name": "operator",
          "type": "address"
        }
      ],
      "name": "ERC721InvalidOperator",
      "type": "error"
    },
    {
      "inputs": [
        {
          "internalType": "address",
          "name": "owner",
          "type": "address"
        }
      ],
      "name": "ERC721InvalidOwner",
      "type": "error"
    },
    {
      "inputs": [
        {
          "internalType": "address",
          "name": "receiver",
          "type": "address"
        }
      ],
      "name": "ERC721InvalidReceiver",
      "type": "error"
    },
    {
      "inputs": [
        {
          "internalType": "address",
          "name": "sender",
          "type": "address"
        }
      ],
      "name": "ERC721InvalidSender",
      "type": "error"
    },
    {
      "inputs": [
        {
          "internalType": "uint256",
          "name": "tokenId",
          "type": "uint256"
        }
      ],
      "name": "ERC721NonexistentToken",
      "type": "error"
    },
    {
      "inputs": [
        {
          "internalType": "address",
          "name": "owner",
          "type": "address"
        },
        {
          "internalType": "uint256",
          "name": "index",
          "type": "uint256"
        }
      ],
      "name": "ERC721OutOfBoundsIndex",
      "type": "error"
    },
    {
      "inputs": [],
      "name": "EnforcedPause",
      "type": "error"
    },
    {
      "inputs": [],
      "name": "ExceedsMaxPerWallet",
      "type": "error"
    },
    {
      "inputs": [],
      "name": "ExpectedPause",
      "type": "error"
    },
    {
      "inputs": [],
      "name": "InvalidBiometricSignature",
      "type": "error"
    },
    {
      "inputs": [],
      "name": "InvalidInitialization",
      "type": "error"
    },
    {
      "inputs": [],
      "name": "InvalidTier",
      "type": "error"
    },
    {
      "inputs": [],
      "name": "MaxTransfersReached",
      "type": "error"
    },
    {
      "inputs": [],
      "name": "NotInitializing",
      "type": "error"
    },
    {
      "inputs": [],
      "name": "NotTicketOwner",
      "type": "error"
    },
    {
      "inputs": [],
      "name": "ReentrancyGuardReentrantCall",
      "type": "error"
    },
    {
      "inputs": [],
      "name": "TicketAlreadyUsed",
      "type": "error"
    },
    {
      "inputs": [],
      "name": "TierSoldOut",
      "type": "error"
    },
    {
      "inputs": [
        {
          "internalType": "uint256",
          "name": "unlockTime",
          "type": "uint256"
        }
      ],
      "name": "TransferLocked",
      "type": "error"
    },
    {
      "inputs": [],
      "name": "TransfersDisabled",
      "type": "error"
    },
    {
      "inputs": [],
      "name": "ZeroBiometricHash",
      "type": "error"
    },
    {
      "anonymous": false,
      "inputs": [
        {
          "indexed": true,
          "internalType": "address",
          "name": "owner",
          "type": "address"
        },
        {
          "indexed": true,
          "internalType": "address",
          "name": "approved",
          "type": "address"
        },
        {
          "indexed": true,
          "internalType": "uint256",
          "name": "tokenId",
          "type": "uint256"
        }
      ],
      "name": "Approval",
      "type": "event"
    },
    {
      "anonymous": false,
      "inputs": [
        {
          "indexed": true,
          "internalType": "address",
          "name": "owner",
          "type": "address"
        },
        {
          "indexed": true,
          "internalType": "address",
          "name": "operator",
          "type": "address"
        },
        {
          "indexed": false,
          "internalType": "bool",
          "name": "approved",
          "type": "bool"
        }
      ],
      "name": "ApprovalForAll",
      "type": "event"
    },
    {
      "anonymous": false,
      "inputs": [
        {
          "indexed": false,
          "internalType": "uint256",
          "name": "_fromTokenId",
          "type": "uint256"
        },
        {
          "indexed": false,
          "internalType": "uint256",
          "name": "_toTokenId",
          "type": "uint256"
        }
      ],
      "name": "BatchMetadataUpdate",
      "type": "event"
    },
    {
      "anonymous": false,
      "inputs": [
        {
          "indexed": true,
          "internalType": "uint256",
          "name": "tokenId",
          "type": "uint256"
        },
        {
          "indexed": true,
          "internalType": "bytes32",
          "name": "biometricHash",
          "type": "bytes32"
        },
        {
          "indexed": false,
          "internalType": "uint256",
          "name": "boundAt",
          "type": "uint256"
        }
      ],
      "name": "BiometricBound",
      "type": "event"
    },
    {
      "anonymous": false,
      "inputs": [
        {
          "indexed": true,
          "internalType": "uint256",
          "name": "tokenId",
          "type": "uint256"
        },
        {
          "indexed": true,
          "internalType": "address",
          "name": "newOwner",
          "type": "address"
        },
        {
          "indexed": false,
          "internalType": "uint256",
          "name": "transferTimestamp",
          "type": "uint256"
        }
      ],
      "name": "BiometricRebindRequired",
      "type": "event"
    },
    {
      "anonymous": false,
      "inputs": [
        {
          "indexed": true,
          "internalType": "uint256",
          "name": "tokenId",
          "type": "uint256"
        },
        {
          "indexed": false,
          "internalType": "bytes32",
          "name": "previousHash",
          "type": "bytes32"
        },
        {
          "indexed": false,
          "internalType": "uint256",
          "name": "unboundAt",
          "type": "uint256"
        },
        {
          "indexed": false,
          "internalType": "string",
          "name": "reason",
          "type": "string"
        }
      ],
      "name": "BiometricUnbound",
      "type": "event"
    },
    {
      "anonymous": false,
      "inputs": [
        {
          "indexed": false,
          "internalType": "uint64",
          "name": "version",
          "type": "uint64"
        }
      ],
      "name": "Initialized",
      "type": "event"
    },
    {
      "anonymous": false,
      "inputs": [
        {
          "indexed": false,
          "internalType": "uint256",
          "name": "_tokenId",
          "type": "uint256"
        }
      ],
      "name": "MetadataUpdate",
      "type": "event"
    },
    {
      "anonymous": false,
      "inputs": [
        {
          "indexed": false,
          "internalType": "address",
          "name": "account",
          "type": "address"
        }
      ],
      "name": "Paused",
      "type": "event"
    },
    {
      "anonymous": false,
      "inputs": [
        {
          "indexed": true,
          "internalType": "bytes32",
          "name": "role",
          "type": "bytes32"
        },
        {
          "indexed": true,
          "internalType": "bytes32",
          "name": "previousAdminRole",
          "type": "bytes32"
        },
        {
          "indexed": true,
          "internalType": "bytes32",
          "name": "newAdminRole",
          "type": "bytes32"
        }
      ],
      "name": "RoleAdminChanged",
      "type": "event"
    },
    {
      "anonymous": false,
      "inputs": [
        {
          "indexed": true,
          "internalType": "bytes32",
          "name": "role",
          "type": "bytes32"
        },
        {
          "indexed": true,
          "internalType": "address",
          "name": "account",
          "type": "address"
        },
        {
          "indexed": true,
          "internalType": "address",
          "name": "sender",
          "type": "address"
        }
      ],
      "name": "RoleGranted",
      "type": "event"
    },
    {
      "anonymous": false,
      "inputs": [
        {
          "indexed": true,
          "internalType": "bytes32",
          "name": "role",
          "type": "bytes32"
        },
        {
          "indexed": true,
          "internalType": "address",
          "name": "account",
          "type": "address"
        },
        {
          "indexed": true,
          "internalType": "address",
          "name": "sender",
          "type": "address"
        }
      ],
      "name": "RoleRevoked",
      "type": "event"
    },
    {
      "anonymous": false,
      "inputs": [
        {
          "indexed": true,
          "internalType": "uint256",
          "name": "tokenId",
          "type": "uint256"
        },
        {
          "indexed": true,
          "internalType": "address",
          "name": "to",
          "type": "address"
        },
        {
          "indexed": true,
          "internalType": "uint256",
          "name": "eventId",
          "type": "uint256"
        },
        {
          "indexed": false,
          "internalType": "uint8",
          "name": "tier",
          "type": "uint8"
        },
        {
          "indexed": false,
          "internalType": "uint256",
          "name": "price",
          "type": "uint256"
        }
      ],
      "name": "TicketMinted",
      "type": "event"
    },
    {
      "anonymous": false,
      "inputs": [
        {
          "indexed": true,
          "internalType": "uint256",
          "name": "tokenId",
          "type": "uint256"
        },
        {
          "indexed": true,
          "internalType": "address",
          "name": "from",
          "type": "address"
        },
        {
          "indexed": true,
          "internalType": "address",
          "name": "to",
          "type": "address"
        },
        {
          "indexed": false,
          "internalType": "uint256",
          "name": "salePrice",
          "type": "uint256"
        }
      ],
      "name": "TicketTransferred",
      "type": "event"
    },
    {
      "anonymous": false,
      "inputs": [
        {
          "indexed": true,
          "internalType": "uint256",
          "name": "tokenId",
          "type": "uint256"
        },
        {
          "indexed": false,
          "internalType": "uint256",
          "name": "timestamp",
          "type": "uint256"
        }
      ],
      "name": "TicketUsed",
      "type": "event"
    },
    {
      "anonymous": false,
      "inputs": [
        {
          "indexed": true,
          "internalType": "address",
          "name": "from",
          "type": "address"
        },
        {
          "indexed": true,
          "internalType": "address",
          "name": "to",
          "type": "address"
        },
        {
          "indexed": true,
          "internalType": "uint256",
          "name": "tokenId",
          "type": "uint256"
        }
      ],
      "name": "Transfer",
      "type": "event"
    },
    {
      "anonymous": false,
      "inputs": [
        {
          "indexed": false,
          "internalType": "address",
          "name": "account",
          "type": "address"
        }
      ],
      "name": "Unpaused",
      "type": "event"
    },
    {
      "inputs": [],
      "name": "BIOMETRIC_BINDING_VERSION",
      "outputs": [
        {
          "internalType": "uint8",
          "name": "",
          "type": "uint8"
        }
      ],
      "stateMutability": "view",
      "type": "function"
    },
    {
      "inputs": [],
      "name": "DEFAULT_ADMIN_ROLE",
      "outputs": [
        {
          "internalType": "bytes32",
          "name": "",
          "type": "bytes32"
        }
      ],
      "stateMutability": "view",
      "type": "function"
    },
    {
      "inputs": [],
      "name": "MINTER_ROLE",
      "outputs": [
        {
          "internalType": "bytes32",
          "name": "",
          "type": "bytes32"
        }
      ],
      "stateMutability": "view",
      "type": "function"
    },
    {
      "inputs": [],
      "name": "OPERATOR_ROLE",
      "outputs": [
        {
          "internalType": "bytes32",
          "name": "",
          "type": "bytes32"
        }
      ],
      "stateMutability": "view",
      "type": "function"
    },
    {
      "inputs": [],
      "name": "SCANNER_ROLE",
      "outputs": [
        {
          "internalType": "bytes32",
          "name": "",
          "type": "bytes32"
        }
      ],
      "stateMutability": "view",
      "type": "function"
    },
    {
      "inputs": [
        {
          "internalType": "address",
          "name": "to",
          "type": "address"
        },
        {
          "internalType": "uint256",
          "name": "tokenId",
          "type": "uint256"
        }
      ],
      "name": "approve",
      "outputs": [],
      "stateMutability": "nonpayable",
      "type": "function"
    },
    {
      "inputs": [
        {
          "internalType": "address",
          "name": "owner",
          "type": "address"
        }
      ],
      "name": "balanceOf",
      "outputs": [
        {
          "internalType": "uint256",
          "name": "",
          "type": "uint256"
        }
      ],
      "stateMutability": "view",
      "type": "function"
    },
    {
      "inputs": [
        {
          "internalType": "uint256",
          "name": "tokenId",
          "type": "uint256"
        },
        {
          "internalType": "bytes32",
          "name": "biometricHash",
          "type": "bytes32"
        },
        {
          "internalType": "bytes",
          "name": "signature",
          "type": "bytes"
        }
      ],
      "name": "bindBiometric",
      "outputs": [],
      "stateMutability": "nonpayable",
      "type": "function"
    },
    {
      "inputs": [],
      "name": "eventId",
      "outputs": [
        {
          "internalType": "uint256",
          "name": "",
          "type": "uint256"
        }
      ],
      "stateMutability": "view",
      "type": "function"
    },
    {
      "inputs": [],
      "name": "factory",
      "outputs": [
        {
          "internalType": "address",
          "name": "",
          "type": "address"
        }
      ],
      "stateMutability": "view",
      "type": "function"
    },
    {
      "inputs": [
        {
          "internalType": "uint256",
          "name": "tokenId",
          "type": "uint256"
        }
      ],
      "name": "getApproved",
      "outputs": [
        {
          "internalType": "address",
          "name": "",
          "type": "address"
        }
      ],
      "stateMutability": "view",
      "type": "function"
    },
    {
      "inputs": [
        {
          "internalType": "uint256",
          "name": "tokenId",
          "type": "uint256"
        }
      ],
      "name": "getBiometricBinding",
      "outputs": [
        {
          "components": [
            {
              "internalType": "bytes32",
              "name": "biometricHash",
              "type": "bytes32"
            },
            {
              "internalType": "uint256",
              "name": "boundAt",
              "type": "uint256"
            },
            {
              "internalType": "uint8",
              "name": "bindingVersion",
              "type": "uint8"
            },
            {
              "internalType": "bool",
              "name": "isActive",
              "type": "bool"
            }
          ],
          "internalType": "struct ITrueTicketNFT.BiometricBinding",
          "name": "",
          "type": "tuple"
        }
      ],
      "stateMutability": "view",
      "type": "function"
    },
    {
      "inputs": [
        {
          "internalType": "bytes32",
          "name": "role",
          "type": "bytes32"
        }
      ],
      "name": "getRoleAdmin",
      "outputs": [
        {
          "internalType": "bytes32",
          "name": "",
          "type": "bytes32"
        }
      ],
      "stateMutability": "view",
      "type": "function"
    },
    {
      "inputs": [
        {
          "internalType": "uint256",
          "name": "tokenId",
          "type": "uint256"
        }
      ],
      "name": "getTicketMetadata",
      "outputs": [
        {
          "components": [
            {
              "internalType": "uint256",
              "name": "eventId",
              "type": "uint256"
            },
            {
              "internalType": "string",
              "name": "section",
              "type": "string"
            },
            {
              "internalType": "string",
              "name": "row",
              "type": "string"
            },
            {
              "internalType": "uint16",
              "name": "seatNumber",
              "type": "uint16"
            },
            {
              "internalType": "uint8",
              "name": "tier",
              "type": "uint8"
            },
            {
              "internalType": "uint256",
              "name": "originalPrice",
              "type": "uint256"
            },
            {
              "internalType": "uint256",
              "name": "mintTimestamp",
              "type": "uint256"
            },
            {
              "internalType": "bool",
              "name": "used",
              "type": "bool"
            }
          ],
          "internalType": "struct ITrueTicketNFT.TicketMetadata",
          "name": "",
          "type": "tuple"
        }
      ],
      "stateMutability": "view",
      "type": "function"
    },
    {
      "inputs": [
        {
          "internalType": "uint8",
          "name": "tierId",
          "type": "uint8"
        }
      ],
      "name": "getTierInfo",
      "outputs": [
        {
          "components": [
            {
              "internalType": "uint256",
              "name": "price",
              "type": "uint256"
            },
            {
              "internalType": "uint32",
              "name": "supply",
              "type": "uint32"
            },
            {
              "internalType": "uint32",
              "name": "minted",
              "type": "uint32"
            },
            {
              "internalType": "uint32",
              "name": "maxPerWallet",
              "type": "uint32"
            },
            {
              "internalType": "string",
              "name": "name",
              "type": "string"
            }
          ],
          "internalType": "struct TrueTicketNFT.TierInfo",
          "name": "",
          "type": "tuple"
        }
      ],
      "stateMutability": "view",
      "type": "function"
    },
    {
      "inputs": [
        {
          "internalType": "uint256",
          "name": "tokenId",
          "type": "uint256"
        }
      ],
      "name": "getTransferRestriction",
      "outputs": [
        {
          "components": [
            {
              "internalType": "bool",
              "name": "transferable",
              "type": "bool"
            },
            {
              "internalType": "bool",
              "name": "resaleAllowed",
              "type": "bool"
            },
            {
              "internalType": "uint256",
              "name": "lockUntil",
              "type": "uint256"
            },
            {
              "internalType": "uint256",
              "name": "maxTransfers",
              "type": "uint256"
            },
            {
              "internalType": "uint256",
              "name": "transferCount",
              "type": "uint256"
            }
          ],
          "internalType": "struct ITrueTicketNFT.TransferRestriction",
          "name": "",
          "type": "tuple"
        }
      ],
      "stateMutability": "view",
      "type": "function"
    },
    {
      "inputs": [
        {
          "internalType": "bytes32",
          "name": "role",
          "type": "bytes32"
        },
        {
          "internalType": "address",
          "name": "account",
          "type": "address"
        }
      ],
      "name": "grantRole",
      "outputs": [],
      "stateMutability": "nonpayable",
      "type": "function"
    },
    {
      "inputs": [
        {
          "internalType": "bytes32",
          "name": "role",
          "type": "bytes32"
        },
        {
          "internalType": "address",
          "name": "account",
          "type": "address"
        }
      ],
      "name": "hasRole",
      "outputs": [
        {
          "internalType": "bool",
          "name": "",
          "type": "bool"
        }
      ],
      "stateMutability": "view",
      "type": "function"
    },
    {
      "inputs": [
        {
          "internalType": "string",
          "name": "name_",
          "type": "string"
        },
        {
          "internalType": "string",
          "name": "symbol_",
          "type": "string"
        },
        {
          "internalType": "uint256",
          "name": "eventId_",
          "type": "uint256"
        },
        {
          "internalType": "address",
          "name": "admin",
          "type": "address"
        },
        {
          "internalType": "address",
          "name": "pricingController_",
          "type": "address"
        },
        {
          "internalType": "address",
          "name": "royaltyDistributor_",
          "type": "address"
        }
      ],
      "name": "initialize",
      "outputs": [],
      "stateMutability": "nonpayable",
      "type": "function"
    },
    {
      "inputs": [
        {
          "internalType": "address",
          "name": "owner",
          "type": "address"
        },
        {
          "internalType": "address",
          "name": "operator",
          "type": "address"
        }
      ],
      "name": "isApprovedForAll",
      "outputs": [
        {
          "internalType": "bool",
          "name": "",
          "type": "bool"
        }
      ],
      "stateMutability": "view",
      "type": "function"
    },
    {
      "inputs": [
        {
          "internalType": "uint256",
          "name": "tokenId",
          "type": "uint256"
        }
      ],
      "name": "isBiometricBound",
      "outputs": [
        {
          "internalType": "bool",
          "name": "",
          "type": "bool"
        }
      ],
      "stateMutability": "view",
      "type": "function"
    },
    {
      "inputs": [
        {
          "internalType": "uint256",
          "name": "tokenId",
          "type": "uint256"
        }
      ],
      "name": "markAsUsed",
      "outputs": [],
      "stateMutability": "nonpayable",
      "type": "function"
    },
    {
      "inputs": [],
      "name": "marketplace",
      "outputs": [
        {
          "internalType": "address",
          "name": "",
          "type": "address"
        }
      ],
      "stateMutability": "view",
      "type": "function"
    },
    {
      "inputs": [
        {
          "internalType": "address",
          "name": "to",
          "type": "address"
        },
        {
          "components": [
            {
              "internalType": "uint256",
              "name": "eventId",
              "type": "uint256"
            },
            {
              "internalType": "string",
              "name": "section",
              "type": "string"
            },
            {
              "internalType": "string",
              "name": "row",
              "type": "string"
            },
            {
              "internalType": "uint16",
              "name": "seatNumber",
              "type": "uint16"
            },
            {
              "internalType": "uint8",
              "name": "tier",
              "type": "uint8"
            },
            {
              "internalType": "uint256",
              "name": "originalPrice",
              "type": "uint256"
            },
            {
              "internalType": "uint256",
              "name": "mintTimestamp",
              "type": "uint256"
            },
            {
              "internalType": "bool",
              "name": "used",
              "type": "bool"
            }
          ],
          "internalType": "struct ITrueTicketNFT.TicketMetadata",
          "name": "metadata",
          "type": "tuple"
        },
        {
          "components": [
            {
              "internalType": "bool",
              "name": "transferable",
              "type": "bool"
            },
            {
              "internalType": "bool",
              "name": "resaleAllowed",
              "type": "bool"
            },
            {
              "internalType": "uint256",
              "name": "lockUntil",
              "type": "uint256"
            },
            {
              "internalType": "uint256",
              "name": "maxTransfers",
              "type": "uint256"
            },
            {
              "internalType": "uint256",
              "name": "transferCount",
              "type": "uint256"
            }
          ],
          "internalType": "struct ITrueTicketNFT.TransferRestriction",
          "name": "restrictions",
          "type": "tuple"
        }
      ],
      "name": "mint",
      "outputs": [
        {
          "internalType": "uint256",
          "name": "tokenId",
          "type": "uint256"
        }
      ],
      "stateMutability": "nonpayable",
      "type": "function"
    },
    {
      "inputs": [
        {
          "internalType": "address[]",
          "name": "recipients",
          "type": "address[]"
        },
        {
          "components": [
            {
              "internalType": "uint256",
              "name": "eventId",
              "type": "uint256"
            },
            {
              "internalType": "string",
              "name": "section",
              "type": "string"
            },
            {
              "internalType": "string",
              "name": "row",
              "type": "string"
            },
            {
              "internalType": "uint16",
              "name": "seatNumber",
              "type": "uint16"
            },
            {
              "internalType": "uint8",
              "name": "tier",
              "type": "uint8"
            },
            {
              "internalType": "uint256",
              "name": "originalPrice",
              "type": "uint256"
            },
            {
              "internalType": "uint256",
              "name": "mintTimestamp",
              "type": "uint256"
            },
            {
              "internalType": "bool",
              "name": "used",
              "type": "bool"
            }
          ],
          "internalType": "struct ITrueTicketNFT.TicketMetadata[]",
          "name": "metadataArray",
          "type": "tuple[]"
        },
        {
          "components": [
            {
              "internalType": "bool",
              "name": "transferable",
              "type": "bool"
            },
            {
              "internalType": "bool",
              "name": "resaleAllowed",
              "type": "bool"
            },
            {
              "internalType": "uint256",
              "name": "lockUntil",
              "type": "uint256"
            },
            {
              "internalType": "uint256",
              "name": "maxTransfers",
              "type": "uint256"
            },
            {
              "internalType": "uint256",
              "name": "transferCount",
              "type": "uint256"
            }
          ],
          "internalType": "struct ITrueTicketNFT.TransferRestriction",
          "name": "restrictions",
          "type": "tuple"
        }
      ],
      "name": "mintBatch",
      "outputs": [
        {
          "internalType": "uint256[]",
          "name": "tokenIds",
          "type": "uint256[]"
        }
      ],
      "stateMutability": "nonpayable",
      "type": "function"
    },
    {
      "inputs": [],
      "name": "name",
      "outputs": [
        {
          "internalType": "string",
          "name": "",
          "type": "string"
        }
      ],
      "stateMutability": "view",
      "type": "function"
    },
    {
      "inputs": [
        {
          "internalType": "uint256",
          "name": "tokenId",
          "type": "uint256"
        }
      ],
      "name": "ownerOf",
      "outputs": [
        {
          "internalType": "address",
          "name": "",
          "type": "address"
        }
      ],
      "stateMutability": "view",
      "type": "function"
    },
    {
      "inputs": [],
      "name": "pause",
      "outputs": [],
      "stateMutability": "nonpayable",
      "type": "function"
    },
    {
      "inputs": [],
      "name": "paused",
      "outputs": [
        {
          "internalType": "bool",
          "name": "",
          "type": "bool"
        }
      ],
      "stateMutability": "view",
      "type": "function"
    },
    {
      "inputs": [],
      "name": "pricingController",
      "outputs": [
        {
          "internalType": "address",
          "name": "",
          "type": "address"
        }
      ],
      "stateMutability": "view",
      "type": "function"
    },
    {
      "inputs": [
        {
          "internalType": "uint256",
          "name": "tokenId",
          "type": "uint256"
        },
        {
          "internalType": "bytes32",
          "name": "newBiometricHash",
          "type": "bytes32"
        },
        {
          "internalType": "bytes",
          "name": "ownerSignature",
          "type": "bytes"
        }
      ],
      "name": "rebindBiometric",
      "outputs": [],
      "stateMutability": "nonpayable",
      "type": "function"
    },
    {
      "inputs": [
        {
          "internalType": "bytes32",
          "name": "role",
          "type": "bytes32"
        },
        {
          "internalType": "address",
          "name": "callerConfirmation",
          "type": "address"
        }
      ],
      "name": "renounceRole",
      "outputs": [],
      "stateMutability": "nonpayable",
      "type": "function"
    },
    {
      "inputs": [
        {
          "internalType": "uint256",
          "name": "tokenId",
          "type": "uint256"
        }
      ],
      "name": "requiresBiometricRebind",
      "outputs": [
        {
          "internalType": "bool",
          "name": "",
          "type": "bool"
        }
      ],
      "stateMutability": "view",
      "type": "function"
    },
    {
      "inputs": [
        {
          "internalType": "bytes32",
          "name": "role",
          "type": "bytes32"
        },
        {
          "internalType": "address",
          "name": "account",
          "type": "address"
        }
      ],
      "name": "revokeRole",
      "outputs": [],
      "stateMutability": "nonpayable",
      "type": "function"
    },
    {
      "inputs": [],
      "name": "royaltyDistributor",
      "outputs": [
        {
          "internalType": "address",
          "name": "",
          "type": "address"
        }
      ],
      "stateMutability": "view",
      "type": "function"
    },
    {
      "inputs": [
        {
          "internalType": "uint256",
          "name": "tokenId",
          "type": "uint256"
        },
        {
          "internalType": "uint256",
          "name": "salePrice",
          "type": "uint256"
        }
      ],
      "name": "royaltyInfo",
      "outputs": [
        {
          "internalType": "address",
          "name": "receiver",
          "type": "address"
        },
        {
          "internalType": "uint256",
          "name": "amount",
          "type": "uint256"
        }
      ],
      "stateMutability": "view",
      "type": "function"
    },
    {
      "inputs": [
        {
          "internalType": "address",
          "name": "from",
          "type": "address"
        },
        {
          "internalType": "address",
          "name": "to",
          "type": "address"
        },
        {
          "internalType": "uint256",
          "name": "tokenId",
          "type": "uint256"
        }
      ],
      "name": "safeTransferFrom",
      "outputs": [],
      "stateMutability": "nonpayable",
      "type": "function"
    },
    {
      "inputs": [
        {
          "internalType": "address",
          "name": "from",
          "type": "address"
        },
        {
          "internalType": "address",
          "name": "to",
          "type": "address"
        },
        {
          "internalType": "uint256",
          "name": "tokenId",
          "type": "uint256"
        },
        {
          "internalType": "bytes",
          "name": "data",
          "type": "bytes"
        }
      ],
      "name": "safeTransferFrom",
      "outputs": [],
      "stateMutability": "nonpayable",
      "type": "function"
    },
    {
      "inputs": [
        {
          "internalType": "address",
          "name": "operator",
          "type": "address"
        },
        {
          "internalType": "bool",
          "name": "approved",
          "type": "bool"
        }
      ],
      "name": "setApprovalForAll",
      "outputs": [],
      "stateMutability": "nonpayable",
      "type": "function"
    },
    {
      "inputs": [
        {
          "internalType": "string",
          "name": "baseURI_",
          "type": "string"
        }
      ],
      "name": "setBaseURI",
      "outputs": [],
      "stateMutability": "nonpayable",
      "type": "function"
    },
    {
      "inputs": [
        {
          "internalType": "address",
          "name": "marketplace_",
          "type": "address"
        }
      ],
      "name": "setMarketplace",
      "outputs": [],
      "stateMutability": "nonpayable",
      "type": "function"
    },
    {
      "inputs": [
        {
          "internalType": "uint8",
          "name": "tierId",
          "type": "uint8"
        },
        {
          "internalType": "string",
          "name": "name",
          "type": "string"
        },
        {
          "internalType": "uint256",
          "name": "price",
          "type": "uint256"
        },
        {
          "internalType": "uint32",
          "name": "supply",
          "type": "uint32"
        },
        {
          "internalType": "uint32",
          "name": "maxPerWallet",
          "type": "uint32"
        }
      ],
      "name": "setTier",
      "outputs": [],
      "stateMutability": "nonpayable",
      "type": "function"
    },
    {
      "inputs": [
        {
          "internalType": "bytes4",
          "name": "interfaceId",
          "type": "bytes4"
        }
      ],
      "name": "supportsInterface",
      "outputs": [
        {
          "internalType": "bool",
          "name": "",
          "type": "bool"
        }
      ],
      "stateMutability": "view",
      "type": "function"
    },
    {
      "inputs": [],
      "name": "symbol",
      "outputs": [
        {
          "internalType": "string",
          "name": "",
          "type": "string"
        }
      ],
      "stateMutability": "view",
      "type": "function"
    },
    {
      "inputs": [
        {
          "internalType": "uint256",
          "name": "index",
          "type": "uint256"
        }
      ],
      "name": "tokenByIndex",
      "outputs": [
        {
          "internalType": "uint256",
          "name": "",
          "type": "uint256"
        }
      ],
      "stateMutability": "view",
      "type": "function"
    },
    {
      "inputs": [
        {
          "internalType": "address",
          "name": "owner",
          "type": "address"
        },
        {
          "internalType": "uint256",
          "name": "index",
          "type": "uint256"
        }
      ],
      "name": "tokenOfOwnerByIndex",
      "outputs": [
        {
          "internalType": "uint256",
          "name": "",
          "type": "uint256"
        }
      ],
      "stateMutability": "view",
      "type": "function"
    },
    {
      "inputs": [
        {
          "internalType": "uint256",
          "name": "tokenId",
          "type": "uint256"
        }
      ],
      "name": "tokenURI",
      "outputs": [
        {
          "internalType": "string",
          "name": "",
          "type": "string"
        }
      ],
      "stateMutability": "view",
      "type": "function"
    },
    {
      "inputs": [],
      "name": "totalSupply",
      "outputs": [
        {
          "internalType": "uint256",
          "name": "",
          "type": "uint256"
        }
      ],
      "stateMutability": "view",
      "type": "function"
    },
    {
      "inputs": [
        {
          "internalType": "address",
          "name": "from",
          "type": "address"
        },
        {
          "internalType": "address",
          "name": "to",
          "type": "address"
        },
        {
          "internalType": "uint256",
          "name": "tokenId",
          "type": "uint256"
        }
      ],
      "name": "transferFrom",
      "outputs": [],
      "stateMutability": "nonpayable",
      "type": "function"
    },
    {
      "inputs": [
        {
          "internalType": "uint256",
          "name": "tokenId",
          "type": "uint256"
        },
        {
          "internalType": "string",
          "name": "reason",
          "type": "string"
        }
      ],
      "name": "unbindBiometric",
      "outputs": [],
      "stateMutability": "nonpayable",
      "type": "function"
    },
    {
      "inputs": [],
      "name": "unpause",
      "outputs": [],
      "stateMutability": "nonpayable",
      "type": "function"
    }
  ],
  "bytecode": "0x60808060405234620000bd577ff0c57e16840df040f15088dc2f81fe391c3923bec73e23a9662efc9c229c6a009081549060ff8260401c16620000ae57506001600160401b036002600160401b03198282160162000068575b6040516148159081620000c38239f35b6001600160401b031990911681179091556040519081527fc7f505b2f371ae2175ee4913f4499e1f2633a7b5936321eed1cdaeb6115181d290602090a138808062000058565b63f92ee8a960e01b8152600490fd5b600080fdfe608080604052600436101561001357600080fd5b60003560e01c90816301ffc9a714612c325750806306fdde0314612b88578063081812fc14612b3d578063089cdd0c14612b1f578063095ea7b314612a385780630c073cb5146129fd5780630cd615521461286257806311d17dfd146127a957806318160ddd1461277e57806323b872dd14612767578063248a9ca31461272b5780632a55205a146126465780632f2ff15d146125fa5780632f745c591461256957806336568abe146125225780633f4ba83a146124ab57806342842e0e1461247d5780634309baeb146123de5780634f6acc6714611e175780634f6ccce714611db45780635581ed8714611d8b57806355f804b314611c185780635c975abb14611be85780635da6a04114611ab25780635e0b70d314611a965780636352211e14611a665780636ef7626c146114da57806370a08231146114af57806373ad6c2d1461141e5780637ed85ff3146113435780638456cb59146112dc578063888943ff1461107457806391d148541461101a57806395d89b4114610f39578063962e763714610f0857806399824f5014610d2f5780639eaa59e7146107c5578063a217fddf146107a9578063a22cb46514610700578063abc8c7af146106d7578063b88d4fde1461066c578063ba0ae43c1461052d578063c04b1af8146104f6578063c45a0155146104cd578063c87b56dd14610496578063d53913931461045b578063d547741f1461040d578063e3fa0718146102f5578063e985e9c5146102a7578063f2a51feb1461027e5763f5b541a61461025057600080fd5b346102795760003660031901126102795760206040516000805160206146a08339815191528152f35b600080fd5b34610279576000366003190112610279576003546040516001600160a01b039091168152602090f35b34610279576040366003190112610279576102c0612d4d565b6102d16102cb612d63565b916135e2565b9060018060a01b0316600052602052602060ff604060002054166040519015158152f35b34610279576040366003190112610279576004356024356001600160401b03811161027957610328903690600401612d79565b9061033161390b565b600083815260008051602061472083398151915260205260409020546001600160a01b0316156103f45782600052600b60205260ff60026040600020015460081c16156103df5760806000805160206147408339815191529284600052600b60205260406000209060028254920161ff0019815416905580604051948593845242602085015260606040850152816060850152848401376000828201840152601f01601f19168101030190a2005b6040516001625d1a6f60e11b03198152600490fd5b604051637e27328960e01b815260048101849052602490fd5b346102795760403660031901126102795761045960043561042c612d63565b90806000526000805160206146e08339815191526020526104546001604060002001546139b1565b613c2f565b005b346102795760003660031901126102795760206040517f9f2df0fed2c77648de5860a4cc508cd0818c85b8b8a1ab4ceeef8d981c8956a68152f35b34610279576020366003190112610279576104c96104b56004356143cc565b604051918291602083526020830190612d28565b0390f35b34610279576000366003190112610279576002546040516001600160a01b039091168152602090f35b3461027957602036600319011261027957600435600052600b602052602060ff60026040600020015460081c166040519015158152f35b346102795760208060031936011261027957600060e060405161054f81612e87565b828152606084820152606060408201528260608201528260808201528260a08201528260c082015201526004356000526007815260406000206040519061059582612e87565b8054825260406105a76001830161304c565b848401908152836105ba6002850161304c565b9383820194855260ff600382015461ffff61064660608601988284168a5284608088019460101c16845261063385600660048901549860a08b01998a5260c060058201549b019a8b520154169860e08d019915158a528a518e819f9e829f835251910152518c6101009b8c9101526101208d0190612d28565b90518b8203601f190160608d0152612d28565b9751166080890152511660a08701525160c08601525160e0850152511515908301520390f35b3461027957608036600319011261027957610685612d4d565b61068d612d63565b90604435606435926001600160401b0384116102795736602385011215610279576106c5610459943690602481600401359101612f15565b926106d18383836130ef565b3361423d565b34610279576000366003190112610279576005546040516001600160a01b039091168152602090f35b3461027957604036600319011261027957610719612d4d565b6024359081151590818303610279576001600160a01b03169182156107905761076290610745336135e2565b8460005260205260406000209060ff801983541691151516179055565b6040519081527f17307eab39ab6107e8899845ad3d59bd9653f200f220920489ca2b5937696c3160203392a3005b604051630b61174360e31b815260048101849052602490fd5b3461027957600036600319011261027957602060405160008152f35b346102795760031960e036820112610279576107df612d4d565b906001600160401b03602435116102795761010090602435360301126102795760a036604319011261027957610813613955565b61081b613cb2565b60ff61082b60846024350161368d565b166000526009602052600160406000200190815463ffffffff81168015610d1d5763ffffffff8260201c161015610d0c576001600160a01b0382166000908152600a6020526040902060ff61088460243560840161368d565b1660005260205263ffffffff6040600020549160401c161115610cfa57600154906108ae8261369b565b6001556108bb8282613cdd565b6000549260ff61ffff6108d760248035016024356004016136ce565b91906109336108f06044602435016024356004016136ce565b610927610901606460243501613700565b9461091060846024350161368d565b976040519d8e61091f81612e87565b523691612f15565b60208c01523691612f15565b604089015216606087015216608085015260a4602435013560a08501524260c0850152600060e085015282600052600760205260406000208451815560208501518051906001600160401b038211610c675761099f826109966001860154612f4c565b6001860161370f565b602090601f8311600114610c88576109d0929160009183610c7d575b50508160011b916000199060031b1c19161790565b60018201555b60408501519485516001600160401b038111610c6757602096610a0982610a006002870154612f4c565b6002870161370f565b8790601f8311600114610bec57610a9f93610a4684610b3598979560069560e095600092610be15750508160011b916000199060031b1c19161790565b60028501555b6003840161ffff60608301511681549062ff0000608085015160101b169162ffffff19161717905560a0810151600485015560c081015160058501550151151591019060ff801983541691151516179055565b83600052600885526040600020610ac9610ab7613765565b829060ff801983541691151516179055565b610aea610ad4613774565b825461ff00191690151560081b61ff0016178255565b608435600182015560a4356002820155600360c435910155610b1463ffffffff8254871c16613783565b67ffffffff0000000082549160201b169067ffffffff000000001916179055565b6001600160a01b0381166000908152600a84526040902060ff610b5c60243560840161368d565b1660005283526040600020610b71815461369b565b905560005490827fd86053201cee015aa5999d72095ac7e288bd202438584f372727bcc2fe571761610bd6610baa60846024350161368d565b6040805160ff909216825260243560a4013560208301526001600160a01b039095169490918291820190565b0390a4604051908152f35b015190508d806109bb565b9060028501600052886000209160005b601f1985168110610c5057509360018460069460e094610a9f98610b359b9a98601f19811610610c37575b505050811b016002850155610a4c565b015160001960f88460031b161c191690558c8080610c27565b91928a600181928685015181550194019201610bfc565b634e487b7160e01b600052604160045260246000fd5b0151905088806109bb565b9190600184016000526020600020906000935b601f1984168510610cdf576001945083601f19811610610cc6575b505050811b0160018201556109d6565b015160001960f88460031b161c19169055878080610cb6565b81810151835560209485019460019093019290910190610c9b565b60405163c0e54d7360e01b8152600490fd5b60405162c33f0960e31b8152600490fd5b60405163e142361760e01b8152600490fd5b346102795760a036600319011261027957610d48612e41565b6001600160401b039060243582811161027957610d69903690600401612d79565b63ffffffff606435818116959390869003610279576084359582871680970361027957600096610e27600294610d9d61390b565b60ff610dd260405196610daf88612e6c565b60443588526020998a8901978852604089019d8e52606089019687523691612f15565b99608087019a8b521660005260098752604060002094518555600199816001870195511663ffffffff198654161785555116839067ffffffff0000000082549160201b169067ffffffff000000001916179055565b5163ffffffff60401b82549160401b169063ffffffff60401b1916179055019251938451928311610c6757610e6683610e608654612f4c565b8661370f565b81601f8411600114610ea65750508190610e979394600092610e9b5750508160011b916000199060031b1c19161790565b9055005b0151905084806109bb565b60008581528181209392601f19861692905b838310610ef15750505094836001959610610ed8575b505050811b019055005b015160001960f88460031b161c19169055838080610ece565b888501518655948501949381019391810191610eb8565b3461027957602036600319011261027957600435600052600c602052602060ff604060002054166040519015158152f35b34610279576000366003190112610279576040516000805160206147a08339815191528054826000610f6a83612f4c565b9283835260209460019186600182169182600014610ff8575050600114610fae575b5050610f9a92500383612ed9565b6104c9604051928284938452830190612d28565b859250600052600080516020614680833981519152906000915b858310610fe0575050610f9a93508201018580610f8c565b80548389018501528794508693909201918101610fc8565b9250935050610f9a94915060ff191682840152151560051b8201018580610f8c565b3461027957604036600319011261027957611033612d63565b6004356000526000805160206146e083398151915260205260406000209060018060a01b0316600052602052602060ff604060002054166040519015158152f35b346102795761108236612da6565b83600094939452602090600080516020614720833981519152825260018060a01b03908160406000205416156112c3576110bb85613810565b82339116036112b157851561129f5761115290604051948486018781528860408801523360601b6060880152651c99589a5b9960d21b9687607482015246607a820152607a815261110b81612e6c565b519020604051868101917f19457468657265756d205369676e6564204d6573736167653a0a3332000000008352603c820152603c815261114a81612ea3565b519020613858565b906000805160206146a08339815191526000526000805160206146e0833981519152835260406000209116600052815260ff604060002054161561128d57827ff7e4d8d9a36a41a12173995448b7865efcea994f6c371674ed9f5e8f7ad372c39281600052600b8352604060002054906040516111ce81612e51565b8781526112328582019142835260ff600260408301926001845260608101956001875289600052600b8b52604060002091518255516001820155019151169260ff19938483541617825551151561ff00825491151560081b169061ff001916179055565b600c8552604060002090815416905581611253575b505050604051428152a3005b6000805160206147408339815191529160a091604051918252428683015260606040830152600660608301526080820152a2828580611247565b60405163970a4e8f60e01b8152600490fd5b604051630fe57cdd60e31b8152600490fd5b60405163e18d39ad60e01b8152600490fd5b604051637e27328960e01b815260048101869052602490fd5b34610279576000366003190112610279576112f561390b565b6112fd613cb2565b600080516020614700833981519152600160ff198254161790557f62e78cea01bee320cd4e420270b5ea74000d11b0c9f74754ebdbfc544b05a2586020604051338152a1005b34610279576020806003193601126102795760ff61135f612e41565b6060608060405161136f81612e6c565b60008152600086820152600060408201526000838201520152166000526009815260406000206104c9604051916113a583612e6c565b80548352600181015463ffffffff9081868601938183168552816113e2600260408a019383878d1c1685528360608c019760401c1687520161304c565b9560808901968752604051998a99818b5251908a01525116604088015251166060860152511660808401525160a08084015260c0830190612d28565b3461027957602036600319011261027957611437612d4d565b3360009081527fb7db2dd08fcb62d0c9e08c51941cae53c267786a0b75803fb7960902fc8ef97d602052604090205460ff161561149057600580546001600160a01b0319166001600160a01b0392909216919091179055005b60405163e2517d3f60e01b815233600482015260006024820152604490fd5b346102795760203660031901126102795760206114d26114cd612d4d565b6137db565b604051908152f35b346102795760c0366003190112610279576004356001600160401b0381116102795761150a903690600401612d79565b6024356001600160401b03811161027957611529903690600401612d79565b92906001600160a01b03906064358083169003610279576084359282841684036102795760a4359183831683036102795760008051602061478083398151915254956001600160401b03871680159081611a56575b6001149081611a4c575b159081611a43575b50611a31576115d7926115cf9160016001600160401b03198a16176000805160206147808339815191525560ff8960401c1615611a04575b3691612f15565b963691612f15565b946115e06145d0565b6115e86145d0565b8051906001600160401b038211610c675761161160008051602061466083398151915254612f4c565b601f811161198e575b50602090601f83116001146119005761164b929160009183610c7d5750508160011b916000199060031b1c19161790565b600080516020614660833981519152555b8451946001600160401b038611610c67576116856000805160206147a083398151915254612f4c565b601f8111611886575b50602090601f87116001146117f65795806116c29260ff98600092610c7d5750508160011b916000199060031b1c19161790565b6000805160206147a0833981519152555b6116db6145d0565b6116e36145d0565b6116eb6145d0565b6116f36145d0565b6116fb6145d0565b6117036145d0565b61170b6145d0565b60017f9b779b17422d0df92223018b32b4d1fa46e071723d6817e2486d003becc55f005561173a6064356139e4565b50611746606435613a72565b50611752606435613b22565b5061175c33613b22565b50604435600055816001600160601b0360a01b933385600254161760025516836003541617600355169060045416176004556001805560401c161561179d57005b68ff0000000000000000196000805160206147808339815191525416600080516020614780833981519152557fc7f505b2f371ae2175ee4913f4499e1f2633a7b5936321eed1cdaeb6115181d2602060405160018152a1005b90601f198716916000805160206147a08339815191526000526000805160206146808339815191529260005b81811061186e575091600193918960ff9a9410611855575b505050811b016000805160206147a0833981519152556116d3565b015160001960f88460031b161c1916905587808061183a565b92936020600181928786015181550195019301611822565b6000805160206147a0833981519152600052601f870160051c6000805160206146808339815191520190602088106118ea575b601f0160051c60008051602061468083398151915201905b8181106118de575061168e565b600081556001016118d1565b60008051602061468083398151915291506118b9565b90601f198316916000805160206146608339815191526000526000805160206147c08339815191529260005b818110611976575090846001959493921061195d575b505050811b016000805160206146608339815191525561165c565b015160001960f88460031b161c19169055878080611942565b9293602060018192878601518155019501930161192c565b600080516020614660833981519152600052601f830160051c6000805160206147c083398151915201602084106119ef575b601f820160051c6000805160206147c08339815191520181106119e3575061161a565b600081556001016119c0565b506000805160206147c08339815191526119c0565b68ffffffffffffffffff1989166801000000000000000117600080516020614780833981519152556115c8565b60405163f92ee8a960e01b8152600490fd5b90501589611590565b303b159150611588565b604089901c60ff1615915061157e565b34610279576020366003190112610279576020611a84600435613810565b6040516001600160a01b039091168152f35b3461027957600036600319011261027957602060405160018152f35b346102795760208060031936011261027957600435907fa9b81438e9053a522b683603c102f65503853bc7aa82f89a130662d957c081fb806000526000805160206146e08339815191528252604060002033600052825260ff6040600020541615611bca57506000828152600080516020614720833981519152825260409020546001600160a01b031615611bb157816000526007815260ff60066040600020015416611b9f577fad0a02848182e7d3a9bb0ae2cc919bdef92f9da6b0a45ced3656cf5443212ede9082600052600781526006604060002001600160ff19825416179055604051428152a2005b604051630869773360e41b8152600490fd5b604051637e27328960e01b815260048101839052602490fd5b6044906040519063e2517d3f60e01b82523360048301526024820152fd5b3461027957600036600319011261027957602060ff60008051602061470083398151915254166040519015158152f35b3461027957602080600319360112610279576001600160401b0360043581811161027957611c4a903690600401612d79565b91611c5361390b565b8211610c6757611c64600654612f4c565b601f8111611d2b575b50600092601f8311600114611cae5750611c9e9260009183611ca35750508160011b916000199060031b1c19161790565b600655005b0135905083806109bb565b601f198316937ff652222313e28459528d920b65115c16c04f3efc82aaedc97be59f3f377c0d3f92916000905b868210611d135750508360019510611cf9575b505050811b01600655005b0135600019600384901b60f8161c19169055828080611cee565b80600184968294958701358155019501920190611cdb565b7ff652222313e28459528d920b65115c16c04f3efc82aaedc97be59f3f377c0d3f601f840160051c81019160208510611d81575b601f0160051c01905b818110611d755750611c6d565b60008155600101611d68565b9091508190611d5f565b34610279576000366003190112610279576004546040516001600160a01b039091168152602090f35b34610279576020366003190112610279576004356000805160206146c083398151915254811015611df857611dea602091613798565b90546040519160031b1c8152f35b6044906040519063295f44f760e21b8252600060048301526024820152fd5b346102795760e0366003190112610279576004356001600160401b03811161027957611e47903690600401612e11565b906024356001600160401b03811161027957611e67903690600401612e11565b60a036604319011261027957611e7b613955565b611e83613cb2565b8084036123cc57611e9384613654565b93611ea16040519586612ed9565b808552611ead81613654565b601f190136602087013760005b818110611f07578560405180916020820160208352815180915260206040840192019060005b818110611eee575050500390f35b8251845285945060209384019390920191600101611ee0565b60ff611f1f6080611f1984878961366b565b0161368d565b166000526009602052600160406000200190815463ffffffff811615610d1d5763ffffffff8082169160201c161015610d0c57600154611f5e8161369b565b60015587518210156123b657808260051b89016020015280611f8183868a6136aa565b611f8a906136ba565b90611f9491613cdd565b6000549085611fa484828a61366b565b60208101611fb1916136ce565b9190898287611fc181838561366b565b60408101611fce916136ce565b92611fda92919461366b565b606001611fe690613700565b928c89611ff481888461366b565b6080016120009061368d565b9661200a9261366b565b60a00135956040519861201c8a612e87565b8952369061202992612f15565b6020880152369061203992612f15565b604086015261ffff16606085015260ff16608084015260a08301524260c083015260e08201600090528060005260076020526040600020938251855560208301518051906001600160401b038211610c67576120a58261209c60018a0154612f4c565b60018a0161370f565b602090601f8311600114612344576120d5929160009183610be15750508160011b916000199060031b1c19161790565b60018601555b60408301518051916001600160401b038311610c6757868a95848d9461210a8c97610a008f9d60020154612f4c565b602090601f831160011461227857956121c860019c9661217a6122219760068f978f9e9d9799610a46827fd86053201cee015aa5999d72095ac7e288bd202438584f372727bcc2fe5717619f936121eb9d60e09560009261226d5750508160011b916000199060031b1c19161790565b8960005260086020526040600020612193610ab7613765565b61219e610ad4613774565b6084358f82015560a4356002820155600360c435910155610b1463ffffffff825460201c16613783565b8860ff61220460808f8781611f199260a01b039b8c6121f06121eb848c8c6136aa565b6136ba565b16600052600a60205260406000209661366b565b16600052602052604060002061221a815461369b565b90556136aa565b61226460a0612244898d61223e6080611f1984846000549f61366b565b9961366b565b01356040519384931696836020909392919360ff60408201951681520152565b0390a401611eba565b0151905038806109bb565b906002859c9897969c0160005260206000209160005b601f1985168110612312575060019c61217a612221978f8f978f9e9d9b9699600692827fd86053201cee015aa5999d72095ac7e288bd202438584f372727bcc2fe5717619f9a6121eb9d6121c89a60e096601f198116106122f957505050811b016002850155610a4c565b015160001960f88460031b161c19169055388080610c27565b95999b9c9a5093975094506020919550600182918685015181550194019201938d938d989a9997938d97938d9761228e565b9190600188016000526020600020906000935b601f198416851061239b576001945083601f19811610612382575b505050811b0160018601556120db565b015160001960f88460031b161c191690558c8080612372565b81810151835560209485019460019093019290910190612357565b634e487b7160e01b600052603260045260246000fd5b60405163512509d360e11b8152600490fd5b3461027957602036600319011261027957600060606040516123ff81612e51565b8281528260208201528260408201520152600435600052600b602052608060406000206040519061242f82612e51565b60ff81549283815260026001840154936020830194855201549282606060408401938287168552019460081c1615158452604051948552516020850152511660408301525115156060820152f35b346102795761045961248e36612ddc565b906040519261249c84612ebe565b600084526106d18383836130ef565b34610279576000366003190112610279576124c461390b565b600080516020614700833981519152805460ff8116156125105760ff191690557f5db9ee0a495bf2e6ff9c91a7834c1ba4fdd244a5e8aa4e537bd38aeae4b073aa6020604051338152a1005b604051638dfc202b60e01b8152600490fd5b346102795760403660031901126102795761253b612d63565b336001600160a01b038216036125575761045990600435613c2f565b60405163334bd91960e11b8152600490fd5b3461027957604036600319011261027957612582612d4d565b6024359061258f816137db565b8210156125cf5760018060a01b03166000526000805160206146408339815191526020526040600020906000526020526020604060002054604051908152f35b60405163295f44f760e21b81526001600160a01b039190911660048201526024810191909152604490fd5b3461027957604036600319011261027957610459600435612619612d63565b90806000526000805160206146e08339815191526020526126416001604060002001546139b1565b613bba565b34610279576040366003190112610279576024356004356000527fdaedc9ab023613a7caf35e703657e986ccfad7e3eb0af93a2853f8d65dd86b016020526040600020549060018060a01b038083169260a01c9083156126f2575b506001600160601b0316908181029181830414901517156126dc57604080516001600160a01b03939093168352612710909104602083015290f35b634e487b7160e01b600052601160045260246000fd5b7fdaedc9ab023613a7caf35e703657e986ccfad7e3eb0af93a2853f8d65dd86b0054908116935060a01c90506001600160601b036126a1565b34610279576020366003190112610279576004356000526000805160206146e08339815191526020526020600160406000200154604051908152f35b346102795761045961277836612ddc565b916130ef565b346102795760003660031901126102795760206000805160206146c083398151915254604051908152f35b3461027957602036600319011261027957600060806040516127ca81612e6c565b8281528260208201528260408201528260608201520152600435600052600860205260a060406000206040516127ff81612e6c565b81549160ff831615159283835260ff602084019160081c1615158152600182015490604084019182526080600360028501549460608701958652015494019384526040519485525115156020850152516040840152516060830152516080820152f35b346102795761287036612da6565b83600094939452602091600080516020614720833981519152835260018060a01b03918260406000205416156112c3576128a985613810565b83339116036112b157851561129f5784600052600b845260ff60026040600020015460081c166129eb5761290391604051858101908782528860408201523360601b60608201524660748201526074815261110b81612e6c565b906000805160206146a08339815191526000526000805160206146e0833981519152835260406000209116600052815260ff604060002054161561128d577ff7e4d8d9a36a41a12173995448b7865efcea994f6c371674ed9f5e8f7ad372c39060405161296f81612e51565b8481526129d38282019142835260ff600260408301926001845260608101956001875289600052600b8852604060002091518255516001820155019151169260ff19938483541617825551151561ff00825491151560081b169061ff001916179055565b600c82526040600020908154169055604051428152a3005b60405163155dd1f360e01b8152600490fd5b346102795760003660031901126102795760206040517fa9b81438e9053a522b683603c102f65503853bc7aa82f89a130662d957c081fb8152f35b3461027957604036600319011261027957612a51612d4d565b602435612a5d81613810565b33151580612b0c575b80612aec575b612ad4576001600160a01b039283169282918491167f8c5be1e5ebec7d5bd14f71427d1e84f3dd0314c0f7b2291e5b200ac8c7c3b925600080a460009081526000805160206147608339815191526020526040902080546001600160a01b0319169091179055005b60405163a9fbf51f60e01b8152336004820152602490fd5b50612af6816135e2565b3360005260205260ff6040600020541615612a6c565b506001600160a01b038116331415612a66565b34610279576000366003190112610279576020600054604051908152f35b3461027957602036600319011261027957600435612b5a81613810565b50600052600080516020614760833981519152602052602060018060a01b0360406000205416604051908152f35b34610279576000366003190112610279576040516000805160206146608339815191528054826000612bb983612f4c565b9283835260209460019186600182169182600014610ff8575050600114612be8575050610f9a92500383612ed9565b8592506000526000805160206147c0833981519152906000915b858310612c1a575050610f9a93508201018580610f8c565b80548389018501528794508693909201918101612c02565b34610279576020366003190112610279576004359063ffffffff60e01b821680920361027957602091637965db0b60e01b8114908115612c74575b5015158152f35b63152a902d60e11b811491508115612c8e575b5083612c6d565b63780e9d6360e01b811491508115612ca8575b5083612c87565b632483248360e11b811491508115612cc2575b5083612ca1565b6380ac58cd60e01b811491508115612cf4575b8115612ce3575b5083612cbb565b6301ffc9a760e01b14905083612cdc565b635b5e139f60e01b81149150612cd5565b60005b838110612d185750506000910152565b8181015183820152602001612d08565b90602091612d4181518092818552858086019101612d05565b601f01601f1916010190565b600435906001600160a01b038216820361027957565b602435906001600160a01b038216820361027957565b9181601f84011215610279578235916001600160401b038311610279576020838186019501011161027957565b6060600319820112610279576004359160243591604435906001600160401b03821161027957612dd891600401612d79565b9091565b6060906003190112610279576001600160a01b0390600435828116810361027957916024359081168103610279579060443590565b9181601f84011215610279578235916001600160401b038311610279576020808501948460051b01011161027957565b6004359060ff8216820361027957565b608081019081106001600160401b03821117610c6757604052565b60a081019081106001600160401b03821117610c6757604052565b61010081019081106001600160401b03821117610c6757604052565b606081019081106001600160401b03821117610c6757604052565b602081019081106001600160401b03821117610c6757604052565b90601f801991011681019081106001600160401b03821117610c6757604052565b6001600160401b038111610c6757601f01601f191660200190565b929192612f2182612efa565b91612f2f6040519384612ed9565b829481845281830111610279578281602093846000960137010152565b90600182811c92168015612f7c575b6020831014612f6657565b634e487b7160e01b600052602260045260246000fd5b91607f1691612f5b565b6040519060008260065491612f9a83612f4c565b808352926020906001908181169081156130285750600114612fc7575b5050612fc592500383612ed9565b565b91509260066000527ff652222313e28459528d920b65115c16c04f3efc82aaedc97be59f3f377c0d3f936000925b8284106130105750612fc59450505081016020013880612fb7565b85548885018301529485019487945092810192612ff5565b91505060209250612fc594915060ff191682840152151560051b8201013880612fb7565b9060405191826000825461305f81612f4c565b908184526020946001916001811690816000146130cd575060011461308e575b505050612fc592500383612ed9565b600090815285812095935091905b8183106130b5575050612fc5935082010138808061307f565b8554888401850152948501948794509183019161309c565b92505050612fc594925060ff191682840152151560051b82010138808061307f565b90916001600160a01b038084169283156135c957600093838552600080516020614720833981519152946020868152604097858984205416801515806135c1575b61343c575b5086835287825285898420541697331515806133a2575b508815908115613363575b6131608361361b565b80546001019055888552835289842080546001600160a01b0319168617905587858a7fddf252ad1be2c89b69c2b068fc378daa952ba7f163c4a11628f55a4df523b3ef8780a4156132dd576000805160206146c08339815191528054908885527f645e039705490088daad89bae25049a34f4a9072d398537b1ab2425f24cbed038452818b862055600160401b8210156132c957613208828a92600161322195019055613798565b90919082549060031b91821b91600019901b1916179055565b83880361325d575b50505050169283830361323c5750505050565b6064945051926364283d7b60e01b8452600484015260248301526044820152fd5b613266906137db565b6000198101939084116132b5578291600080516020614620833981519152918a945260008051602061464083398151915281528383208584528152878484205587835252205538808080613229565b634e487b7160e01b83526011600452602483fd5b634e487b7160e01b85526041600452602485fd5b878414613221576132ed886137db565b878452600080516020614620833981519152908184528a852054918a865260008051602061464083398151915285528b862092828103613341575b508986528452848b812055845282528289812055613221565b8287528386528c808820548091838a5289205587528186528c87205538613328565b60008981526000805160206147608339815191526020526040902080546001600160a01b03191690556133958a61361b565b8054600019019055613157565b806133ef575b156133b3573861314c565b89888a6133d0576024915190637e27328960e01b82526004820152fd5b905163177e802f60e01b81523360048201526024810191909152604490fd5b503389148015613421575b806133a85750878452600080516020614760833981519152835233878b86205416146133a8565b5061342b896135e2565b338552835260ff8a852054166133fa565b6008835289842060ff815416156135b05760018101548042106135995750600281015480613577575b508885526007845260ff60068c87200154166135665790600386920161348b815461369b565b9055887fdfc4c991a34be4b2f90df7c348d98b17393713ef48853d9071cf19d4687a6a36858d51888152a4868352600b8252868984206002810190815460ff8160081c166134dc575b505050613135565b6000805160206147408339815191529260a092549161ff0019169055600c86528c8720600160ff198254161790558c51908152428682015260608d82015260086060820152673a3930b739b332b960c11b6080820152a283877f900b08e9185c4d6bf879cf4bb52aee4063b37db6b1f3d3824ddcd7ba969c16ce848c51428152a3863880806134d4565b8a51630869773360e41b8152600490fd5b600382015410156135885738613465565b8a5163252fb4b960e11b8152600490fd5b6024908c519063a9de8c6f60e01b82526004820152fd5b8a51638574adcf60e01b8152600490fd5b506001613130565b604051633250574960e11b815260006004820152602490fd5b6001600160a01b031660009081527f80bb2b638cc20bc4d0a60d66940f3ab4a00c1d7b313497ca82fb0b4ab00793056020526040902090565b6001600160a01b031660009081527f80bb2b638cc20bc4d0a60d66940f3ab4a00c1d7b313497ca82fb0b4ab00793036020526040902090565b6001600160401b038111610c675760051b60200190565b91908110156123b65760051b8101359060fe1981360301821215610279570190565b3560ff811681036102795790565b60001981146126dc5760010190565b91908110156123b65760051b0190565b356001600160a01b03811681036102795790565b903590601e198136030182121561027957018035906001600160401b0382116102795760200191813603831361027957565b3561ffff811681036102795790565b90601f811161371d57505050565b6000916000526020600020906020601f850160051c8301941061375b575b601f0160051c01915b82811061375057505050565b818155600101613744565b909250829061373b565b60443580151581036102795790565b60643580151581036102795790565b63ffffffff8091169081146126dc5760010190565b6000805160206146c083398151915280548210156123b6576000527fa42f15e5d656f8155fd7419d740a6073999f19cd6e061449ce4a257150545bf20190600090565b6001600160a01b038116156137f7576137f39061361b565b5490565b6040516322718ad960e21b815260006004820152602490fd5b600081815260008051602061472083398151915260205260409020546001600160a01b0316908115613840575090565b60249060405190637e27328960e01b82526004820152fd5b916041036138c657604081013560001a601b81106138b4575b6020928360009360ff6080946040519485521682840152803560408401520135606082015282805260015afa156138a85760005190565b6040513d6000823e3d90fd5b601b019060ff82116126dc5790613871565b60405162461bcd60e51b815260206004820152601860248201527f496e76616c6964207369676e6174757265206c656e67746800000000000000006044820152606490fd5b3360009081527f448256db8f8fb95ee3eaaf89c1051414494e85cebb6057fcf996cc3d0ccfb45660205260409020546000805160206146a08339815191529060ff1615611bca5750565b3360009081527f549fe2656c81d2947b3b913f0a53b9ea86c71e049f3a1b8aa23c09a8a05cb8d460205260409020547f9f2df0fed2c77648de5860a4cc508cd0818c85b8b8a1ab4ceeef8d981c8956a69060ff1615611bca5750565b806000526000805160206146e083398151915260205260406000203360005260205260ff6040600020541615611bca5750565b6001600160a01b031660008181527fb7db2dd08fcb62d0c9e08c51941cae53c267786a0b75803fb7960902fc8ef97d60205260408120549091906000805160206146e08339815191529060ff16613a6d578280526020526040822081835260205260408220600160ff1982541617905533916000805160206146008339815191528180a4600190565b505090565b6001600160a01b031660008181527f549fe2656c81d2947b3b913f0a53b9ea86c71e049f3a1b8aa23c09a8a05cb8d460205260408120549091907f9f2df0fed2c77648de5860a4cc508cd0818c85b8b8a1ab4ceeef8d981c8956a6906000805160206146e08339815191529060ff16613b1c578184526020526040832082845260205260408320600160ff19825416179055600080516020614600833981519152339380a4600190565b50505090565b6001600160a01b031660008181527f448256db8f8fb95ee3eaaf89c1051414494e85cebb6057fcf996cc3d0ccfb45660205260408120549091906000805160206146a0833981519152906000805160206146e08339815191529060ff16613b1c578184526020526040832082845260205260408320600160ff19825416179055600080516020614600833981519152339380a4600190565b906000918083526000805160206146e083398151915280602052604084209260018060a01b03169283855260205260ff60408520541615600014613b1c578184526020526040832082845260205260408320600160ff19825416179055600080516020614600833981519152339380a4600190565b906000918083526000805160206146e083398151915280602052604084209260018060a01b03169283855260205260ff604085205416600014613b1c57818452602052604083208284526020526040832060ff1981541690557ff6391f5c32d9c69d2a47ea670b442974b53935d1edc7fd64eb21e047a839171b339380a4600190565b60ff6000805160206147008339815191525416613ccb57565b60405163d93c066560e01b8152600490fd5b60408051613cea81612ebe565b6000808252936001600160a01b038481169490929085156142255782875260008051602061472083398151915260209481865280878a2054168015158061421d575b614097575b50848952818652868920541687898682847fddf252ad1be2c89b69c2b068fc378daa952ba7f163c4a11628f55a4df523b3ef81159485159889614058575b613d788b61361b565b805460010190558582528d528d812080546001600160a01b0319168517905580a415613fd057506000805160206146c0833981519152805490868b527f645e039705490088daad89bae25049a34f4a9072d398537b1ab2425f24cbed03885281898c2055600160401b821015613fbc578661320883613dfe9360018e9796019055613798565b03613f55575b613f3d573b613e16575b505050505050565b82613e54918596979894955180938192630a85bd0160e11b968784523360048501528c60248501526044840152608060648401526084830190612d28565b03818a8a5af1879181613ef9575b50613ec2575050503d600014613eb9573d613e7c81612efa565b90613e8984519283612ed9565b81528094823d92013e5b83519384613eb3578251633250574960e11b815260048101859052602490fd5b84925001fd5b60609350613e93565b919550915063ffffffff60e01b1603613ee2575050388080808080613e0e565b602492505190633250574960e11b82526004820152fd5b9091508481813d8311613f36575b613f118183612ed9565b81010312613f3257516001600160e01b031981168103613f32579038613e62565b8780fd5b503d613f07565b84516339e3563760e11b815260048101889052602490fd5b613f5e826137db565b6000198101908111613fa8578789526000805160206146408339815191528652868920818a52865284878a2055848952600080516020614620833981519152865286892055613e04565b634e487b7160e01b89526011600452602489fd5b634e487b7160e01b8b52604160045260248bfd5b90808214613dfe5789613fe2826137db565b878252600080516020614620833981519152808a528a8320548484526000805160206146408339815191528b528b80852094848303614037575b90508a91505289528b8a8120558b5287528988812055613dfe565b848152858d528181205483825280838320558152838d522055388b8e61401c565b60008681526000805160206147608339815191526020526040902080546001600160a01b031916905561408a8461361b565b8054600019019055613d6f565b60088752878a2060ff8154161561420c5760018101548042106141f557506002810154806141d3575b50868b526007885260ff60068a8d200154166141c2579060038a92016140e6815461369b565b9055867fdfc4c991a34be4b2f90df7c348d98b17393713ef48853d9071cf19d4687a6a36898d8c51908152a4848952600b865284878a206002810190815460ff8160081c16614138575b505050613d31565b6000805160206147408339815191529260a092549161ff0019169055600c8a528a8d20600160ff198254161790558a51908152428a82015260608b82015260086060820152673a3930b739b332b960c11b6080820152a287857f900b08e9185c4d6bf879cf4bb52aee4063b37db6b1f3d3824ddcd7ba969c16ce888a51428152a384388080614130565b8851630869773360e41b8152600490fd5b600382015410156141e457386140c0565b885163252fb4b960e11b8152600490fd5b6024908a519063a9de8c6f60e01b82526004820152fd5b8851638574adcf60e01b8152600490fd5b506001613d2c565b8451633250574960e11b815260048101889052602490fd5b90939192833b61424f575b5050505050565b604051630a85bd0160e11b8082526001600160a01b03938416600483015295831660248201526044810191909152608060648201529492169260209291859061429c906084830190612d28565b039483816000978189895af1869181614347575b50614311575050503d600014614308573d6142ca81612efa565b906142d86040519283612ed9565b81528093823d92013e5b8251928361430357604051633250574960e11b815260048101849052602490fd5b019050fd5b606092506142e2565b919450915063ffffffff60e01b160361432f57503880808080614248565b60249060405190633250574960e11b82526004820152fd5b9091508481813d8311614384575b61435f8183612ed9565b8101031261438057516001600160e01b0319811681036143805790386142b0565b8680fd5b503d614355565b6020612fc59193929360405194816143ac8793518092868087019101612d05565b82016143c082518093868085019101612d05565b01038085520183612ed9565b6143d581613810565b5060008181527f0542a41881ee128a365a727b282c86fa859579490b9bb45aab8503648c8e790060205261440b6040822061304c565b614413612f86565b8051156145c95781516145bc57505061442b82613810565b50614434612f86565b8051909290156145a85780827a184f03e93ff9f4daa797ed6e38ed64bf6a1f010000000000000000828181101561459a575b50506d04ee2d6d415b85acef81000000008084101561458d575b50662386f26fc1000080841015614580575b506305f5e10080841015614573575b5061271080841015614566575b506064831015614558575b600a80931015614550575b90602191600192816001859301966144db88612efa565b976144e9604051998a612ed9565b8089526144f8601f1991612efa565b013660208a013750860101905b61451a575b505050506145179161438b565b90565b600019019083906f181899199a1a9b1b9c1cb0b131b232b360811b8282061a83530491821561454b57919082614505565b61450a565b6001016144c4565b9160646002910492016144b9565b60049193049201386144ae565b60089193049201386144a1565b6010919304920138614492565b6020919304920138614480565b049250604090503880614466565b5060405191506145b782612ebe565b815290565b909150614517925061438b565b5091505090565b60ff6000805160206147808339815191525460401c16156145ed57565b604051631afcd79f60e31b8152600490fdfe2f8788117e7eff1d82e926ec794901d17c78024a50270940304540a733656f0d645e039705490088daad89bae25049a34f4a9072d398537b1ab2425f24cbed01645e039705490088daad89bae25049a34f4a9072d398537b1ab2425f24cbed0080bb2b638cc20bc4d0a60d66940f3ab4a00c1d7b313497ca82fb0b4ab0079300f4bad0a69248f59680a4f2b3000328cec71a413447c96781cfe5996daa8c456e97667070c54ef182b0f5858b034beac1b6f3089aa2d3188bb1e8929f4fa9b929645e039705490088daad89bae25049a34f4a9072d398537b1ab2425f24cbed0202dd7bc7dec4dceedda775e58dd541e08a116c6c53815c0bd028192f7b626800cd5ed15c6e187e77e9aee88184c21f4f2182ab5827cb3b7e07fbedcd63f0330080bb2b638cc20bc4d0a60d66940f3ab4a00c1d7b313497ca82fb0b4ab00793027d6cb612294f52423045dd6dbae4f5de842099c189a5f9192a3092255f26b07280bb2b638cc20bc4d0a60d66940f3ab4a00c1d7b313497ca82fb0b4ab0079304f0c57e16840df040f15088dc2f81fe391c3923bec73e23a9662efc9c229c6a0080bb2b638cc20bc4d0a60d66940f3ab4a00c1d7b313497ca82fb0b4ab007930137c58c799b6609234b945e882912ee9ad34948a1dfaa20a97485e1a7752bbf81a2646970667358221220374d5c396212ecdc8b30424672edef3924506c84306ec06f6d1d12da029e36f464736f6c63430008180033",
  "linkReferences": {},
  "deployedLinkReferences": {}
}