{
  "_format": "hh-sol-artifact-1",
  "contractName": "TrueTicketNFT",
  "sourceName": "contracts/TrueTicketNFT.sol",
  "abi": [
    {
      "inputs": [],
      "stateMutability": "nonpayable",
      "type": "constructor"
    },
    {
      "inputs": [],
      "name": "AccessControlBadConfirmation",
      "type": "error"
    },
    {
      "inputs": [
        {
          "internalType": "address",
          "name": "account",
          "type": "address"
        },
        {
          "internalType": "bytes32",
          "name": "neededRole",
          "type": "bytes32"
        }
      ],
      "name": "AccessControlUnauthorizedAccount",
      "type": "error"
    },
    {
      "inputs": [],
      "name": "ArrayLengthMismatch",
      "type": "error"
    },
    {
      "inputs": [
        {
          "internalType": "uint256",
          "name": "numerator",
          "type": "uint256"
        },
        {
          "internalType": "uint256",
          "name": "denominator",
          "type": "uint256"
        }
      ],
      "name": "ERC2981InvalidDefaultRoyalty",
      "type": "error"
    },
    {
      "inputs": [
        {
          "internalType": "address",
          "name": "receiver",
          "type": "address"
        }
      ],
      "name": "ERC2981InvalidDefaultRoyaltyReceiver",
      "type": "error"
    },
    {
      "inputs": [
        {
          "internalType": "uint256",
          "name": "tokenId",
          "type": "uint256"
        },
        {
          "internalType": "uint256",
          "name": "numerator",
          "type": "uint256"
        },
        {
          "internalType": "uint256",
          "name": "denominator",
          "type": "uint256"
        }
      ],
      "name": "ERC2981InvalidTokenRoyalty",
      "type": "error"
    },
    {
      "inputs": [
        {
          "internalType": "uint256",
          "name": "tokenId",
          "type": "uint256"
        },
        {
          "internalType": "address",
          "name": "receiver",
          "type": "address"
        }
      ],
      "name": "ERC2981InvalidTokenRoyaltyReceiver",
      "type": "error"
    },
    {
      "inputs": [],
      "name": "ERC721EnumerableForbiddenBatchMint",
      "type": "error"
    },
    {
      "inputs": [
        {
          "internalType": "address",
          "name": "sender",
          "type": "address"
        },
        {
          "internalType": "uint256",
          "name": "tokenId",
          "type": "uint256"
        },
        {
          "internalType": "address",
          "name": "owner",
          "type": "address"
        }
      ],
      "name": "ERC721IncorrectOwner",
      "type": "error"
    },
    {
      "inputs": [
        {
          "internalType": "address",
          "name": "operator",
          "type": "address"
        },
        {
          "internalType": "uint256",
          "name": "tokenId",
          "type": "uint256"
        }
      ],
      "name": "ERC721InsufficientApproval",
      "type": "error"
    },
    {
      "inputs": [
        {
          "internalType": "address",
          "name": "approver",
          "type": "address"
        }
      ],
      "name": "ERC721InvalidApprover",
      "type": "error"
    },
    {
      "inputs": [
        {
          "internalType": "address",
          "name": "operator",
          "type": "address"
        }
      ],
      "name": "ERC721InvalidOperator",
      "type": "error"
    },
    {
      "inputs": [
        {
          "internalType": "address",
          "name": "owner",
          "type": "address"
        }
      ],
      "name": "ERC721InvalidOwner",
      "type": "error"
    },
    {
      "inputs": [
        {
          "internalType": "address",
          "name": "receiver",
          "type": "address"
        }
      ],
      "name": "ERC721InvalidReceiver",
      "type": "error"
    },
    {
      "inputs": [
        {
          "internalType": "address",
          "name": "sender",
          "type": "address"
        }
      ],
      "name": "ERC721InvalidSender",
      "type": "error"
    },
    {
      "inputs": [
        {
          "internalType": "uint256",
          "name": "tokenId",
          "type": "uint256"
        }
      ],
      "name": "ERC721NonexistentToken",
      "type": "error"
    },
    {
      "inputs": [
        {
          "internalType": "address",
          "name": "owner",
          "type": "address"
        },
        {
          "internalType": "uint256",
          "name": "index",
          "type": "uint256"
        }
      ],
      "name": "ERC721OutOfBoundsIndex",
      "type": "error"
    },
    {
      "inputs": [],
      "name": "EnforcedPause",
      "type": "error"
    },
    {
      "inputs": [],
      "name": "ExceedsMaxPerWallet",
      "type": "error"
    },
    {
      "inputs": [],
      "name": "ExpectedPause",
      "type": "error"
    },
    {
      "inputs": [],
      "name": "InvalidInitialization",
      "type": "error"
    },
    {
      "inputs": [],
      "name": "InvalidTier",
      "type": "error"
    },
    {
      "inputs": [],
      "name": "MaxTransfersReached",
      "type": "error"
    },
    {
      "inputs": [],
      "name": "NotInitializing",
      "type": "error"
    },
    {
      "inputs": [],
      "name": "ReentrancyGuardReentrantCall",
      "type": "error"
    },
    {
      "inputs": [],
      "name": "TicketAlreadyUsed",
      "type": "error"
    },
    {
      "inputs": [],
      "name": "TierSoldOut",
      "type": "error"
    },
    {
      "inputs": [
        {
          "internalType": "uint256",
          "name": "unlockTime",
          "type": "uint256"
        }
      ],
      "name": "TransferLocked",
      "type": "error"
    },
    {
      "inputs": [],
      "name": "TransfersDisabled",
      "type": "error"
    },
    {
      "anonymous": false,
      "inputs": [
        {
          "indexed": true,
          "internalType": "address",
          "name": "owner",
          "type": "address"
        },
        {
          "indexed": true,
          "internalType": "address",
          "name": "approved",
          "type": "address"
        },
        {
          "indexed": true,
          "internalType": "uint256",
          "name": "tokenId",
          "type": "uint256"
        }
      ],
      "name": "Approval",
      "type": "event"
    },
    {
      "anonymous": false,
      "inputs": [
        {
          "indexed": true,
          "internalType": "address",
          "name": "owner",
          "type": "address"
        },
        {
          "indexed": true,
          "internalType": "address",
          "name": "operator",
          "type": "address"
        },
        {
          "indexed": false,
          "internalType": "bool",
          "name": "approved",
          "type": "bool"
        }
      ],
      "name": "ApprovalForAll",
      "type": "event"
    },
    {
      "anonymous": false,
      "inputs": [
        {
          "indexed": false,
          "internalType": "uint256",
          "name": "_fromTokenId",
          "type": "uint256"
        },
        {
          "indexed": false,
          "internalType": "uint256",
          "name": "_toTokenId",
          "type": "uint256"
        }
      ],
      "name": "BatchMetadataUpdate",
      "type": "event"
    },
    {
      "anonymous": false,
      "inputs": [
        {
          "indexed": false,
          "internalType": "uint64",
          "name": "version",
          "type": "uint64"
        }
      ],
      "name": "Initialized",
      "type": "event"
    },
    {
      "anonymous": false,
      "inputs": [
        {
          "indexed": false,
          "internalType": "uint256",
          "name": "_tokenId",
          "type": "uint256"
        }
      ],
      "name": "MetadataUpdate",
      "type": "event"
    },
    {
      "anonymous": false,
      "inputs": [
        {
          "indexed": false,
          "internalType": "address",
          "name": "account",
          "type": "address"
        }
      ],
      "name": "Paused",
      "type": "event"
    },
    {
      "anonymous": false,
      "inputs": [
        {
          "indexed": true,
          "internalType": "bytes32",
          "name": "role",
          "type": "bytes32"
        },
        {
          "indexed": true,
          "internalType": "bytes32",
          "name": "previousAdminRole",
          "type": "bytes32"
        },
        {
          "indexed": true,
          "internalType": "bytes32",
          "name": "newAdminRole",
          "type": "bytes32"
        }
      ],
      "name": "RoleAdminChanged",
      "type": "event"
    },
    {
      "anonymous": false,
      "inputs": [
        {
          "indexed": true,
          "internalType": "bytes32",
          "name": "role",
          "type": "bytes32"
        },
        {
          "indexed": true,
          "internalType": "address",
          "name": "account",
          "type": "address"
        },
        {
          "indexed": true,
          "internalType": "address",
          "name": "sender",
          "type": "address"
        }
      ],
      "name": "RoleGranted",
      "type": "event"
    },
    {
      "anonymous": false,
      "inputs": [
        {
          "indexed": true,
          "internalType": "bytes32",
          "name": "role",
          "type": "bytes32"
        },
        {
          "indexed": true,
          "internalType": "address",
          "name": "account",
          "type": "address"
        },
        {
          "indexed": true,
          "internalType": "address",
          "name": "sender",
          "type": "address"
        }
      ],
      "name": "RoleRevoked",
      "type": "event"
    },
    {
      "anonymous": false,
      "inputs": [
        {
          "indexed": true,
          "internalType": "uint256",
          "name": "tokenId",
          "type": "uint256"
        },
        {
          "indexed": true,
          "internalType": "address",
          "name": "to",
          "type": "address"
        },
        {
          "indexed": true,
          "internalType": "uint256",
          "name": "eventId",
          "type": "uint256"
        },
        {
          "indexed": false,
          "internalType": "uint8",
          "name": "tier",
          "type": "uint8"
        },
        {
          "indexed": false,
          "internalType": "uint256",
          "name": "price",
          "type": "uint256"
        }
      ],
      "name": "TicketMinted",
      "type": "event"
    },
    {
      "anonymous": false,
      "inputs": [
        {
          "indexed": true,
          "internalType": "uint256",
          "name": "tokenId",
          "type": "uint256"
        },
        {
          "indexed": true,
          "internalType": "address",
          "name": "from",
          "type": "address"
        },
        {
          "indexed": true,
          "internalType": "address",
          "name": "to",
          "type": "address"
        },
        {
          "indexed": false,
          "internalType": "uint256",
          "name": "salePrice",
          "type": "uint256"
        }
      ],
      "name": "TicketTransferred",
      "type": "event"
    },
    {
      "anonymous": false,
      "inputs": [
        {
          "indexed": true,
          "internalType": "uint256",
          "name": "tokenId",
          "type": "uint256"
        },
        {
          "indexed": false,
          "internalType": "uint256",
          "name": "timestamp",
          "type": "uint256"
        }
      ],
      "name": "TicketUsed",
      "type": "event"
    },
    {
      "anonymous": false,
      "inputs": [
        {
          "indexed": true,
          "internalType": "address",
          "name": "from",
          "type": "address"
        },
        {
          "indexed": true,
          "internalType": "address",
          "name": "to",
          "type": "address"
        },
        {
          "indexed": true,
          "internalType": "uint256",
          "name": "tokenId",
          "type": "uint256"
        }
      ],
      "name": "Transfer",
      "type": "event"
    },
    {
      "anonymous": false,
      "inputs": [
        {
          "indexed": false,
          "internalType": "address",
          "name": "account",
          "type": "address"
        }
      ],
      "name": "Unpaused",
      "type": "event"
    },
    {
      "inputs": [],
      "name": "DEFAULT_ADMIN_ROLE",
      "outputs": [
        {
          "internalType": "bytes32",
          "name": "",
          "type": "bytes32"
        }
      ],
      "stateMutability": "view",
      "type": "function"
    },
    {
      "inputs": [],
      "name": "MINTER_ROLE",
      "outputs": [
        {
          "internalType": "bytes32",
          "name": "",
          "type": "bytes32"
        }
      ],
      "stateMutability": "view",
      "type": "function"
    },
    {
      "inputs": [],
      "name": "OPERATOR_ROLE",
      "outputs": [
        {
          "internalType": "bytes32",
          "name": "",
          "type": "bytes32"
        }
      ],
      "stateMutability": "view",
      "type": "function"
    },
    {
      "inputs": [],
      "name": "SCANNER_ROLE",
      "outputs": [
        {
          "internalType": "bytes32",
          "name": "",
          "type": "bytes32"
        }
      ],
      "stateMutability": "view",
      "type": "function"
    },
    {
      "inputs": [
        {
          "internalType": "address",
          "name": "to",
          "type": "address"
        },
        {
          "internalType": "uint256",
          "name": "tokenId",
          "type": "uint256"
        }
      ],
      "name": "approve",
      "outputs": [],
      "stateMutability": "nonpayable",
      "type": "function"
    },
    {
      "inputs": [
        {
          "internalType": "address",
          "name": "owner",
          "type": "address"
        }
      ],
      "name": "balanceOf",
      "outputs": [
        {
          "internalType": "uint256",
          "name": "",
          "type": "uint256"
        }
      ],
      "stateMutability": "view",
      "type": "function"
    },
    {
      "inputs": [],
      "name": "eventId",
      "outputs": [
        {
          "internalType": "uint256",
          "name": "",
          "type": "uint256"
        }
      ],
      "stateMutability": "view",
      "type": "function"
    },
    {
      "inputs": [],
      "name": "factory",
      "outputs": [
        {
          "internalType": "address",
          "name": "",
          "type": "address"
        }
      ],
      "stateMutability": "view",
      "type": "function"
    },
    {
      "inputs": [
        {
          "internalType": "uint256",
          "name": "tokenId",
          "type": "uint256"
        }
      ],
      "name": "getApproved",
      "outputs": [
        {
          "internalType": "address",
          "name": "",
          "type": "address"
        }
      ],
      "stateMutability": "view",
      "type": "function"
    },
    {
      "inputs": [
        {
          "internalType": "bytes32",
          "name": "role",
          "type": "bytes32"
        }
      ],
      "name": "getRoleAdmin",
      "outputs": [
        {
          "internalType": "bytes32",
          "name": "",
          "type": "bytes32"
        }
      ],
      "stateMutability": "view",
      "type": "function"
    },
    {
      "inputs": [
        {
          "internalType": "uint256",
          "name": "tokenId",
          "type": "uint256"
        }
      ],
      "name": "getTicketMetadata",
      "outputs": [
        {
          "components": [
            {
              "internalType": "uint256",
              "name": "eventId",
              "type": "uint256"
            },
            {
              "internalType": "string",
              "name": "section",
              "type": "string"
            },
            {
              "internalType": "string",
              "name": "row",
              "type": "string"
            },
            {
              "internalType": "uint16",
              "name": "seatNumber",
              "type": "uint16"
            },
            {
              "internalType": "uint8",
              "name": "tier",
              "type": "uint8"
            },
            {
              "internalType": "uint256",
              "name": "originalPrice",
              "type": "uint256"
            },
            {
              "internalType": "uint256",
              "name": "mintTimestamp",
              "type": "uint256"
            },
            {
              "internalType": "bool",
              "name": "used",
              "type": "bool"
            }
          ],
          "internalType": "struct ITrueTicketNFT.TicketMetadata",
          "name": "",
          "type": "tuple"
        }
      ],
      "stateMutability": "view",
      "type": "function"
    },
    {
      "inputs": [
        {
          "internalType": "uint8",
          "name": "tierId",
          "type": "uint8"
        }
      ],
      "name": "getTierInfo",
      "outputs": [
        {
          "components": [
            {
              "internalType": "uint256",
              "name": "price",
              "type": "uint256"
            },
            {
              "internalType": "uint32",
              "name": "supply",
              "type": "uint32"
            },
            {
              "internalType": "uint32",
              "name": "minted",
              "type": "uint32"
            },
            {
              "internalType": "uint32",
              "name": "maxPerWallet",
              "type": "uint32"
            },
            {
              "internalType": "string",
              "name": "name",
              "type": "string"
            }
          ],
          "internalType": "struct TrueTicketNFT.TierInfo",
          "name": "",
          "type": "tuple"
        }
      ],
      "stateMutability": "view",
      "type": "function"
    },
    {
      "inputs": [
        {
          "internalType": "uint256",
          "name": "tokenId",
          "type": "uint256"
        }
      ],
      "name": "getTransferRestriction",
      "outputs": [
        {
          "components": [
            {
              "internalType": "bool",
              "name": "transferable",
              "type": "bool"
            },
            {
              "internalType": "bool",
              "name": "resaleAllowed",
              "type": "bool"
            },
            {
              "internalType": "uint256",
              "name": "lockUntil",
              "type": "uint256"
            },
            {
              "internalType": "uint256",
              "name": "maxTransfers",
              "type": "uint256"
            },
            {
              "internalType": "uint256",
              "name": "transferCount",
              "type": "uint256"
            }
          ],
          "internalType": "struct ITrueTicketNFT.TransferRestriction",
          "name": "",
          "type": "tuple"
        }
      ],
      "stateMutability": "view",
      "type": "function"
    },
    {
      "inputs": [
        {
          "internalType": "bytes32",
          "name": "role",
          "type": "bytes32"
        },
        {
          "internalType": "address",
          "name": "account",
          "type": "address"
        }
      ],
      "name": "grantRole",
      "outputs": [],
      "stateMutability": "nonpayable",
      "type": "function"
    },
    {
      "inputs": [
        {
          "internalType": "bytes32",
          "name": "role",
          "type": "bytes32"
        },
        {
          "internalType": "address",
          "name": "account",
          "type": "address"
        }
      ],
      "name": "hasRole",
      "outputs": [
        {
          "internalType": "bool",
          "name": "",
          "type": "bool"
        }
      ],
      "stateMutability": "view",
      "type": "function"
    },
    {
      "inputs": [
        {
          "internalType": "string",
          "name": "name_",
          "type": "string"
        },
        {
          "internalType": "string",
          "name": "symbol_",
          "type": "string"
        },
        {
          "internalType": "uint256",
          "name": "eventId_",
          "type": "uint256"
        },
        {
          "internalType": "address",
          "name": "admin",
          "type": "address"
        },
        {
          "internalType": "address",
          "name": "pricingController_",
          "type": "address"
        },
        {
          "internalType": "address",
          "name": "royaltyDistributor_",
          "type": "address"
        }
      ],
      "name": "initialize",
      "outputs": [],
      "stateMutability": "nonpayable",
      "type": "function"
    },
    {
      "inputs": [
        {
          "internalType": "address",
          "name": "owner",
          "type": "address"
        },
        {
          "internalType": "address",
          "name": "operator",
          "type": "address"
        }
      ],
      "name": "isApprovedForAll",
      "outputs": [
        {
          "internalType": "bool",
          "name": "",
          "type": "bool"
        }
      ],
      "stateMutability": "view",
      "type": "function"
    },
    {
      "inputs": [
        {
          "internalType": "uint256",
          "name": "tokenId",
          "type": "uint256"
        }
      ],
      "name": "markAsUsed",
      "outputs": [],
      "stateMutability": "nonpayable",
      "type": "function"
    },
    {
      "inputs": [],
      "name": "marketplace",
      "outputs": [
        {
          "internalType": "address",
          "name": "",
          "type": "address"
        }
      ],
      "stateMutability": "view",
      "type": "function"
    },
    {
      "inputs": [
        {
          "internalType": "address",
          "name": "to",
          "type": "address"
        },
        {
          "components": [
            {
              "internalType": "uint256",
              "name": "eventId",
              "type": "uint256"
            },
            {
              "internalType": "string",
              "name": "section",
              "type": "string"
            },
            {
              "internalType": "string",
              "name": "row",
              "type": "string"
            },
            {
              "internalType": "uint16",
              "name": "seatNumber",
              "type": "uint16"
            },
            {
              "internalType": "uint8",
              "name": "tier",
              "type": "uint8"
            },
            {
              "internalType": "uint256",
              "name": "originalPrice",
              "type": "uint256"
            },
            {
              "internalType": "uint256",
              "name": "mintTimestamp",
              "type": "uint256"
            },
            {
              "internalType": "bool",
              "name": "used",
              "type": "bool"
            }
          ],
          "internalType": "struct ITrueTicketNFT.TicketMetadata",
          "name": "metadata",
          "type": "tuple"
        },
        {
          "components": [
            {
              "internalType": "bool",
              "name": "transferable",
              "type": "bool"
            },
            {
              "internalType": "bool",
              "name": "resaleAllowed",
              "type": "bool"
            },
            {
              "internalType": "uint256",
              "name": "lockUntil",
              "type": "uint256"
            },
            {
              "internalType": "uint256",
              "name": "maxTransfers",
              "type": "uint256"
            },
            {
              "internalType": "uint256",
              "name": "transferCount",
              "type": "uint256"
            }
          ],
          "internalType": "struct ITrueTicketNFT.TransferRestriction",
          "name": "restrictions",
          "type": "tuple"
        }
      ],
      "name": "mint",
      "outputs": [
        {
          "internalType": "uint256",
          "name": "tokenId",
          "type": "uint256"
        }
      ],
      "stateMutability": "nonpayable",
      "type": "function"
    },
    {
      "inputs": [
        {
          "internalType": "address[]",
          "name": "recipients",
          "type": "address[]"
        },
        {
          "components": [
            {
              "internalType": "uint256",
              "name": "eventId",
              "type": "uint256"
            },
            {
              "internalType": "string",
              "name": "section",
              "type": "string"
            },
            {
              "internalType": "string",
              "name": "row",
              "type": "string"
            },
            {
              "internalType": "uint16",
              "name": "seatNumber",
              "type": "uint16"
            },
            {
              "internalType": "uint8",
              "name": "tier",
              "type": "uint8"
            },
            {
              "internalType": "uint256",
              "name": "originalPrice",
              "type": "uint256"
            },
            {
              "internalType": "uint256",
              "name": "mintTimestamp",
              "type": "uint256"
            },
            {
              "internalType": "bool",
              "name": "used",
              "type": "bool"
            }
          ],
          "internalType": "struct ITrueTicketNFT.TicketMetadata[]",
          "name": "metadataArray",
          "type": "tuple[]"
        },
        {
          "components": [
            {
              "internalType": "bool",
              "name": "transferable",
              "type": "bool"
            },
            {
              "internalType": "bool",
              "name": "resaleAllowed",
              "type": "bool"
            },
            {
              "internalType": "uint256",
              "name": "lockUntil",
              "type": "uint256"
            },
            {
              "internalType": "uint256",
              "name": "maxTransfers",
              "type": "uint256"
            },
            {
              "internalType": "uint256",
              "name": "transferCount",
              "type": "uint256"
            }
          ],
          "internalType": "struct ITrueTicketNFT.TransferRestriction",
          "name": "restrictions",
          "type": "tuple"
        }
      ],
      "name": "mintBatch",
      "outputs": [
        {
          "internalType": "uint256[]",
          "name": "tokenIds",
          "type": "uint256[]"
        }
      ],
      "stateMutability": "nonpayable",
      "type": "function"
    },
    {
      "inputs": [],
      "name": "name",
      "outputs": [
        {
          "internalType": "string",
          "name": "",
          "type": "string"
        }
      ],
      "stateMutability": "view",
      "type": "function"
    },
    {
      "inputs": [
        {
          "internalType": "uint256",
          "name": "tokenId",
          "type": "uint256"
        }
      ],
      "name": "ownerOf",
      "outputs": [
        {
          "internalType": "address",
          "name": "",
          "type": "address"
        }
      ],
      "stateMutability": "view",
      "type": "function"
    },
    {
      "inputs": [],
      "name": "pause",
      "outputs": [],
      "stateMutability": "nonpayable",
      "type": "function"
    },
    {
      "inputs": [],
      "name": "paused",
      "outputs": [
        {
          "internalType": "bool",
          "name": "",
          "type": "bool"
        }
      ],
      "stateMutability": "view",
      "type": "function"
    },
    {
      "inputs": [],
      "name": "pricingController",
      "outputs": [
        {
          "internalType": "address",
          "name": "",
          "type": "address"
        }
      ],
      "stateMutability": "view",
      "type": "function"
    },
    {
      "inputs": [
        {
          "internalType": "bytes32",
          "name": "role",
          "type": "bytes32"
        },
        {
          "internalType": "address",
          "name": "callerConfirmation",
          "type": "address"
        }
      ],
      "name": "renounceRole",
      "outputs": [],
      "stateMutability": "nonpayable",
      "type": "function"
    },
    {
      "inputs": [
        {
          "internalType": "bytes32",
          "name": "role",
          "type": "bytes32"
        },
        {
          "internalType": "address",
          "name": "account",
          "type": "address"
        }
      ],
      "name": "revokeRole",
      "outputs": [],
      "stateMutability": "nonpayable",
      "type": "function"
    },
    {
      "inputs": [],
      "name": "royaltyDistributor",
      "outputs": [
        {
          "internalType": "address",
          "name": "",
          "type": "address"
        }
      ],
      "stateMutability": "view",
      "type": "function"
    },
    {
      "inputs": [
        {
          "internalType": "uint256",
          "name": "tokenId",
          "type": "uint256"
        },
        {
          "internalType": "uint256",
          "name": "salePrice",
          "type": "uint256"
        }
      ],
      "name": "royaltyInfo",
      "outputs": [
        {
          "internalType": "address",
          "name": "receiver",
          "type": "address"
        },
        {
          "internalType": "uint256",
          "name": "amount",
          "type": "uint256"
        }
      ],
      "stateMutability": "view",
      "type": "function"
    },
    {
      "inputs": [
        {
          "internalType": "address",
          "name": "from",
          "type": "address"
        },
        {
          "internalType": "address",
          "name": "to",
          "type": "address"
        },
        {
          "internalType": "uint256",
          "name": "tokenId",
          "type": "uint256"
        }
      ],
      "name": "safeTransferFrom",
      "outputs": [],
      "stateMutability": "nonpayable",
      "type": "function"
    },
    {
      "inputs": [
        {
          "internalType": "address",
          "name": "from",
          "type": "address"
        },
        {
          "internalType": "address",
          "name": "to",
          "type": "address"
        },
        {
          "internalType": "uint256",
          "name": "tokenId",
          "type": "uint256"
        },
        {
          "internalType": "bytes",
          "name": "data",
          "type": "bytes"
        }
      ],
      "name": "safeTransferFrom",
      "outputs": [],
      "stateMutability": "nonpayable",
      "type": "function"
    },
    {
      "inputs": [
        {
          "internalType": "address",
          "name": "operator",
          "type": "address"
        },
        {
          "internalType": "bool",
          "name": "approved",
          "type": "bool"
        }
      ],
      "name": "setApprovalForAll",
      "outputs": [],
      "stateMutability": "nonpayable",
      "type": "function"
    },
    {
      "inputs": [
        {
          "internalType": "string",
          "name": "baseURI_",
          "type": "string"
        }
      ],
      "name": "setBaseURI",
      "outputs": [],
      "stateMutability": "nonpayable",
      "type": "function"
    },
    {
      "inputs": [
        {
          "internalType": "address",
          "name": "marketplace_",
          "type": "address"
        }
      ],
      "name": "setMarketplace",
      "outputs": [],
      "stateMutability": "nonpayable",
      "type": "function"
    },
    {
      "inputs": [
        {
          "internalType": "uint8",
          "name": "tierId",
          "type": "uint8"
        },
        {
          "internalType": "string",
          "name": "name",
          "type": "string"
        },
        {
          "internalType": "uint256",
          "name": "price",
          "type": "uint256"
        },
        {
          "internalType": "uint32",
          "name": "supply",
          "type": "uint32"
        },
        {
          "internalType": "uint32",
          "name": "maxPerWallet",
          "type": "uint32"
        }
      ],
      "name": "setTier",
      "outputs": [],
      "stateMutability": "nonpayable",
      "type": "function"
    },
    {
      "inputs": [
        {
          "internalType": "bytes4",
          "name": "interfaceId",
          "type": "bytes4"
        }
      ],
      "name": "supportsInterface",
      "outputs": [
        {
          "internalType": "bool",
          "name": "",
          "type": "bool"
        }
      ],
      "stateMutability": "view",
      "type": "function"
    },
    {
      "inputs": [],
      "name": "symbol",
      "outputs": [
        {
          "internalType": "string",
          "name": "",
          "type": "string"
        }
      ],
      "stateMutability": "view",
      "type": "function"
    },
    {
      "inputs": [
        {
          "internalType": "uint256",
          "name": "index",
          "type": "uint256"
        }
      ],
      "name": "tokenByIndex",
      "outputs": [
        {
          "internalType": "uint256",
          "name": "",
          "type": "uint256"
        }
      ],
      "stateMutability": "view",
      "type": "function"
    },
    {
      "inputs": [
        {
          "internalType": "address",
          "name": "owner",
          "type": "address"
        },
        {
          "internalType": "uint256",
          "name": "index",
          "type": "uint256"
        }
      ],
      "name": "tokenOfOwnerByIndex",
      "outputs": [
        {
          "internalType": "uint256",
          "name": "",
          "type": "uint256"
        }
      ],
      "stateMutability": "view",
      "type": "function"
    },
    {
      "inputs": [
        {
          "internalType": "uint256",
          "name": "tokenId",
          "type": "uint256"
        }
      ],
      "name": "tokenURI",
      "outputs": [
        {
          "internalType": "string",
          "name": "",
          "type": "string"
        }
      ],
      "stateMutability": "view",
      "type": "function"
    },
    {
      "inputs": [],
      "name": "totalSupply",
      "outputs": [
        {
          "internalType": "uint256",
          "name": "",
          "type": "uint256"
        }
      ],
      "stateMutability": "view",
      "type": "function"
    },
    {
      "inputs": [
        {
          "internalType": "address",
          "name": "from",
          "type": "address"
        },
        {
          "internalType": "address",
          "name": "to",
          "type": "address"
        },
        {
          "internalType": "uint256",
          "name": "tokenId",
          "type": "uint256"
        }
      ],
      "name": "transferFrom",
      "outputs": [],
      "stateMutability": "nonpayable",
      "type": "function"
    },
    {
      "inputs": [],
      "name": "unpause",
      "outputs": [],
      "stateMutability": "nonpayable",
      "type": "function"
    }
  ],
  "bytecode": "0x60808060405234620000bd577ff0c57e16840df040f15088dc2f81fe391c3923bec73e23a9662efc9c229c6a009081549060ff8260401c16620000ae57506001600160401b036002600160401b03198282160162000068575b604051613f2d9081620000c38239f35b6001600160401b031990911681179091556040519081527fc7f505b2f371ae2175ee4913f4499e1f2633a7b5936321eed1cdaeb6115181d290602090a138808062000058565b63f92ee8a960e01b8152600490fd5b600080fdfe608080604052600436101561001357600080fd5b60003560e01c90816301ffc9a7146125d95750806306fdde031461252f578063081812fc146124e4578063089cdd0c146124c6578063095ea7b3146123df5780630c073cb5146123a457806311d17dfd146122eb57806318160ddd146122c057806323b872dd146122a9578063248a9ca31461226d5780632a55205a146121885780632f2ff15d1461213c5780632f745c59146120ab57806336568abe146120645780633f4ba83a14611fed57806342842e0e14611fbf5780634f6acc67146119d45780634f6ccce7146119715780635581ed871461194857806355f804b3146117d55780635c975abb146117a55780635da6a0411461166f5780636352211e1461163f5780636ef7626c146110b357806370a082311461108857806373ad6c2d14610ff75780637ed85ff314610f1c5780638456cb5914610eb557806391d1485414610e5b57806395d89b4114610d7a57806399824f5014610ba15780639eaa59e71461063b578063a217fddf1461061f578063a22cb46514610576578063abc8c7af1461054d578063b88d4fde146104e2578063ba0ae43c146103a3578063c45a01551461037a578063c87b56dd14610343578063d539139314610308578063d547741f146102ba578063e985e9c51461026c578063f2a51feb146102435763f5b541a61461020357600080fd5b3461023e57600036600319011261023e5760206040517f97667070c54ef182b0f5858b034beac1b6f3089aa2d3188bb1e8929f4fa9b9298152f35b600080fd5b3461023e57600036600319011261023e576003546040516001600160a01b039091168152602090f35b3461023e57604036600319011261023e576102856126f4565b61029661029061270a565b91612e73565b9060018060a01b0316600052602052602060ff604060002054166040519015158152f35b3461023e57604036600319011261023e576103066004356102d961270a565b9080600052600080516020613e188339815191526020526103016001604060002001546131a1565b613431565b005b3461023e57600036600319011261023e5760206040517f9f2df0fed2c77648de5860a4cc508cd0818c85b8b8a1ab4ceeef8d981c8956a68152f35b3461023e57602036600319011261023e57610376610362600435613b24565b6040519182916020835260208301906126cf565b0390f35b3461023e57600036600319011261023e576002546040516001600160a01b039091168152602090f35b3461023e5760208060031936011261023e57600060e06040516103c5816127dd565b828152606084820152606060408201528260608201528260808201528260a08201528260c082015201526004356000526007815260406000206040519061040b826127dd565b80548252604061041d60018301612987565b8484019081528361043060028501612987565b9383820194855260ff600382015461ffff6104bc60608601988284168a5284608088019460101c1684526104a985600660048901549860a08b01998a5260c060058201549b019a8b520154169860e08d019915158a528a518e819f9e829f835251910152518c6101009b8c9101526101208d01906126cf565b90518b8203601f190160608d01526126cf565b9751166080890152511660a08701525160c08601525160e0850152511515908301520390f35b3461023e57608036600319011261023e576104fb6126f4565b61050361270a565b90604435606435926001600160401b03841161023e573660238501121561023e5761053b610306943690602481600401359101612850565b92610547838383612a2a565b33613995565b3461023e57600036600319011261023e576005546040516001600160a01b039091168152602090f35b3461023e57604036600319011261023e5761058f6126f4565b602435908115159081830361023e576001600160a01b0316918215610606576105d8906105bb33612e73565b8460005260205260406000209060ff801983541691151516179055565b6040519081527f17307eab39ab6107e8899845ad3d59bd9653f200f220920489ca2b5937696c3160203392a3005b604051630b61174360e31b815260048101849052602490fd5b3461023e57600036600319011261023e57602060405160008152f35b3461023e5760031960e03682011261023e576106556126f4565b906001600160401b036024351161023e57610100906024353603011261023e5760a036604319011261023e57610689613145565b6106916134b4565b60ff6106a1608460243501612f1e565b166000526009602052600160406000200190815463ffffffff81168015610b8f5763ffffffff8260201c161015610b7e576001600160a01b0382166000908152600a6020526040902060ff6106fa602435608401612f1e565b1660005260205263ffffffff6040600020549160401c161115610b6c576001549061072482612f2c565b60015561073182826134df565b6000549260ff61ffff61074d6024803501602435600401612f5f565b91906107a9610766604460243501602435600401612f5f565b61079d610777606460243501612f91565b94610786608460243501612f1e565b976040519d8e610795816127dd565b523691612850565b60208c01523691612850565b604089015216606087015216608085015260a4602435013560a08501524260c0850152600060e085015282600052600760205260406000208451815560208501518051906001600160401b038211610ad9576108158261080c6001860154612887565b60018601612fa0565b602090601f8311600114610afa57610846929160009183610aef575b50508160011b916000199060031b1c19161790565b60018201555b60408501519485516001600160401b038111610ad95760209661087f826108766002870154612887565b60028701612fa0565b8790601f8311600114610a5e57610915936108bc846109a798979560069560e095600092610a535750508160011b916000199060031b1c19161790565b60028501555b6003840161ffff60608301511681549062ff0000608085015160101b169162ffffff19161717905560a0810151600485015560c081015160058501550151151591019060ff801983541691151516179055565b8360005260088552604060002061093f61092d612ff6565b829060ff801983541691151516179055565b610947613005565b151561ff0082549160081b169061ff001916178155608435600182015560a4356002820155600360c43591015561098663ffffffff8254871c16613014565b67ffffffff0000000082549160201b169067ffffffff000000001916179055565b6001600160a01b0381166000908152600a84526040902060ff6109ce602435608401612f1e565b16600052835260406000206109e38154612f2c565b905560005490827fd86053201cee015aa5999d72095ac7e288bd202438584f372727bcc2fe571761610a48610a1c608460243501612f1e565b6040805160ff909216825260243560a4013560208301526001600160a01b039095169490918291820190565b0390a4604051908152f35b015190508d80610831565b9060028501600052886000209160005b601f1985168110610ac257509360018460069460e094610915986109a79b9a98601f19811610610aa9575b505050811b0160028501556108c2565b015160001960f88460031b161c191690558c8080610a99565b91928a600181928685015181550194019201610a6e565b634e487b7160e01b600052604160045260246000fd5b015190508880610831565b9190600184016000526020600020906000935b601f1984168510610b51576001945083601f19811610610b38575b505050811b01600182015561084c565b015160001960f88460031b161c19169055878080610b28565b81810151835560209485019460019093019290910190610b0d565b60405163c0e54d7360e01b8152600490fd5b60405162c33f0960e31b8152600490fd5b60405163e142361760e01b8152600490fd5b3461023e5760a036600319011261023e57610bba6127b2565b6001600160401b039060243582811161023e57610bdb903690600401612785565b63ffffffff60643581811695939086900361023e576084359582871680970361023e57600096610c99600294610c0f6130e9565b60ff610c4460405196610c21886127c2565b60443588526020998a8901978852604089019d8e52606089019687523691612850565b99608087019a8b521660005260098752604060002094518555600199816001870195511663ffffffff198654161785555116839067ffffffff0000000082549160201b169067ffffffff000000001916179055565b5163ffffffff60401b82549160401b169063ffffffff60401b1916179055019251938451928311610ad957610cd883610cd28654612887565b86612fa0565b81601f8411600114610d185750508190610d099394600092610d0d5750508160011b916000199060031b1c19161790565b9055005b015190508480610831565b60008581528181209392601f19861692905b838310610d635750505094836001959610610d4a575b505050811b019055005b015160001960f88460031b161c19169055838080610d40565b888501518655948501949381019391810191610d2a565b3461023e57600036600319011261023e57604051600080516020613eb88339815191528054826000610dab83612887565b9283835260209460019186600182169182600014610e39575050600114610def575b5050610ddb92500383612814565b6103766040519282849384528301906126cf565b859250600052600080516020613dd8833981519152906000915b858310610e21575050610ddb93508201018580610dcd565b80548389018501528794508693909201918101610e09565b9250935050610ddb94915060ff191682840152151560051b8201018580610dcd565b3461023e57604036600319011261023e57610e7461270a565b600435600052600080516020613e1883398151915260205260406000209060018060a01b0316600052602052602060ff604060002054166040519015158152f35b3461023e57600036600319011261023e57610ece6130e9565b610ed66134b4565b600080516020613e38833981519152600160ff198254161790557f62e78cea01bee320cd4e420270b5ea74000d11b0c9f74754ebdbfc544b05a2586020604051338152a1005b3461023e5760208060031936011261023e5760ff610f386127b2565b60606080604051610f48816127c2565b600081526000868201526000604082015260008382015201521660005260098152604060002061037660405191610f7e836127c2565b80548352600181015463ffffffff908186860193818316855281610fbb600260408a019383878d1c1685528360608c019760401c16875201612987565b9560808901968752604051998a99818b5251908a01525116604088015251166060860152511660808401525160a08084015260c08301906126cf565b3461023e57602036600319011261023e576110106126f4565b3360009081527fb7db2dd08fcb62d0c9e08c51941cae53c267786a0b75803fb7960902fc8ef97d602052604090205460ff161561106957600580546001600160a01b0319166001600160a01b0392909216919091179055005b60405163e2517d3f60e01b815233600482015260006024820152604490fd5b3461023e57602036600319011261023e5760206110ab6110a66126f4565b61306c565b604051908152f35b3461023e5760c036600319011261023e576004356001600160401b03811161023e576110e3903690600401612785565b6024356001600160401b03811161023e57611102903690600401612785565b92906001600160a01b0390606435808316900361023e5760843592828416840361023e5760a43591838316830361023e57600080516020613e9883398151915254956001600160401b0387168015908161162f575b6001149081611625575b15908161161c575b5061160a576111b0926111a89160016001600160401b03198a1617600080516020613e988339815191525560ff8960401c16156115dd575b3691612850565b963691612850565b946111b9613d28565b6111c1613d28565b8051906001600160401b038211610ad9576111ea600080516020613db883398151915254612887565b601f8111611567575b50602090601f83116001146114d957611224929160009183610aef5750508160011b916000199060031b1c19161790565b600080516020613db8833981519152555b8451946001600160401b038611610ad95761125e600080516020613eb883398151915254612887565b601f811161145f575b50602090601f87116001146113cf57958061129b9260ff98600092610aef5750508160011b916000199060031b1c19161790565b600080516020613eb8833981519152555b6112b4613d28565b6112bc613d28565b6112c4613d28565b6112cc613d28565b6112d4613d28565b6112dc613d28565b6112e4613d28565b60017f9b779b17422d0df92223018b32b4d1fa46e071723d6817e2486d003becc55f00556113136064356131d4565b5061131f606435613262565b5061132b606435613312565b5061133533613312565b50604435600055816001600160601b0360a01b933385600254161760025516836003541617600355169060045416176004556001805560401c161561137657005b68ff000000000000000019600080516020613e988339815191525416600080516020613e98833981519152557fc7f505b2f371ae2175ee4913f4499e1f2633a7b5936321eed1cdaeb6115181d2602060405160018152a1005b90601f19871691600080516020613eb8833981519152600052600080516020613dd88339815191529260005b818110611447575091600193918960ff9a941061142e575b505050811b01600080516020613eb8833981519152556112ac565b015160001960f88460031b161c19169055878080611413565b929360206001819287860151815501950193016113fb565b600080516020613eb8833981519152600052601f870160051c600080516020613dd88339815191520190602088106114c3575b601f0160051c600080516020613dd883398151915201905b8181106114b75750611267565b600081556001016114aa565b600080516020613dd88339815191529150611492565b90601f19831691600080516020613db8833981519152600052600080516020613ed88339815191529260005b81811061154f5750908460019594939210611536575b505050811b01600080516020613db883398151915255611235565b015160001960f88460031b161c1916905587808061151b565b92936020600181928786015181550195019301611505565b600080516020613db8833981519152600052601f830160051c600080516020613ed883398151915201602084106115c8575b601f820160051c600080516020613ed88339815191520181106115bc57506111f3565b60008155600101611599565b50600080516020613ed8833981519152611599565b68ffffffffffffffffff1989166801000000000000000117600080516020613e98833981519152556111a1565b60405163f92ee8a960e01b8152600490fd5b90501589611169565b303b159150611161565b604089901c60ff16159150611157565b3461023e57602036600319011261023e57602061165d6004356130a1565b6040516001600160a01b039091168152f35b3461023e5760208060031936011261023e57600435907fa9b81438e9053a522b683603c102f65503853bc7aa82f89a130662d957c081fb80600052600080516020613e188339815191528252604060002033600052825260ff604060002054161561178757506000828152600080516020613e58833981519152825260409020546001600160a01b03161561176e57816000526007815260ff6006604060002001541661175c577fad0a02848182e7d3a9bb0ae2cc919bdef92f9da6b0a45ced3656cf5443212ede9082600052600781526006604060002001600160ff19825416179055604051428152a2005b604051630869773360e41b8152600490fd5b604051637e27328960e01b815260048101839052602490fd5b6044906040519063e2517d3f60e01b82523360048301526024820152fd5b3461023e57600036600319011261023e57602060ff600080516020613e3883398151915254166040519015158152f35b3461023e5760208060031936011261023e576001600160401b0360043581811161023e57611807903690600401612785565b916118106130e9565b8211610ad957611821600654612887565b601f81116118e8575b50600092601f831160011461186b575061185b92600091836118605750508160011b916000199060031b1c19161790565b600655005b013590508380610831565b601f198316937ff652222313e28459528d920b65115c16c04f3efc82aaedc97be59f3f377c0d3f92916000905b8682106118d057505083600195106118b6575b505050811b01600655005b0135600019600384901b60f8161c191690558280806118ab565b80600184968294958701358155019501920190611898565b7ff652222313e28459528d920b65115c16c04f3efc82aaedc97be59f3f377c0d3f601f840160051c8101916020851061193e575b601f0160051c01905b818110611932575061182a565b60008155600101611925565b909150819061191c565b3461023e57600036600319011261023e576004546040516001600160a01b039091168152602090f35b3461023e57602036600319011261023e57600435600080516020613df8833981519152548110156119b5576119a7602091613029565b90546040519160031b1c8152f35b6044906040519063295f44f760e21b8252600060048301526024820152fd5b3461023e5760e036600319011261023e576004356001600160401b03811161023e57611a04903690600401612755565b906024356001600160401b03811161023e57611a24903690600401612755565b60a036604319011261023e57611a38613145565b611a406134b4565b808403611fad57611a5084612ee5565b93611a5e6040519586612814565b808552611a6a81612ee5565b601f190136602087013760005b818110611ac4578560405180916020820160208352815180915260206040840192019060005b818110611aab575050500390f35b8251845285945060209384019390920191600101611a9d565b60ff611adc6080611ad6848789612efc565b01612f1e565b166000526009602052600160406000200190815463ffffffff811615610b8f5763ffffffff8082169160201c161015610b7e57600154611b1b81612f2c565b6001558751821015611f9757808260051b89016020015280611b3e83868a612f3b565b611b4790612f4b565b90611b51916134df565b6000549085611b6184828a612efc565b60208101611b6e91612f5f565b9190898287611b7e818385612efc565b60408101611b8b91612f5f565b92611b97929194612efc565b606001611ba390612f91565b928c89611bb1818884612efc565b608001611bbd90612f1e565b96611bc792612efc565b60a001359560405198611bd98a6127dd565b89523690611be692612850565b60208801523690611bf692612850565b604086015261ffff16606085015260ff16608084015260a08301524260c083015260e08201600090528060005260076020526040600020938251855560208301518051906001600160401b038211610ad957611c6282611c5960018a0154612887565b60018a01612fa0565b602090601f8311600114611f2557611c92929160009183610a535750508160011b916000199060031b1c19161790565b60018601555b60408301518051916001600160401b038311610ad957868a95848d94611cc78c976108768f9d60020154612887565b602090601f8311600114611e595795611da960019c96611d37611e029760068f978f9e9d97996108bc827fd86053201cee015aa5999d72095ac7e288bd202438584f372727bcc2fe5717619f93611dcc9d60e095600092611e4e5750508160011b916000199060031b1c19161790565b89600052600880602052604060002090611d64611d52612ff6565b839060ff801983541691151516179055565b61ff00611d6f613005565b15158354921b169061ff0019161781556084358f82015560a4356002820155600360c43591015561098663ffffffff825460201c16613014565b8860ff611de560808f8781611ad69260a01b039b8c611dd1611dcc848c8c612f3b565b612f4b565b16600052600a602052604060002096612efc565b166000526020526040600020611dfb8154612f2c565b9055612f3b565b611e4560a0611e25898d611e1f6080611ad684846000549f612efc565b99612efc565b01356040519384931696836020909392919360ff60408201951681520152565b0390a401611a77565b015190503880610831565b906002859c9897969c0160005260206000209160005b601f1985168110611ef3575060019c611d37611e02978f8f978f9e9d9b9699600692827fd86053201cee015aa5999d72095ac7e288bd202438584f372727bcc2fe5717619f9a611dcc9d611da99a60e096601f19811610611eda57505050811b0160028501556108c2565b015160001960f88460031b161c19169055388080610a99565b95999b9c9a5093975094506020919550600182918685015181550194019201938d938d989a9997938d97938d97611e6f565b9190600188016000526020600020906000935b601f1984168510611f7c576001945083601f19811610611f63575b505050811b016001860155611c98565b015160001960f88460031b161c191690558c8080611f53565b81810151835560209485019460019093019290910190611f38565b634e487b7160e01b600052603260045260246000fd5b60405163512509d360e11b8152600490fd5b3461023e57610306611fd036612720565b9060405192611fde846127f9565b60008452610547838383612a2a565b3461023e57600036600319011261023e576120066130e9565b600080516020613e38833981519152805460ff8116156120525760ff191690557f5db9ee0a495bf2e6ff9c91a7834c1ba4fdd244a5e8aa4e537bd38aeae4b073aa6020604051338152a1005b604051638dfc202b60e01b8152600490fd5b3461023e57604036600319011261023e5761207d61270a565b336001600160a01b038216036120995761030690600435613431565b60405163334bd91960e11b8152600490fd5b3461023e57604036600319011261023e576120c46126f4565b602435906120d18161306c565b8210156121115760018060a01b0316600052600080516020613d988339815191526020526040600020906000526020526020604060002054604051908152f35b60405163295f44f760e21b81526001600160a01b039190911660048201526024810191909152604490fd5b3461023e57604036600319011261023e5761030660043561215b61270a565b9080600052600080516020613e188339815191526020526121836001604060002001546131a1565b6133bc565b3461023e57604036600319011261023e576024356004356000527fdaedc9ab023613a7caf35e703657e986ccfad7e3eb0af93a2853f8d65dd86b016020526040600020549060018060a01b038083169260a01c908315612234575b506001600160601b03169081810291818304149015171561221e57604080516001600160a01b03939093168352612710909104602083015290f35b634e487b7160e01b600052601160045260246000fd5b7fdaedc9ab023613a7caf35e703657e986ccfad7e3eb0af93a2853f8d65dd86b0054908116935060a01c90506001600160601b036121e3565b3461023e57602036600319011261023e57600435600052600080516020613e188339815191526020526020600160406000200154604051908152f35b3461023e576103066122ba36612720565b91612a2a565b3461023e57600036600319011261023e576020600080516020613df883398151915254604051908152f35b3461023e57602036600319011261023e576000608060405161230c816127c2565b8281528260208201528260408201528260608201520152600435600052600860205260a06040600020604051612341816127c2565b81549160ff831615159283835260ff602084019160081c1615158152600182015490604084019182526080600360028501549460608701958652015494019384526040519485525115156020850152516040840152516060830152516080820152f35b3461023e57600036600319011261023e5760206040517fa9b81438e9053a522b683603c102f65503853bc7aa82f89a130662d957c081fb8152f35b3461023e57604036600319011261023e576123f86126f4565b602435612404816130a1565b331515806124b3575b80612493575b61247b576001600160a01b039283169282918491167f8c5be1e5ebec7d5bd14f71427d1e84f3dd0314c0f7b2291e5b200ac8c7c3b925600080a46000908152600080516020613e788339815191526020526040902080546001600160a01b0319169091179055005b60405163a9fbf51f60e01b8152336004820152602490fd5b5061249d81612e73565b3360005260205260ff6040600020541615612413565b506001600160a01b03811633141561240d565b3461023e57600036600319011261023e576020600054604051908152f35b3461023e57602036600319011261023e57600435612501816130a1565b50600052600080516020613e78833981519152602052602060018060a01b0360406000205416604051908152f35b3461023e57600036600319011261023e57604051600080516020613db8833981519152805482600061256083612887565b9283835260209460019186600182169182600014610e3957505060011461258f575050610ddb92500383612814565b859250600052600080516020613ed8833981519152906000915b8583106125c1575050610ddb93508201018580610dcd565b805483890185015287945086939092019181016125a9565b3461023e57602036600319011261023e576004359063ffffffff60e01b821680920361023e57602091637965db0b60e01b811490811561261b575b5015158152f35b63152a902d60e11b811491508115612635575b5083612614565b63780e9d6360e01b81149150811561264f575b508361262e565b632483248360e11b811491508115612669575b5083612648565b6380ac58cd60e01b81149150811561269b575b811561268a575b5083612662565b6301ffc9a760e01b14905083612683565b635b5e139f60e01b8114915061267c565b60005b8381106126bf5750506000910152565b81810151838201526020016126af565b906020916126e8815180928185528580860191016126ac565b601f01601f1916010190565b600435906001600160a01b038216820361023e57565b602435906001600160a01b038216820361023e57565b606090600319011261023e576001600160a01b0390600435828116810361023e5791602435908116810361023e579060443590565b9181601f8401121561023e578235916001600160401b03831161023e576020808501948460051b01011161023e57565b9181601f8401121561023e578235916001600160401b03831161023e576020838186019501011161023e57565b6004359060ff8216820361023e57565b60a081019081106001600160401b03821117610ad957604052565b61010081019081106001600160401b03821117610ad957604052565b602081019081106001600160401b03821117610ad957604052565b90601f801991011681019081106001600160401b03821117610ad957604052565b6001600160401b038111610ad957601f01601f191660200190565b92919261285c82612835565b9161286a6040519384612814565b82948184528183011161023e578281602093846000960137010152565b90600182811c921680156128b7575b60208310146128a157565b634e487b7160e01b600052602260045260246000fd5b91607f1691612896565b60405190600082600654916128d583612887565b808352926020906001908181169081156129635750600114612902575b505061290092500383612814565b565b91509260066000527ff652222313e28459528d920b65115c16c04f3efc82aaedc97be59f3f377c0d3f936000925b82841061294b575061290094505050810160200138806128f2565b85548885018301529485019487945092810192612930565b9150506020925061290094915060ff191682840152151560051b82010138806128f2565b9060405191826000825461299a81612887565b90818452602094600191600181169081600014612a0857506001146129c9575b50505061290092500383612814565b600090815285812095935091905b8183106129f057505061290093508201013880806129ba565b855488840185015294850194879450918301916129d7565b9250505061290094925060ff191682840152151560051b8201013880806129ba565b90916001600160a01b03808416928315612e5a57600093838552600080516020613e5883398151915294602086815260409785898420541680151580612e52575b612d77575b508683528782528589842054169733151580612cdd575b508815908115612c9e575b612a9b83612eac565b80546001019055888552835289842080546001600160a01b0319168617905587858a7fddf252ad1be2c89b69c2b068fc378daa952ba7f163c4a11628f55a4df523b3ef8780a415612c1857600080516020613df88339815191528054908885527f645e039705490088daad89bae25049a34f4a9072d398537b1ab2425f24cbed038452818b862055600160401b821015612c0457612b43828a926001612b5c95019055613029565b90919082549060031b91821b91600019901b1916179055565b838803612b98575b505050501692838303612b775750505050565b6064945051926364283d7b60e01b8452600484015260248301526044820152fd5b612ba19061306c565b600019810193908411612bf0578291600080516020613d78833981519152918a9452600080516020613d9883398151915281528383208584528152878484205587835252205538808080612b64565b634e487b7160e01b83526011600452602483fd5b634e487b7160e01b85526041600452602485fd5b878414612b5c57612c288861306c565b878452600080516020613d78833981519152908184528a852054918a8652600080516020613d9883398151915285528b862092828103612c7c575b508986528452848b812055845282528289812055612b5c565b8287528386528c808820548091838a5289205587528186528c87205538612c63565b6000898152600080516020613e788339815191526020526040902080546001600160a01b0319169055612cd08a612eac565b8054600019019055612a92565b80612d2a575b15612cee5738612a87565b89888a612d0b576024915190637e27328960e01b82526004820152fd5b905163177e802f60e01b81523360048201526024810191909152604490fd5b503389148015612d5c575b80612ce35750878452600080516020613e78833981519152835233878b8620541614612ce3565b50612d6689612e73565b338552835260ff8a85205416612d35565b6008835289842060ff81541615612e41576001810154804210612e2a5750600281015480612e08575b508885526007845260ff60068c8720015416612df757906003869201612dc68154612f2c565b9055887fdfc4c991a34be4b2f90df7c348d98b17393713ef48853d9071cf19d4687a6a36858d51888152a438612a70565b8a51630869773360e41b8152600490fd5b60038201541015612e195738612da0565b8a5163252fb4b960e11b8152600490fd5b6024908c519063a9de8c6f60e01b82526004820152fd5b8a51638574adcf60e01b8152600490fd5b506001612a6b565b604051633250574960e11b815260006004820152602490fd5b6001600160a01b031660009081527f80bb2b638cc20bc4d0a60d66940f3ab4a00c1d7b313497ca82fb0b4ab00793056020526040902090565b6001600160a01b031660009081527f80bb2b638cc20bc4d0a60d66940f3ab4a00c1d7b313497ca82fb0b4ab00793036020526040902090565b6001600160401b038111610ad95760051b60200190565b9190811015611f975760051b8101359060fe198136030182121561023e570190565b3560ff8116810361023e5790565b600019811461221e5760010190565b9190811015611f975760051b0190565b356001600160a01b038116810361023e5790565b903590601e198136030182121561023e57018035906001600160401b03821161023e5760200191813603831361023e57565b3561ffff8116810361023e5790565b90601f8111612fae57505050565b6000916000526020600020906020601f850160051c83019410612fec575b601f0160051c01915b828110612fe157505050565b818155600101612fd5565b9092508290612fcc565b604435801515810361023e5790565b606435801515810361023e5790565b63ffffffff80911690811461221e5760010190565b600080516020613df88339815191528054821015611f97576000527fa42f15e5d656f8155fd7419d740a6073999f19cd6e061449ce4a257150545bf20190600090565b6001600160a01b038116156130885761308490612eac565b5490565b6040516322718ad960e21b815260006004820152602490fd5b6000818152600080516020613e5883398151915260205260409020546001600160a01b03169081156130d1575090565b60249060405190637e27328960e01b82526004820152fd5b3360009081527f448256db8f8fb95ee3eaaf89c1051414494e85cebb6057fcf996cc3d0ccfb45660205260409020547f97667070c54ef182b0f5858b034beac1b6f3089aa2d3188bb1e8929f4fa9b9299060ff16156117875750565b3360009081527f549fe2656c81d2947b3b913f0a53b9ea86c71e049f3a1b8aa23c09a8a05cb8d460205260409020547f9f2df0fed2c77648de5860a4cc508cd0818c85b8b8a1ab4ceeef8d981c8956a69060ff16156117875750565b80600052600080516020613e1883398151915260205260406000203360005260205260ff60406000205416156117875750565b6001600160a01b031660008181527fb7db2dd08fcb62d0c9e08c51941cae53c267786a0b75803fb7960902fc8ef97d6020526040812054909190600080516020613e188339815191529060ff1661325d578280526020526040822081835260205260408220600160ff198254161790553391600080516020613d588339815191528180a4600190565b505090565b6001600160a01b031660008181527f549fe2656c81d2947b3b913f0a53b9ea86c71e049f3a1b8aa23c09a8a05cb8d460205260408120549091907f9f2df0fed2c77648de5860a4cc508cd0818c85b8b8a1ab4ceeef8d981c8956a690600080516020613e188339815191529060ff1661330c578184526020526040832082845260205260408320600160ff19825416179055600080516020613d58833981519152339380a4600190565b50505090565b6001600160a01b031660008181527f448256db8f8fb95ee3eaaf89c1051414494e85cebb6057fcf996cc3d0ccfb45660205260408120549091907f97667070c54ef182b0f5858b034beac1b6f3089aa2d3188bb1e8929f4fa9b92990600080516020613e188339815191529060ff1661330c578184526020526040832082845260205260408320600160ff19825416179055600080516020613d58833981519152339380a4600190565b90600091808352600080516020613e1883398151915280602052604084209260018060a01b03169283855260205260ff6040852054161560001461330c578184526020526040832082845260205260408320600160ff19825416179055600080516020613d58833981519152339380a4600190565b90600091808352600080516020613e1883398151915280602052604084209260018060a01b03169283855260205260ff60408520541660001461330c57818452602052604083208284526020526040832060ff1981541690557ff6391f5c32d9c69d2a47ea670b442974b53935d1edc7fd64eb21e047a839171b339380a4600190565b60ff600080516020613e3883398151915254166134cd57565b60405163d93c066560e01b8152600490fd5b604080516134ec816127f9565b6000808252936001600160a01b0384811694909290851561397d57828752600080516020613e5883398151915260209481865280878a20541680151580613975575b613899575b50848952818652868920541687898682847fddf252ad1be2c89b69c2b068fc378daa952ba7f163c4a11628f55a4df523b3ef8115948515988961385a575b61357a8b612eac565b805460010190558582528d528d812080546001600160a01b0319168517905580a4156137d25750600080516020613df8833981519152805490868b527f645e039705490088daad89bae25049a34f4a9072d398537b1ab2425f24cbed03885281898c2055600160401b8210156137be5786612b43836136009360018e9796019055613029565b03613757575b61373f573b613618575b505050505050565b82613656918596979894955180938192630a85bd0160e11b968784523360048501528c602485015260448401526080606484015260848301906126cf565b03818a8a5af18791816136fb575b506136c4575050503d6000146136bb573d61367e81612835565b9061368b84519283612814565b81528094823d92013e5b835193846136b5578251633250574960e11b815260048101859052602490fd5b84925001fd5b60609350613695565b919550915063ffffffff60e01b16036136e4575050388080808080613610565b602492505190633250574960e11b82526004820152fd5b9091508481813d8311613738575b6137138183612814565b8101031261373457516001600160e01b031981168103613734579038613664565b8780fd5b503d613709565b84516339e3563760e11b815260048101889052602490fd5b6137608261306c565b60001981019081116137aa57878952600080516020613d988339815191528652868920818a52865284878a2055848952600080516020613d78833981519152865286892055613606565b634e487b7160e01b89526011600452602489fd5b634e487b7160e01b8b52604160045260248bfd5b9080821461360057896137e48261306c565b878252600080516020613d78833981519152808a528a832054848452600080516020613d988339815191528b528b80852094848303613839575b90508a91505289528b8a8120558b5287528988812055613600565b848152858d528181205483825280838320558152838d522055388b8e61381e565b6000868152600080516020613e788339815191526020526040902080546001600160a01b031916905561388c84612eac565b8054600019019055613571565b60088752878a2060ff8154161561396457600181015480421061394d575060028101548061392b575b50868b526007885260ff60068a8d2001541661391a579060038a92016138e88154612f2c565b9055867fdfc4c991a34be4b2f90df7c348d98b17393713ef48853d9071cf19d4687a6a36898d8c51908152a438613533565b8851630869773360e41b8152600490fd5b6003820154101561393c57386138c2565b885163252fb4b960e11b8152600490fd5b6024908a519063a9de8c6f60e01b82526004820152fd5b8851638574adcf60e01b8152600490fd5b50600161352e565b8451633250574960e11b815260048101889052602490fd5b90939192833b6139a7575b5050505050565b604051630a85bd0160e11b8082526001600160a01b0393841660048301529583166024820152604481019190915260806064820152949216926020929185906139f49060848301906126cf565b039483816000978189895af1869181613a9f575b50613a69575050503d600014613a60573d613a2281612835565b90613a306040519283612814565b81528093823d92013e5b82519283613a5b57604051633250574960e11b815260048101849052602490fd5b019050fd5b60609250613a3a565b919450915063ffffffff60e01b1603613a87575038808080806139a0565b60249060405190633250574960e11b82526004820152fd5b9091508481813d8311613adc575b613ab78183612814565b81010312613ad857516001600160e01b031981168103613ad8579038613a08565b8680fd5b503d613aad565b6020612900919392936040519481613b0487935180928680870191016126ac565b8201613b18825180938680850191016126ac565b01038085520183612814565b613b2d816130a1565b5060008181527f0542a41881ee128a365a727b282c86fa859579490b9bb45aab8503648c8e7900602052613b6360408220612987565b613b6b6128c1565b805115613d21578151613d14575050613b83826130a1565b50613b8c6128c1565b805190929015613d005780827a184f03e93ff9f4daa797ed6e38ed64bf6a1f0100000000000000008281811015613cf2575b50506d04ee2d6d415b85acef810000000080841015613ce5575b50662386f26fc1000080841015613cd8575b506305f5e10080841015613ccb575b5061271080841015613cbe575b506064831015613cb0575b600a80931015613ca8575b9060219160019281600185930196613c3388612835565b97613c41604051998a612814565b808952613c50601f1991612835565b013660208a013750860101905b613c72575b50505050613c6f91613ae3565b90565b600019019083906f181899199a1a9b1b9c1cb0b131b232b360811b8282061a835304918215613ca357919082613c5d565b613c62565b600101613c1c565b916064600291049201613c11565b6004919304920138613c06565b6008919304920138613bf9565b6010919304920138613bea565b6020919304920138613bd8565b049250604090503880613bbe565b506040519150613d0f826127f9565b815290565b909150613c6f9250613ae3565b5091505090565b60ff600080516020613e988339815191525460401c1615613d4557565b604051631afcd79f60e31b8152600490fdfe2f8788117e7eff1d82e926ec794901d17c78024a50270940304540a733656f0d645e039705490088daad89bae25049a34f4a9072d398537b1ab2425f24cbed01645e039705490088daad89bae25049a34f4a9072d398537b1ab2425f24cbed0080bb2b638cc20bc4d0a60d66940f3ab4a00c1d7b313497ca82fb0b4ab0079300f4bad0a69248f59680a4f2b3000328cec71a413447c96781cfe5996daa8c456e645e039705490088daad89bae25049a34f4a9072d398537b1ab2425f24cbed0202dd7bc7dec4dceedda775e58dd541e08a116c6c53815c0bd028192f7b626800cd5ed15c6e187e77e9aee88184c21f4f2182ab5827cb3b7e07fbedcd63f0330080bb2b638cc20bc4d0a60d66940f3ab4a00c1d7b313497ca82fb0b4ab007930280bb2b638cc20bc4d0a60d66940f3ab4a00c1d7b313497ca82fb0b4ab0079304f0c57e16840df040f15088dc2f81fe391c3923bec73e23a9662efc9c229c6a0080bb2b638cc20bc4d0a60d66940f3ab4a00c1d7b313497ca82fb0b4ab007930137c58c799b6609234b945e882912ee9ad34948a1dfaa20a97485e1a7752bbf81a26469706673582212204a3770569322a457780caacf5ad84837c41d915cdc3a378a470fdce9f69d0aff64736f6c63430008180033",
  "linkReferences": {},
  "deployedLinkReferences": {}
}