{
  "_format": "hh-sol-artifact-1",
  "contractName": "RoyaltyDistributor",
  "sourceName": "contracts/RoyaltyDistributor.sol",
  "abi": [
    {
      "inputs": [],
      "stateMutability": "nonpayable",
      "type": "constructor"
    },
    {
      "inputs": [],
      "name": "AccessControlBadConfirmation",
      "type": "error"
    },
    {
      "inputs": [
        {
          "internalType": "address",
          "name": "account",
          "type": "address"
        },
        {
          "internalType": "bytes32",
          "name": "neededRole",
          "type": "bytes32"
        }
      ],
      "name": "AccessControlUnauthorizedAccount",
      "type": "error"
    },
    {
      "inputs": [
        {
          "internalType": "address",
          "name": "target",
          "type": "address"
        }
      ],
      "name": "AddressEmptyCode",
      "type": "error"
    },
    {
      "inputs": [
        {
          "internalType": "address",
          "name": "implementation",
          "type": "address"
        }
      ],
      "name": "ERC1967InvalidImplementation",
      "type": "error"
    },
    {
      "inputs": [],
      "name": "ERC1967NonPayable",
      "type": "error"
    },
    {
      "inputs": [],
      "name": "FailedCall",
      "type": "error"
    },
    {
      "inputs": [],
      "name": "InsufficientPayment",
      "type": "error"
    },
    {
      "inputs": [],
      "name": "InvalidInitialization",
      "type": "error"
    },
    {
      "inputs": [],
      "name": "NotAuthorized",
      "type": "error"
    },
    {
      "inputs": [],
      "name": "NotInitializing",
      "type": "error"
    },
    {
      "inputs": [],
      "name": "NothingToWithdraw",
      "type": "error"
    },
    {
      "inputs": [],
      "name": "ReentrancyGuardReentrantCall",
      "type": "error"
    },
    {
      "inputs": [],
      "name": "RoyaltyLocked",
      "type": "error"
    },
    {
      "inputs": [],
      "name": "RoyaltyTooHigh",
      "type": "error"
    },
    {
      "inputs": [],
      "name": "SplitsMustSumTo100",
      "type": "error"
    },
    {
      "inputs": [],
      "name": "UUPSUnauthorizedCallContext",
      "type": "error"
    },
    {
      "inputs": [
        {
          "internalType": "bytes32",
          "name": "slot",
          "type": "bytes32"
        }
      ],
      "name": "UUPSUnsupportedProxiableUUID",
      "type": "error"
    },
    {
      "inputs": [],
      "name": "WithdrawalFailed",
      "type": "error"
    },
    {
      "inputs": [],
      "name": "ZeroAddress",
      "type": "error"
    },
    {
      "anonymous": false,
      "inputs": [
        {
          "indexed": false,
          "internalType": "uint64",
          "name": "version",
          "type": "uint64"
        }
      ],
      "name": "Initialized",
      "type": "event"
    },
    {
      "anonymous": false,
      "inputs": [
        {
          "indexed": true,
          "internalType": "bytes32",
          "name": "role",
          "type": "bytes32"
        },
        {
          "indexed": true,
          "internalType": "bytes32",
          "name": "previousAdminRole",
          "type": "bytes32"
        },
        {
          "indexed": true,
          "internalType": "bytes32",
          "name": "newAdminRole",
          "type": "bytes32"
        }
      ],
      "name": "RoleAdminChanged",
      "type": "event"
    },
    {
      "anonymous": false,
      "inputs": [
        {
          "indexed": true,
          "internalType": "bytes32",
          "name": "role",
          "type": "bytes32"
        },
        {
          "indexed": true,
          "internalType": "address",
          "name": "account",
          "type": "address"
        },
        {
          "indexed": true,
          "internalType": "address",
          "name": "sender",
          "type": "address"
        }
      ],
      "name": "RoleGranted",
      "type": "event"
    },
    {
      "anonymous": false,
      "inputs": [
        {
          "indexed": true,
          "internalType": "bytes32",
          "name": "role",
          "type": "bytes32"
        },
        {
          "indexed": true,
          "internalType": "address",
          "name": "account",
          "type": "address"
        },
        {
          "indexed": true,
          "internalType": "address",
          "name": "sender",
          "type": "address"
        }
      ],
      "name": "RoleRevoked",
      "type": "event"
    },
    {
      "anonymous": false,
      "inputs": [
        {
          "indexed": true,
          "internalType": "uint256",
          "name": "eventId",
          "type": "uint256"
        },
        {
          "indexed": false,
          "internalType": "uint16",
          "name": "totalBps",
          "type": "uint16"
        }
      ],
      "name": "RoyaltyConfigSet",
      "type": "event"
    },
    {
      "anonymous": false,
      "inputs": [
        {
          "indexed": true,
          "internalType": "uint256",
          "name": "eventId",
          "type": "uint256"
        },
        {
          "indexed": true,
          "internalType": "uint256",
          "name": "tokenId",
          "type": "uint256"
        },
        {
          "indexed": false,
          "internalType": "uint256",
          "name": "salePrice",
          "type": "uint256"
        },
        {
          "indexed": false,
          "internalType": "uint256",
          "name": "totalRoyalty",
          "type": "uint256"
        }
      ],
      "name": "RoyaltyDistributed",
      "type": "event"
    },
    {
      "anonymous": false,
      "inputs": [
        {
          "indexed": true,
          "internalType": "address",
          "name": "recipient",
          "type": "address"
        },
        {
          "indexed": false,
          "internalType": "uint256",
          "name": "amount",
          "type": "uint256"
        },
        {
          "indexed": false,
          "internalType": "string",
          "name": "role",
          "type": "string"
        }
      ],
      "name": "RoyaltyPaid",
      "type": "event"
    },
    {
      "anonymous": false,
      "inputs": [
        {
          "indexed": true,
          "internalType": "address",
          "name": "implementation",
          "type": "address"
        }
      ],
      "name": "Upgraded",
      "type": "event"
    },
    {
      "inputs": [],
      "name": "BPS_DENOMINATOR",
      "outputs": [
        {
          "internalType": "uint16",
          "name": "",
          "type": "uint16"
        }
      ],
      "stateMutability": "view",
      "type": "function"
    },
    {
      "inputs": [],
      "name": "DEFAULT_ADMIN_ROLE",
      "outputs": [
        {
          "internalType": "bytes32",
          "name": "",
          "type": "bytes32"
        }
      ],
      "stateMutability": "view",
      "type": "function"
    },
    {
      "inputs": [],
      "name": "DISTRIBUTOR_ROLE",
      "outputs": [
        {
          "internalType": "bytes32",
          "name": "",
          "type": "bytes32"
        }
      ],
      "stateMutability": "view",
      "type": "function"
    },
    {
      "inputs": [],
      "name": "MAX_ROYALTY_BPS",
      "outputs": [
        {
          "internalType": "uint16",
          "name": "",
          "type": "uint16"
        }
      ],
      "stateMutability": "view",
      "type": "function"
    },
    {
      "inputs": [],
      "name": "ROYALTY_ADMIN_ROLE",
      "outputs": [
        {
          "internalType": "bytes32",
          "name": "",
          "type": "bytes32"
        }
      ],
      "stateMutability": "view",
      "type": "function"
    },
    {
      "inputs": [],
      "name": "UPGRADER_ROLE",
      "outputs": [
        {
          "internalType": "bytes32",
          "name": "",
          "type": "bytes32"
        }
      ],
      "stateMutability": "view",
      "type": "function"
    },
    {
      "inputs": [],
      "name": "UPGRADE_INTERFACE_VERSION",
      "outputs": [
        {
          "internalType": "string",
          "name": "",
          "type": "string"
        }
      ],
      "stateMutability": "view",
      "type": "function"
    },
    {
      "inputs": [
        {
          "internalType": "uint256",
          "name": "eventId",
          "type": "uint256"
        },
        {
          "internalType": "uint256",
          "name": "tokenId",
          "type": "uint256"
        },
        {
          "internalType": "uint256",
          "name": "salePrice",
          "type": "uint256"
        }
      ],
      "name": "distribute",
      "outputs": [],
      "stateMutability": "payable",
      "type": "function"
    },
    {
      "inputs": [],
      "name": "eventFactory",
      "outputs": [
        {
          "internalType": "address",
          "name": "",
          "type": "address"
        }
      ],
      "stateMutability": "view",
      "type": "function"
    },
    {
      "inputs": [
        {
          "internalType": "bytes32",
          "name": "role",
          "type": "bytes32"
        }
      ],
      "name": "getRoleAdmin",
      "outputs": [
        {
          "internalType": "bytes32",
          "name": "",
          "type": "bytes32"
        }
      ],
      "stateMutability": "view",
      "type": "function"
    },
    {
      "inputs": [
        {
          "internalType": "uint256",
          "name": "eventId",
          "type": "uint256"
        },
        {
          "internalType": "uint256",
          "name": "",
          "type": "uint256"
        },
        {
          "internalType": "uint256",
          "name": "salePrice",
          "type": "uint256"
        }
      ],
      "name": "getRoyaltyInfo",
      "outputs": [
        {
          "internalType": "address",
          "name": "receiver",
          "type": "address"
        },
        {
          "internalType": "uint256",
          "name": "royaltyAmount",
          "type": "uint256"
        }
      ],
      "stateMutability": "view",
      "type": "function"
    },
    {
      "inputs": [
        {
          "internalType": "uint256",
          "name": "eventId",
          "type": "uint256"
        }
      ],
      "name": "getSplits",
      "outputs": [
        {
          "components": [
            {
              "internalType": "address",
              "name": "recipient",
              "type": "address"
            },
            {
              "internalType": "uint16",
              "name": "basisPoints",
              "type": "uint16"
            },
            {
              "internalType": "string",
              "name": "role",
              "type": "string"
            }
          ],
          "internalType": "struct IRoyaltyDistributor.RoyaltySplit[]",
          "name": "",
          "type": "tuple[]"
        }
      ],
      "stateMutability": "view",
      "type": "function"
    },
    {
      "inputs": [
        {
          "internalType": "uint256",
          "name": "eventId",
          "type": "uint256"
        }
      ],
      "name": "getTotalRoyaltyBps",
      "outputs": [
        {
          "internalType": "uint16",
          "name": "",
          "type": "uint16"
        }
      ],
      "stateMutability": "view",
      "type": "function"
    },
    {
      "inputs": [
        {
          "internalType": "bytes32",
          "name": "role",
          "type": "bytes32"
        },
        {
          "internalType": "address",
          "name": "account",
          "type": "address"
        }
      ],
      "name": "grantRole",
      "outputs": [],
      "stateMutability": "nonpayable",
      "type": "function"
    },
    {
      "inputs": [
        {
          "internalType": "bytes32",
          "name": "role",
          "type": "bytes32"
        },
        {
          "internalType": "address",
          "name": "account",
          "type": "address"
        }
      ],
      "name": "hasRole",
      "outputs": [
        {
          "internalType": "bool",
          "name": "",
          "type": "bool"
        }
      ],
      "stateMutability": "view",
      "type": "function"
    },
    {
      "inputs": [
        {
          "internalType": "address",
          "name": "eventFactory_",
          "type": "address"
        },
        {
          "internalType": "address",
          "name": "platformWallet_",
          "type": "address"
        },
        {
          "internalType": "uint16",
          "name": "platformFeeBps_",
          "type": "uint16"
        },
        {
          "internalType": "address",
          "name": "admin",
          "type": "address"
        }
      ],
      "name": "initialize",
      "outputs": [],
      "stateMutability": "nonpayable",
      "type": "function"
    },
    {
      "inputs": [
        {
          "internalType": "uint256",
          "name": "eventId",
          "type": "uint256"
        }
      ],
      "name": "isLocked",
      "outputs": [
        {
          "internalType": "bool",
          "name": "",
          "type": "bool"
        }
      ],
      "stateMutability": "view",
      "type": "function"
    },
    {
      "inputs": [
        {
          "internalType": "uint256",
          "name": "eventId",
          "type": "uint256"
        }
      ],
      "name": "lockRoyalties",
      "outputs": [],
      "stateMutability": "nonpayable",
      "type": "function"
    },
    {
      "inputs": [
        {
          "internalType": "address",
          "name": "",
          "type": "address"
        }
      ],
      "name": "pendingWithdrawals",
      "outputs": [
        {
          "internalType": "uint256",
          "name": "",
          "type": "uint256"
        }
      ],
      "stateMutability": "view",
      "type": "function"
    },
    {
      "inputs": [],
      "name": "platformFeeBps",
      "outputs": [
        {
          "internalType": "uint16",
          "name": "",
          "type": "uint16"
        }
      ],
      "stateMutability": "view",
      "type": "function"
    },
    {
      "inputs": [],
      "name": "platformWallet",
      "outputs": [
        {
          "internalType": "address",
          "name": "",
          "type": "address"
        }
      ],
      "stateMutability": "view",
      "type": "function"
    },
    {
      "inputs": [],
      "name": "proxiableUUID",
      "outputs": [
        {
          "internalType": "bytes32",
          "name": "",
          "type": "bytes32"
        }
      ],
      "stateMutability": "view",
      "type": "function"
    },
    {
      "inputs": [
        {
          "internalType": "bytes32",
          "name": "role",
          "type": "bytes32"
        },
        {
          "internalType": "address",
          "name": "callerConfirmation",
          "type": "address"
        }
      ],
      "name": "renounceRole",
      "outputs": [],
      "stateMutability": "nonpayable",
      "type": "function"
    },
    {
      "inputs": [
        {
          "internalType": "bytes32",
          "name": "role",
          "type": "bytes32"
        },
        {
          "internalType": "address",
          "name": "account",
          "type": "address"
        }
      ],
      "name": "revokeRole",
      "outputs": [],
      "stateMutability": "nonpayable",
      "type": "function"
    },
    {
      "inputs": [
        {
          "internalType": "address",
          "name": "eventFactory_",
          "type": "address"
        }
      ],
      "name": "setEventFactory",
      "outputs": [],
      "stateMutability": "nonpayable",
      "type": "function"
    },
    {
      "inputs": [
        {
          "internalType": "uint256",
          "name": "eventId",
          "type": "uint256"
        },
        {
          "internalType": "uint16",
          "name": "totalRoyaltyBps",
          "type": "uint16"
        },
        {
          "components": [
            {
              "internalType": "address",
              "name": "recipient",
              "type": "address"
            },
            {
              "internalType": "uint16",
              "name": "basisPoints",
              "type": "uint16"
            },
            {
              "internalType": "string",
              "name": "role",
              "type": "string"
            }
          ],
          "internalType": "struct IRoyaltyDistributor.RoyaltySplit[]",
          "name": "splits",
          "type": "tuple[]"
        }
      ],
      "name": "setEventRoyalties",
      "outputs": [],
      "stateMutability": "nonpayable",
      "type": "function"
    },
    {
      "inputs": [
        {
          "internalType": "uint16",
          "name": "platformFeeBps_",
          "type": "uint16"
        }
      ],
      "name": "setPlatformFeeBps",
      "outputs": [],
      "stateMutability": "nonpayable",
      "type": "function"
    },
    {
      "inputs": [
        {
          "internalType": "address",
          "name": "platformWallet_",
          "type": "address"
        }
      ],
      "name": "setPlatformWallet",
      "outputs": [],
      "stateMutability": "nonpayable",
      "type": "function"
    },
    {
      "inputs": [
        {
          "internalType": "bytes4",
          "name": "interfaceId",
          "type": "bytes4"
        }
      ],
      "name": "supportsInterface",
      "outputs": [
        {
          "internalType": "bool",
          "name": "",
          "type": "bool"
        }
      ],
      "stateMutability": "view",
      "type": "function"
    },
    {
      "inputs": [
        {
          "internalType": "address",
          "name": "newImplementation",
          "type": "address"
        },
        {
          "internalType": "bytes",
          "name": "data",
          "type": "bytes"
        }
      ],
      "name": "upgradeToAndCall",
      "outputs": [],
      "stateMutability": "payable",
      "type": "function"
    },
    {
      "inputs": [],
      "name": "withdraw",
      "outputs": [],
      "stateMutability": "nonpayable",
      "type": "function"
    },
    {
      "stateMutability": "payable",
      "type": "receive"
    }
  ],
  "bytecode": "0x60a080604052346100cc57306080527ff0c57e16840df040f15088dc2f81fe391c3923bec73e23a9662efc9c229c6a009081549060ff8260401c166100bd57506001600160401b036002600160401b031982821601610078575b604051611f3390816100d28239608051818181610e2e0152610f0e0152f35b6001600160401b031990911681179091556040519081527fc7f505b2f371ae2175ee4913f4499e1f2633a7b5936321eed1cdaeb6115181d290602090a1388080610059565b63f92ee8a960e01b8152600490fd5b600080fdfe6080604081815260049182361015610022575b505050361561002057600080fd5b005b600092833560e01c91826301ffc9a7146114de5750816322dcd13e146114b8578163248a9ca3146114805781632a5768b71461130c5781632f2ff15d146112e257816331003ca4146112a757816336568abe1461126157816338dc53de146112255781633bc1f7b3146111bd5781633ccfd60b146111495781633dca40e61461112c5781634f1ef28614610e9257816352d1902d14610e195781636fdbd3f614610df15781638831e9cf14610dac57816391d1485414610d58578163a217fddf14610d3d578163ad3cb1cc14610cce578163b1ffa58214610ae6578163be20f07714610aba578163c40480e514610a73578163d2de6ec51461077b578163d43cbb151461073b578163d547741f146106ee578163e1a45218146106d1578163e3aeed9d1461028f578163f0bd87cc14610254578163f3f437031461021c578163f6aacfb1146101ec57508063f72c0d8b146101b25763fa2af9da146101875780610012565b346101ae57816003193601126101ae5760015490516001600160a01b039091168152602090f35b5080fd5b50346101ae57816003193601126101ae57602090517f189ab7a9244df0848122154315af71fe140f3db0fe014031783b0946b8c9d2e38152f35b90503461021857602036600319011261021857816020938260ff93358252855220541690519015158152f35b8280fd5b5050346101ae5760203660031901126101ae5760209181906001600160a01b03610244611594565b1681526005845220549051908152f35b5050346101ae57816003193601126101ae57602090517ffbd454f36a7e1a388bd6fc3ab10d434aa4578f811acbbcf33afb1c697486313c8152f35b919050346102185760603660031901126102185781359060249081359061ffff928383168093036106cd5760443567ffffffffffffffff918282116106c957366023830112156106c95781880135978389116106c557818301928236918b60051b0101116106c557878a5260209681885260ff868c2054166106b65761031489611bea565b156106a7576109c48711610698578a8b5b8b811061063a57501661270f190161062c57878a5260028752848a20805461ffff19168717905560038752848a2080548b82559081610589575b5050895b898110610398578a897fad208512edabe44e60ddaa570a13a367e5ee2eeb55f2b216dae938d93fa8687c8a8a8a51908152a280f35b888b5260038852858b20906103ae818c8761178d565b825468010000000000000000811015610577576103d290600194858201815561175b565b610566578d9084908c6001600160a01b036103ec866117af565b16825491816bffffffffffffffffffffffff60a01b841617845561041761ffff60a01b9188016117c3565b60a01b169169ffffffffffffffffffff60b01b161717815501918981013590601e1981360301821215610218570193843591898311610563578236038d870113610563578c906104678554611618565b90601f9182811161052d575b50809185116001146104b457918493916001988594956104a7575b5050501b916000199060031b1c19161790555b01610363565b01013592508d388061048e565b91601f97919794939419841697868452818420935b898110610505575084600199106104e9575b50505050811b0190556104a1565b60001960f88660031b161c199201013516905538808d816104db565b9293918682969798999a938280948801013581550195019201918f91989796959493926104c9565b610554908783528483208480890160051c820192878a1061055a575b0160051c01906117d2565b38610473565b92508192610549565b80fd5b634e487b7160e01b8e528d8552858efd5b634e487b7160e01b8e5260418552858efd5b6001906001600160ff1b038316830361061a578c52888c209160011b8201915b8281106105b6575061035f565b808d600292558d8b8483016105cb8154611618565b806105db575b50505050016105a9565b83601f8083116001146105f8575050509050555b8d8b38806105d1565b839294829461061393528420940160051c84018885016117d2565b55556105ef565b634e487b7160e01b8d5260118452848dfd5b845163284cf07160e01b8152fd5b906001600160a01b03610656610651848f8a61178d565b6117af565b16156106885782806106748c8f8661066e918c61178d565b016117c3565b1691160182811161061a5790600101610325565b875163d92e233d60e01b81528490fd5b50845163c2b03beb60e01b8152fd5b50845163ea8e4eb560e01b8152fd5b508451630473b96f60e41b8152fd5b8980fd5b8880fd5b8680fd5b5050346101ae57816003193601126101ae57602090516127108152f35b9190503461021857806003193601126102185761073791356107326001610713611579565b93838752600080516020611ebe83398151915260205286200154611841565b611ad1565b5080f35b833461056357602036600319011261056357610755611594565b61075d6117e9565b81546001600160a01b0319166001600160a01b039190911617815580f35b9050610786366115aa565b90610792949294611b54565b7ffbd454f36a7e1a388bd6fc3ab10d434aa4578f811acbbcf33afb1c697486313c94858752602095600080516020611ebe8339815191528752848820338952875260ff858920541615610a555750808752600286526127109261ffff96846107ff89888c205416846116e8565b0494853410610a455760019889918254898d83610821868560a01c168d6116e8565b049261082d848d611741565b93806109d3575b505098969492909997959391868a52600385528a8a2092848b905b6108d6575b505050505050957f47b6546148fa5d96118443cd143cf54cecb624fb20c2e3a0306833ee0fffcbde918561089297988351928352820152a334611741565b806108ad575b5083600080516020611ede8339815191525580f35b81808092335af16108bc611711565b50156108c9578381610898565b516327fcd9d160e01b8152fd5b91939597999b869b91939597999b548310156109c4578291898892848961090e896109028f9a8961175b565b505460a01c168b6116e8565b04918783610933575b5050505050505001918593918f9a9896938d9c9a98969461084f565b61099e837f5a9dee8cce189e8844b2630c97f4c587212c92f0303fb1e7110f5414138774fb97846109676109b4978c61175b565b50546001600160a01b03908116835260058a529120805461098990899061174e565b9055610995828b61175b565b5054169861175b565b5091808051968796875286015284019101611652565b0390a28f8690898f848187610917565b9b999795819b99979550610854565b6008608092857f5a9dee8cce189e8844b2630c97f4c587212c92f0303fb1e7110f5414138774fb9560018060a01b03809316815260058d5220610a1784825461174e565b9055895416948051928352808b84015282015267706c6174666f726d60c01b6060820152a2898d3880610834565b865163cd1c886760e01b81528890fd5b845163e2517d3f60e01b815233818801526024810191909152604490fd5b905034610218576020366003190112610218578035610a9181611bea565b15610aab5783526020528120805460ff1916600117905580f35b50905163ea8e4eb560e01b8152fd5b905034610218576020366003190112610218578160209361ffff92358152600285522054169051908152f35b90503461021857608036600319011261021857610b01611594565b90610b0a611579565b60443561ffff8116918282036106cd57606435916001600160a01b0380841684036106c9577ff0c57e16840df040f15088dc2f81fe391c3923bec73e23a9662efc9c229c6a009687549660ff888b1c16159667ffffffffffffffff891698891580610cc7575b6001809b149081610cbd575b159081610cb4575b50610ca45767ffffffffffffffff1981168a178b556103e8919089610c85575b50610bad611df9565b610bb5611df9565b610bbd611df9565b610bc5611df9565b89600080516020611ede8339815191525511610c77575089546001600160a01b03191690821617895585546001600160b01b03191692169190911760a09190911b61ffff60a01b16178355610c2d90610c1d81611874565b50610c2781611902565b506119b2565b50610c36578380f35b7fc7f505b2f371ae2175ee4913f4499e1f2633a7b5936321eed1cdaeb6115181d29260209268ff000000000000000019815416905551908152a13880808380f35b895163c2b03beb60e01b8152fd5b68ffffffffffffffffff191668010000000000000001178b5538610ba4565b8b5163f92ee8a960e01b81528390fd5b90501538610b84565b303b159150610b7c565b5088610b70565b8383346101ae57816003193601126101ae578051918183019083821067ffffffffffffffff831117610d2a5750610d269350815260058252640352e302e360dc1b602083015251918291602083526020830190611554565b0390f35b634e487b7160e01b815260418552602490fd5b5050346101ae57816003193601126101ae5751908152602090f35b9050346102185781600319360112610218578160209360ff92610d79611579565b90358252600080516020611ebe83398151915286528282206001600160a01b039091168252855220549151911615158152f35b833461056357602036600319011261056357610dc6611594565b610dce6117e9565b60018060a01b03166bffffffffffffffffffffffff60a01b600154161760015580f35b5050346101ae57816003193601126101ae57905490516001600160a01b039091168152602090f35b828434610563578060031936011261056357507f00000000000000000000000000000000000000000000000000000000000000006001600160a01b03163003610e8557602090517f360894a13ba1a3210667c828492db98dca3e2076cc3735a920a3ca505d382bbc8152f35b5163703e46dd60e11b8152fd5b9180915060031936011261021857610ea8611594565b90602493843567ffffffffffffffff81116101ae57366023820112156101ae578085013593610ed6856115fc565b610ee2855191826115c4565b85815260209586820193368a83830101116110c6578186928b8a93018737830101526001600160a01b037f000000000000000000000000000000000000000000000000000000000000000081163081149081156110fe575b506110ee577f189ab7a9244df0848122154315af71fe140f3db0fe014031783b0946b8c9d2e3808652600080516020611ebe8339815191528852868620338752885260ff8787205416156110d1575085516352d1902d60e01b81529083169680828a818b5afa918291879361109d575b5050610fc65750505050505191634c9c8ce360e01b8352820152fd5b86899689927f360894a13ba1a3210667c828492db98dca3e2076cc3735a920a3ca505d382bbc908181036110885750853b156110735780546001600160a01b0319168317905551869392917fbc7cd75a20ee27fd9adebab32041f755214dbc6bffa90cc0225b39da2e5c2d3b8580a28251156110575750506107379382915190845af4611051611711565b91611e3a565b9350935050503461106757505080f35b63b398979f60e01b8152fd5b5051634c9c8ce360e01b815291820152859150fd5b848a91845191632a87526960e21b8352820152fd5b9080929350813d83116110ca575b6110b581836115c4565b810103126110c65751903880610faa565b8580fd5b503d6110ab565b865163e2517d3f60e01b815233818b0152808b0191909152604490fd5b855163703e46dd60e11b81528890fd5b9050817f360894a13ba1a3210667c828492db98dca3e2076cc3735a920a3ca505d382bbc5416141538610f3a565b5050346101ae57816003193601126101ae57602090516109c48152f35b91905034610218578260031936011261021857611164611b54565b33835260056020528083205480156111af57838080809333825260056020528186812055335af1611193611711565b50156108c957826001600080516020611ede8339815191525580f35b5051630686827b60e51b8152fd5b9050346102185760203660031901126102185780359161ffff8316808403611221576103e8906111eb6117e9565b116112145750506001805461ffff60a01b191660a09290921b61ffff60a01b1691909117905580f35b5163c2b03beb60e01b8152fd5b8480fd5b828434610563576112536127109161ffff84611240366115aa565b91855250600260205292205416906116e8565b048151903082526020820152f35b8383346101ae57806003193601126101ae5761127b611579565b90336001600160a01b038316036112985750610737919235611ad1565b5163334bd91960e11b81528390fd5b5050346101ae57816003193601126101ae57602090517f6db4061a20ca83a3be756ee172bd37a029093ac5afe4ce968c6d5435b43cb0118152f35b9190503461021857806003193601126102185761073791356113076001610713611579565b611a5c565b839150346101ae57602090816003193601126102185780358352600382528383209182549167ffffffffffffffff9283811161146d578651929593611357600583901b8801856115c4565b81845286840190819686528786209086925b8484106113f3575050505050508451938085019181865251809252858501868360051b8701019493965b8388106113a05786860387f35b909192939483806113e2600193603f198b8203018752895186606091878060a01b03815116845261ffff86820151168685015201519181888201520190611554565b970193019701969093929193611393565b8a9996979951606081018181108482111761145a578c5283546001600160a01b038116825260a01c61ffff16888201528b516001926002928a928f6114458261143e818c8b01611652565b03836115c4565b82015281520193019301929198969598611369565b634e487b7160e01b8c526041885260248cfd5b634e487b7160e01b865260418252602486fd5b9050346102185760203660031901126102185781602093600192358152600080516020611ebe83398151915285522001549051908152f35b5050346101ae57816003193601126101ae5760209061ffff60015460a01c169051908152f35b849134610218576020366003190112610218573563ffffffff60e01b81168091036102185760209250637965db0b60e01b8114908115611520575b5015158152f35b6301ffc9a760e01b14905083611519565b60005b8381106115445750506000910152565b8181015183820152602001611534565b9060209161156d81518092818552858086019101611531565b601f01601f1916010190565b602435906001600160a01b038216820361158f57565b600080fd5b600435906001600160a01b038216820361158f57565b606090600319011261158f57600435906024359060443590565b90601f8019910116810190811067ffffffffffffffff8211176115e657604052565b634e487b7160e01b600052604160045260246000fd5b67ffffffffffffffff81116115e657601f01601f191660200190565b90600182811c92168015611648575b602083101461163257565b634e487b7160e01b600052602260045260246000fd5b91607f1691611627565b80546000939261166182611618565b918282526020936001916001811690816000146116c95750600114611688575b5050505050565b90939495506000929192528360002092846000945b8386106116b557505050500101903880808080611681565b80548587018301529401938590820161169d565b60ff19168685015250505090151560051b010191503880808080611681565b818102929181159184041417156116fb57565b634e487b7160e01b600052601160045260246000fd5b3d1561173c573d90611722826115fc565b9161173060405193846115c4565b82523d6000602084013e565b606090565b919082039182116116fb57565b919082018092116116fb57565b80548210156117775760005260206000209060011b0190600090565b634e487b7160e01b600052603260045260246000fd5b91908110156117775760051b81013590605e198136030182121561158f570190565b356001600160a01b038116810361158f5790565b3561ffff8116810361158f5790565b8181106117dd575050565b600081556001016117d2565b3360009081527fb7db2dd08fcb62d0c9e08c51941cae53c267786a0b75803fb7960902fc8ef97d602052604081205460ff16156118235750565b6044906040519063e2517d3f60e01b82523360048301526024820152fd5b80600052600080516020611ebe83398151915260205260406000203360005260205260ff60406000205416156118235750565b6001600160a01b031660008181527fb7db2dd08fcb62d0c9e08c51941cae53c267786a0b75803fb7960902fc8ef97d6020526040812054909190600080516020611ebe8339815191529060ff166118fd578280526020526040822081835260205260408220600160ff198254161790553391600080516020611e9e8339815191528180a4600190565b505090565b6001600160a01b031660008181527f994f78f736098f243dd364b03e182a283a65f39afeb5005183ecebe406584c5660205260408120549091907f6db4061a20ca83a3be756ee172bd37a029093ac5afe4ce968c6d5435b43cb01190600080516020611ebe8339815191529060ff166119ac578184526020526040832082845260205260408320600160ff19825416179055600080516020611e9e833981519152339380a4600190565b50505090565b6001600160a01b031660008181527fab71e3f32666744d246edff3f96e4bdafee2e9867098cdd118a979a7464786a860205260408120549091907f189ab7a9244df0848122154315af71fe140f3db0fe014031783b0946b8c9d2e390600080516020611ebe8339815191529060ff166119ac578184526020526040832082845260205260408320600160ff19825416179055600080516020611e9e833981519152339380a4600190565b90600091808352600080516020611ebe83398151915280602052604084209260018060a01b03169283855260205260ff604085205416156000146119ac578184526020526040832082845260205260408320600160ff19825416179055600080516020611e9e833981519152339380a4600190565b90600091808352600080516020611ebe83398151915280602052604084209260018060a01b03169283855260205260ff6040852054166000146119ac57818452602052604083208284526020526040832060ff1981541690557ff6391f5c32d9c69d2a47ea670b442974b53935d1edc7fd64eb21e047a839171b339380a4600190565b600080516020611ede8339815191526002815414611b725760029055565b604051633ee5aeb560e01b8152600490fd5b81601f8201121561158f578051611b9a816115fc565b92611ba860405194856115c4565b8184526020828401011161158f57611bc69160208085019101611531565b90565b51906001600160a01b038216820361158f57565b5190811515820361158f57565b3360009081527f994f78f736098f243dd364b03e182a283a65f39afeb5005183ecebe406584c566020526040808220549192909160ff16611df157825482516372ce140760e01b815260048101929092526001600160a01b03929084908390602490829087165afa938415611de6578094611c9d575b5050508060c0830151163314918215611c8c575b8215611c7f57505090565b60e0919250015116331490565b91508060a083015116331491611c74565b90919293503d8082853e611cb181856115c4565b8301916020848403126101ae57835167ffffffffffffffff94858211611dce570192610160948585830312611dce57825195860186811082821117611dd257835284518181116112215782611d07918701611b84565b865260208501518181116112215782611d21918701611b84565b602087015282850151908111611dce5790611d3d918501611b84565b908401526060820151606084015260808201516080840152611d6160a08301611bc9565b60a0840152611d7260c08301611bc9565b60c0840152611d8360e08301611bc9565b60e0840152610100808301519163ffffffff831683036105635750830152610120611daf818301611bdd565b90830152611dc1610140809201611bdd565b9082015290388080611c60565b8380fd5b634e487b7160e01b85526041600452602485fd5b9051903d90823e3d90fd5b505050600190565b60ff7ff0c57e16840df040f15088dc2f81fe391c3923bec73e23a9662efc9c229c6a005460401c1615611e2857565b604051631afcd79f60e31b8152600490fd5b90611e615750805115611e4f57602081519101fd5b60405163d6bda27560e01b8152600490fd5b81511580611e94575b611e72575090565b604051639996b31560e01b81526001600160a01b039091166004820152602490fd5b50803b15611e6a56fe2f8788117e7eff1d82e926ec794901d17c78024a50270940304540a733656f0d02dd7bc7dec4dceedda775e58dd541e08a116c6c53815c0bd028192f7b6268009b779b17422d0df92223018b32b4d1fa46e071723d6817e2486d003becc55f00a2646970667358221220829137fd1eeaa80c76bd2aeece6a3bf1329a57c05c330349f86158464afc766d64736f6c63430008180033",
  "linkReferences": {},
  "deployedLinkReferences": {}
}