{
  "_format": "hh-sol-artifact-1",
  "contractName": "PricingController",
  "sourceName": "contracts/PricingController.sol",
  "abi": [
    {
      "inputs": [],
      "stateMutability": "nonpayable",
      "type": "constructor"
    },
    {
      "inputs": [],
      "name": "AccessControlBadConfirmation",
      "type": "error"
    },
    {
      "inputs": [
        {
          "internalType": "address",
          "name": "account",
          "type": "address"
        },
        {
          "internalType": "bytes32",
          "name": "neededRole",
          "type": "bytes32"
        }
      ],
      "name": "AccessControlUnauthorizedAccount",
      "type": "error"
    },
    {
      "inputs": [
        {
          "internalType": "address",
          "name": "target",
          "type": "address"
        }
      ],
      "name": "AddressEmptyCode",
      "type": "error"
    },
    {
      "inputs": [],
      "name": "ConfigLocked",
      "type": "error"
    },
    {
      "inputs": [
        {
          "internalType": "address",
          "name": "implementation",
          "type": "address"
        }
      ],
      "name": "ERC1967InvalidImplementation",
      "type": "error"
    },
    {
      "inputs": [],
      "name": "ERC1967NonPayable",
      "type": "error"
    },
    {
      "inputs": [],
      "name": "FailedCall",
      "type": "error"
    },
    {
      "inputs": [],
      "name": "InvalidInitialization",
      "type": "error"
    },
    {
      "inputs": [],
      "name": "InvalidPercentage",
      "type": "error"
    },
    {
      "inputs": [],
      "name": "NotAuthorized",
      "type": "error"
    },
    {
      "inputs": [],
      "name": "NotInitializing",
      "type": "error"
    },
    {
      "inputs": [],
      "name": "PriceBelowMinimum",
      "type": "error"
    },
    {
      "inputs": [],
      "name": "PriceExceedsCap",
      "type": "error"
    },
    {
      "inputs": [],
      "name": "UUPSUnauthorizedCallContext",
      "type": "error"
    },
    {
      "inputs": [
        {
          "internalType": "bytes32",
          "name": "slot",
          "type": "bytes32"
        }
      ],
      "name": "UUPSUnsupportedProxiableUUID",
      "type": "error"
    },
    {
      "anonymous": false,
      "inputs": [
        {
          "indexed": false,
          "internalType": "uint64",
          "name": "version",
          "type": "uint64"
        }
      ],
      "name": "Initialized",
      "type": "event"
    },
    {
      "anonymous": false,
      "inputs": [
        {
          "indexed": true,
          "internalType": "uint256",
          "name": "eventId",
          "type": "uint256"
        },
        {
          "indexed": true,
          "internalType": "uint8",
          "name": "tier",
          "type": "uint8"
        },
        {
          "components": [
            {
              "internalType": "enum IPricingController.ResaleCapType",
              "name": "capType",
              "type": "uint8"
            },
            {
              "internalType": "uint256",
              "name": "capValue",
              "type": "uint256"
            },
            {
              "internalType": "uint256",
              "name": "minResalePrice",
              "type": "uint256"
            },
            {
              "internalType": "bool",
              "name": "dynamicPricing",
              "type": "bool"
            }
          ],
          "indexed": false,
          "internalType": "struct IPricingController.PricingConfig",
          "name": "config",
          "type": "tuple"
        }
      ],
      "name": "PricingConfigSet",
      "type": "event"
    },
    {
      "anonymous": false,
      "inputs": [
        {
          "indexed": true,
          "internalType": "uint256",
          "name": "eventId",
          "type": "uint256"
        },
        {
          "indexed": false,
          "internalType": "enum IPricingController.ResaleCapType",
          "name": "capType",
          "type": "uint8"
        },
        {
          "indexed": false,
          "internalType": "uint256",
          "name": "capValue",
          "type": "uint256"
        }
      ],
      "name": "ResaleCapUpdated",
      "type": "event"
    },
    {
      "anonymous": false,
      "inputs": [
        {
          "indexed": true,
          "internalType": "bytes32",
          "name": "role",
          "type": "bytes32"
        },
        {
          "indexed": true,
          "internalType": "bytes32",
          "name": "previousAdminRole",
          "type": "bytes32"
        },
        {
          "indexed": true,
          "internalType": "bytes32",
          "name": "newAdminRole",
          "type": "bytes32"
        }
      ],
      "name": "RoleAdminChanged",
      "type": "event"
    },
    {
      "anonymous": false,
      "inputs": [
        {
          "indexed": true,
          "internalType": "bytes32",
          "name": "role",
          "type": "bytes32"
        },
        {
          "indexed": true,
          "internalType": "address",
          "name": "account",
          "type": "address"
        },
        {
          "indexed": true,
          "internalType": "address",
          "name": "sender",
          "type": "address"
        }
      ],
      "name": "RoleGranted",
      "type": "event"
    },
    {
      "anonymous": false,
      "inputs": [
        {
          "indexed": true,
          "internalType": "bytes32",
          "name": "role",
          "type": "bytes32"
        },
        {
          "indexed": true,
          "internalType": "address",
          "name": "account",
          "type": "address"
        },
        {
          "indexed": true,
          "internalType": "address",
          "name": "sender",
          "type": "address"
        }
      ],
      "name": "RoleRevoked",
      "type": "event"
    },
    {
      "anonymous": false,
      "inputs": [
        {
          "indexed": true,
          "internalType": "address",
          "name": "implementation",
          "type": "address"
        }
      ],
      "name": "Upgraded",
      "type": "event"
    },
    {
      "inputs": [],
      "name": "BPS_DENOMINATOR",
      "outputs": [
        {
          "internalType": "uint16",
          "name": "",
          "type": "uint16"
        }
      ],
      "stateMutability": "view",
      "type": "function"
    },
    {
      "inputs": [],
      "name": "DEFAULT_ADMIN_ROLE",
      "outputs": [
        {
          "internalType": "bytes32",
          "name": "",
          "type": "bytes32"
        }
      ],
      "stateMutability": "view",
      "type": "function"
    },
    {
      "inputs": [],
      "name": "PRICING_ADMIN_ROLE",
      "outputs": [
        {
          "internalType": "bytes32",
          "name": "",
          "type": "bytes32"
        }
      ],
      "stateMutability": "view",
      "type": "function"
    },
    {
      "inputs": [],
      "name": "UPGRADER_ROLE",
      "outputs": [
        {
          "internalType": "bytes32",
          "name": "",
          "type": "bytes32"
        }
      ],
      "stateMutability": "view",
      "type": "function"
    },
    {
      "inputs": [],
      "name": "UPGRADE_INTERFACE_VERSION",
      "outputs": [
        {
          "internalType": "string",
          "name": "",
          "type": "string"
        }
      ],
      "stateMutability": "view",
      "type": "function"
    },
    {
      "inputs": [
        {
          "internalType": "uint256",
          "name": "",
          "type": "uint256"
        }
      ],
      "name": "configLocked",
      "outputs": [
        {
          "internalType": "bool",
          "name": "",
          "type": "bool"
        }
      ],
      "stateMutability": "view",
      "type": "function"
    },
    {
      "inputs": [],
      "name": "eventFactory",
      "outputs": [
        {
          "internalType": "address",
          "name": "",
          "type": "address"
        }
      ],
      "stateMutability": "view",
      "type": "function"
    },
    {
      "inputs": [
        {
          "internalType": "uint256",
          "name": "eventId",
          "type": "uint256"
        },
        {
          "internalType": "uint256",
          "name": "tokenId",
          "type": "uint256"
        },
        {
          "internalType": "uint256",
          "name": "originalPrice",
          "type": "uint256"
        }
      ],
      "name": "getMaxResalePrice",
      "outputs": [
        {
          "internalType": "uint256",
          "name": "",
          "type": "uint256"
        }
      ],
      "stateMutability": "view",
      "type": "function"
    },
    {
      "inputs": [
        {
          "internalType": "uint256",
          "name": "eventId",
          "type": "uint256"
        },
        {
          "internalType": "uint256",
          "name": "tokenId",
          "type": "uint256"
        },
        {
          "internalType": "uint256",
          "name": "originalPrice",
          "type": "uint256"
        }
      ],
      "name": "getMinResalePrice",
      "outputs": [
        {
          "internalType": "uint256",
          "name": "",
          "type": "uint256"
        }
      ],
      "stateMutability": "view",
      "type": "function"
    },
    {
      "inputs": [
        {
          "internalType": "bytes32",
          "name": "role",
          "type": "bytes32"
        }
      ],
      "name": "getRoleAdmin",
      "outputs": [
        {
          "internalType": "bytes32",
          "name": "",
          "type": "bytes32"
        }
      ],
      "stateMutability": "view",
      "type": "function"
    },
    {
      "inputs": [
        {
          "internalType": "bytes32",
          "name": "role",
          "type": "bytes32"
        },
        {
          "internalType": "address",
          "name": "account",
          "type": "address"
        }
      ],
      "name": "grantRole",
      "outputs": [],
      "stateMutability": "nonpayable",
      "type": "function"
    },
    {
      "inputs": [
        {
          "internalType": "bytes32",
          "name": "role",
          "type": "bytes32"
        },
        {
          "internalType": "address",
          "name": "account",
          "type": "address"
        }
      ],
      "name": "hasRole",
      "outputs": [
        {
          "internalType": "bool",
          "name": "",
          "type": "bool"
        }
      ],
      "stateMutability": "view",
      "type": "function"
    },
    {
      "inputs": [
        {
          "internalType": "address",
          "name": "eventFactory_",
          "type": "address"
        },
        {
          "internalType": "address",
          "name": "admin",
          "type": "address"
        }
      ],
      "name": "initialize",
      "outputs": [],
      "stateMutability": "nonpayable",
      "type": "function"
    },
    {
      "inputs": [
        {
          "internalType": "uint256",
          "name": "eventId",
          "type": "uint256"
        }
      ],
      "name": "lockPricingConfig",
      "outputs": [],
      "stateMutability": "nonpayable",
      "type": "function"
    },
    {
      "inputs": [
        {
          "internalType": "uint256",
          "name": "",
          "type": "uint256"
        },
        {
          "internalType": "uint8",
          "name": "",
          "type": "uint8"
        }
      ],
      "name": "pricingConfigs",
      "outputs": [
        {
          "internalType": "enum IPricingController.ResaleCapType",
          "name": "capType",
          "type": "uint8"
        },
        {
          "internalType": "uint256",
          "name": "capValue",
          "type": "uint256"
        },
        {
          "internalType": "uint256",
          "name": "minResalePrice",
          "type": "uint256"
        },
        {
          "internalType": "bool",
          "name": "dynamicPricing",
          "type": "bool"
        }
      ],
      "stateMutability": "view",
      "type": "function"
    },
    {
      "inputs": [],
      "name": "proxiableUUID",
      "outputs": [
        {
          "internalType": "bytes32",
          "name": "",
          "type": "bytes32"
        }
      ],
      "stateMutability": "view",
      "type": "function"
    },
    {
      "inputs": [
        {
          "internalType": "bytes32",
          "name": "role",
          "type": "bytes32"
        },
        {
          "internalType": "address",
          "name": "callerConfirmation",
          "type": "address"
        }
      ],
      "name": "renounceRole",
      "outputs": [],
      "stateMutability": "nonpayable",
      "type": "function"
    },
    {
      "inputs": [
        {
          "internalType": "bytes32",
          "name": "role",
          "type": "bytes32"
        },
        {
          "internalType": "address",
          "name": "account",
          "type": "address"
        }
      ],
      "name": "revokeRole",
      "outputs": [],
      "stateMutability": "nonpayable",
      "type": "function"
    },
    {
      "inputs": [
        {
          "internalType": "address",
          "name": "eventFactory_",
          "type": "address"
        }
      ],
      "name": "setEventFactory",
      "outputs": [],
      "stateMutability": "nonpayable",
      "type": "function"
    },
    {
      "inputs": [
        {
          "internalType": "uint256",
          "name": "eventId",
          "type": "uint256"
        },
        {
          "internalType": "uint8",
          "name": "tier",
          "type": "uint8"
        },
        {
          "components": [
            {
              "internalType": "enum IPricingController.ResaleCapType",
              "name": "capType",
              "type": "uint8"
            },
            {
              "internalType": "uint256",
              "name": "capValue",
              "type": "uint256"
            },
            {
              "internalType": "uint256",
              "name": "minResalePrice",
              "type": "uint256"
            },
            {
              "internalType": "bool",
              "name": "dynamicPricing",
              "type": "bool"
            }
          ],
          "internalType": "struct IPricingController.PricingConfig",
          "name": "config",
          "type": "tuple"
        }
      ],
      "name": "setPricingConfig",
      "outputs": [],
      "stateMutability": "nonpayable",
      "type": "function"
    },
    {
      "inputs": [
        {
          "internalType": "bytes4",
          "name": "interfaceId",
          "type": "bytes4"
        }
      ],
      "name": "supportsInterface",
      "outputs": [
        {
          "internalType": "bool",
          "name": "",
          "type": "bool"
        }
      ],
      "stateMutability": "view",
      "type": "function"
    },
    {
      "inputs": [
        {
          "internalType": "address",
          "name": "newImplementation",
          "type": "address"
        },
        {
          "internalType": "bytes",
          "name": "data",
          "type": "bytes"
        }
      ],
      "name": "upgradeToAndCall",
      "outputs": [],
      "stateMutability": "payable",
      "type": "function"
    },
    {
      "inputs": [
        {
          "internalType": "uint256",
          "name": "eventId",
          "type": "uint256"
        },
        {
          "internalType": "uint256",
          "name": "tokenId",
          "type": "uint256"
        },
        {
          "internalType": "uint256",
          "name": "originalPrice",
          "type": "uint256"
        },
        {
          "internalType": "uint256",
          "name": "proposedPrice",
          "type": "uint256"
        }
      ],
      "name": "validateResalePrice",
      "outputs": [
        {
          "internalType": "bool",
          "name": "valid",
          "type": "bool"
        },
        {
          "internalType": "string",
          "name": "reason",
          "type": "string"
        }
      ],
      "stateMutability": "view",
      "type": "function"
    }
  ],
  "bytecode": "0x60a080604052346100cc57306080527ff0c57e16840df040f15088dc2f81fe391c3923bec73e23a9662efc9c229c6a009081549060ff8260401c166100bd57506001600160401b036002600160401b031982821601610078575b60405161186190816100d2823960805181818161064301526107230152f35b6001600160401b031990911681179091556040519081527fc7f505b2f371ae2175ee4913f4499e1f2633a7b5936321eed1cdaeb6115181d290602090a1388080610059565b63f92ee8a960e01b8152600490fd5b600080fdfe608060408181526004918236101561001657600080fd5b600092833560e01c91826301ffc9a714610ba357508163248a9ca314610b6b5781632f2ff15d14610b415781633586ad9b14610b1e57816336568abe14610ad8578163485cc955146109695781634f1ef286146106a757816352d1902d1461062e57816361a92e93146105e35781636fdbd3f6146105bb578163831413861461054e57816391d14854146104fa5781639557e5c0146104bc578163a217fddf146104a1578163aac60ec714610474578163ad3cb1cc1461042b578163d43cbb15146103a8578163d478c99014610250578163d547741f14610203578163e144e60e146101b557508063e1a4521814610199578063f72c0d8b1461015f5763f88b76651461012257600080fd5b3461015b578160031936011261015b57602090517f59cf09151a2ed3505dc0bedfbb6971491b33b081e7804e65b493040d8700ab798152f35b5080fd5b503461015b578160031936011261015b57602090517f189ab7a9244df0848122154315af71fe140f3db0fe014031783b0946b8c9d2e38152f35b503461015b578160031936011261015b57602090516127108152f35b9050346101ff5760203660031901126101ff578035906101d48261153c565b156101f15750825260026020528120805460ff1916600117905580f35b825163ea8e4eb560e01b8152fd5b8280fd5b919050346101ff57806003193601126101ff5761024c91356102476001610228610bf6565b9383875260008051602061180c83398151915260205286200154610fd8565b6114b9565b5080f35b919050346101ff5760c03660031901126101ff5781359061026f610d15565b9260803660431901126103a457828552600260205260ff8286205416610397576102988361153c565b156103895760443590808210156103855760028214610352575b50828552600160205260ff8286209416938486526020528185209060ff19918281541660ff831617815560643590816001820155600360843591826002820155019460a4359283151580940361034e57866080967fa8243bd771afebc677144b985bf94c0c6ee53cdbdd01d7fb7eba97ffd782968698541660ff861617905561033d82518096610d25565b60208501528301526060820152a380f35b8980fd5b606435612710811061037657620186a010156102b2578251631f3b85d360e01b8152fd5b508251631f3b85d360e01b8152fd5b8580fd5b905163ea8e4eb560e01b8152fd5b905162b5d7e160e81b8152fd5b8480fd5b9050346101ff5760203660031901126101ff576103c3610c11565b9183805260008051602061180c83398151915260205280842033855260205260ff81852054161561040e57505081546001600160a01b0319166001600160a01b039190911617815580f35b9083604492519163e2517d3f60e01b835233908301526024820152fd5b50503461015b578160031936011261015b5780516104709161044c82610c41565b60058252640352e302e360dc1b602083015251918291602083526020830190610cf0565b0390f35b9050346101ff5760203660031901126101ff578160209360ff923581526002855220541690519015158152f35b50503461015b578160031936011261015b5751908152602090f35b50503461015b576002816020936104de6104d536610c27565b508192916112ec565b9082526001865260ff8383209116825285522001549051908152f35b9050346101ff57816003193601126101ff578160209360ff9261051b610bf6565b9035825260008051602061180c83398151915286528282206001600160a01b039091168252855220549151911615158152f35b9050346101ff57816003193601126101ff57608092829161056d610d15565b90358252600160205260ff83832091168252602052209060ff8254169160018101549160ff6003600284015493015416926105aa82518096610d25565b602085015283015215156060820152f35b50503461015b578160031936011261015b57905490516001600160a01b039091168152602090f35b9050823461062b57608036600319011261062b57506106116104709160643590604435906024359035610e0f565b839291925193849315158452806020850152830190610cf0565b80fd5b82843461062b578060031936011261062b57507f00000000000000000000000000000000000000000000000000000000000000006001600160a01b0316300361069a57602090517f360894a13ba1a3210667c828492db98dca3e2076cc3735a920a3ca505d382bbc8152f35b5163703e46dd60e11b8152fd5b918091506003193601126101ff576106bd610c11565b90602493843567ffffffffffffffff811161015b573660238201121561015b57808501356106ea81610cb1565b946106f785519687610c8f565b81865260209182870193368a8383010111610385578186928b8693018737880101526001600160a01b037f0000000000000000000000000000000000000000000000000000000000000000811630811490811561093b575b5061092b577f189ab7a9244df0848122154315af71fe140f3db0fe014031783b0946b8c9d2e380865260008051602061180c8339815191528452868620338752845260ff87872054161561090e575081169585516352d1902d60e01b815283818a818b5afa8691816108db575b506107d8575050505050505191634c9c8ce360e01b8352820152fd5b9088888894938c7f360894a13ba1a3210667c828492db98dca3e2076cc3735a920a3ca505d382bbc918281036108c65750853b156108b2575080546001600160a01b031916821790558451889392917fbc7cd75a20ee27fd9adebab32041f755214dbc6bffa90cc0225b39da2e5c2d3b8580a282511561089457505061024c9582915190845af4913d1561088a573d61087c61087382610cb1565b92519283610c8f565b81528581943d92013e611788565b5060609250611788565b9550955050505050346108a657505080f35b63b398979f60e01b8152fd5b8651634c9c8ce360e01b8152808501849052fd5b8751632a87526960e21b815280860191909152fd5b9091508481813d8311610907575b6108f38183610c8f565b81010312610903575190386107bc565b8680fd5b503d6108e9565b865163e2517d3f60e01b815233818b0152808b0191909152604490fd5b855163703e46dd60e11b81528890fd5b9050817f360894a13ba1a3210667c828492db98dca3e2076cc3735a920a3ca505d382bbc541614153861074f565b9050346101ff57816003193601126101ff57610983610c11565b9061098c610bf6565b7ff0c57e16840df040f15088dc2f81fe391c3923bec73e23a9662efc9c229c6a0092835460ff81871c16159367ffffffffffffffff821680159081610ad0575b6001149081610ac6575b159081610abd575b50610aaf575067ffffffffffffffff1981166001178555610a4692919084610a90575b50610a0a611747565b610a12611747565b86546001600160a01b0319166001600160a01b0391909116178655610a3681611029565b50610a40816110b7565b50611167565b50610a4f578280f35b805468ff00000000000000001916905551600181527fc7f505b2f371ae2175ee4913f4499e1f2633a7b5936321eed1cdaeb6115181d290602090a138808280f35b68ffffffffffffffffff19166801000000000000000117855538610a01565b865163f92ee8a960e01b8152fd5b905015386109de565b303b1591506109d6565b8691506109cc565b83833461015b578060031936011261015b57610af2610bf6565b90336001600160a01b03831603610b0f575061024c9192356114b9565b5163334bd91960e11b81528390fd5b50503461015b57602090610b3a610b3436610c27565b91610d71565b9051908152f35b919050346101ff57806003193601126101ff5761024c9135610b666001610228610bf6565b611211565b9050346101ff5760203660031901126101ff578160209360019235815260008051602061180c83398151915285522001549051908152f35b8491346101ff5760203660031901126101ff573563ffffffff60e01b81168091036101ff5760209250637965db0b60e01b8114908115610be5575b5015158152f35b6301ffc9a760e01b14905083610bde565b602435906001600160a01b0382168203610c0c57565b600080fd5b600435906001600160a01b0382168203610c0c57565b6060906003190112610c0c57600435906024359060443590565b6040810190811067ffffffffffffffff821117610c5d57604052565b634e487b7160e01b600052604160045260246000fd5b6020810190811067ffffffffffffffff821117610c5d57604052565b90601f8019910116810190811067ffffffffffffffff821117610c5d57604052565b67ffffffffffffffff8111610c5d57601f01601f191660200190565b60005b838110610ce05750506000910152565b8181015183820152602001610cd0565b90602091610d0981518092818552858086019101610ccd565b601f01601f1916010190565b6024359060ff82168203610c0c57565b906004821015610d325752565b634e487b7160e01b600052602160045260246000fd5b81810292918115918404141715610d5b57565b634e487b7160e01b600052601160045260246000fd5b9190610d7d90836112ec565b6000928352600160205260ff6040842091168352602052604082209160ff835416906004821015610dfb575080610db75750505060001990565b60018103610dc55750905090565b60028103610de45750610de090600161271093015490610d48565b0490565b6003915014610df4575060001990565b6001015490565b634e487b7160e01b81526021600452602490fd5b9190610e1e90949394836112ec565b93600092835260019160209183835260409660ff88872091168652835286852060028101548015159081610fce575b50610f9b5760ff8154166004811015610f875785919080610e7f57505050505050925190610e7a82610c73565b815290565b808303610ed65750505003610e9c57505b925190610e7a82610c73565b917f4d75737420726573656c6c20617420666163652076616c7565000000000000009150935191610ecc83610c41565b6019835282015290565b9293919260028103610f3357509061271092610ef492015490610d48565b0410610f005750610e90565b91750457863656564732070657263656e74616765206361760541b9150935191610f2983610c41565b6016835282015290565b600391925014610f47575b50505050610e90565b015410610f5657808281610f3e565b9173045786365656473206162736f6c757465206361760641b9150935191610f7d83610c41565b6014835282015290565b634e487b7160e01b87526021600452602487fd5b505050917250726963652062656c6f77206d696e696d756d60681b9150935191610fc483610c41565b6013835282015290565b9050821038610e4d565b8060005260008051602061180c83398151915260205260406000203360005260205260ff604060002054161561100b5750565b6044906040519063e2517d3f60e01b82523360048301526024820152fd5b6001600160a01b031660008181527fb7db2dd08fcb62d0c9e08c51941cae53c267786a0b75803fb7960902fc8ef97d602052604081205490919060008051602061180c8339815191529060ff166110b2578280526020526040822081835260205260408220600160ff1982541617905533916000805160206117ec8339815191528180a4600190565b505090565b6001600160a01b031660008181527ff1a6d60bfd7b6b54610eacba8004c6c9c7b9e0e06c38588a4afbb71c5aa147bf60205260408120549091907f59cf09151a2ed3505dc0bedfbb6971491b33b081e7804e65b493040d8700ab799060008051602061180c8339815191529060ff16611161578184526020526040832082845260205260408320600160ff198254161790556000805160206117ec833981519152339380a4600190565b50505090565b6001600160a01b031660008181527fab71e3f32666744d246edff3f96e4bdafee2e9867098cdd118a979a7464786a860205260408120549091907f189ab7a9244df0848122154315af71fe140f3db0fe014031783b0946b8c9d2e39060008051602061180c8339815191529060ff16611161578184526020526040832082845260205260408320600160ff198254161790556000805160206117ec833981519152339380a4600190565b9060009180835260008051602061180c83398151915280602052604084209260018060a01b03169283855260205260ff60408520541615600014611161578184526020526040832082845260205260408320600160ff198254161790556000805160206117ec833981519152339380a4600190565b51906001600160a01b0382168203610c0c57565b81601f82011215610c0c5780516112b081610cb1565b926112be6040519485610c8f565b81845260208284010111610c0c576112dc9160208085019101610ccd565b90565b51908115158203610c0c57565b60018060a01b036000818154169260409485519485926370416b3b60e01b8452600484015282602460209788935afa9182156114af57908392918392611472575b5060249087519586938492632e82b90f60e21b84526004840152165afa938415611468578194611366575b505050506080015160ff1690565b90919293503d8083853e61137a8185610c8f565b830184848203126101ff57835167ffffffffffffffff948582116103a45701936101009586868403126103a457835196870187811083821117611454578452855187528086015182811161038557836113d491880161129a565b908701528285015190811161145057906113ef91850161129a565b90840152606082015161ffff8116810361015b57606084015260808201519060ff8216820361062b57509161144360e060809360ff958585015260a081015160a085015260c081015160c0850152016112df565b60e0820152913880611358565b8380fd5b634e487b7160e01b86526041600452602486fd5b51903d90823e3d90fd5b86809294508193503d83116114a8575b61148c8183610c8f565b810103126101ff579060246114a18493611286565b919061132d565b503d611482565b86513d85823e3d90fd5b9060009180835260008051602061180c83398151915280602052604084209260018060a01b03169283855260205260ff60408520541660001461116157818452602052604083208284526020526040832060ff1981541690557ff6391f5c32d9c69d2a47ea670b442974b53935d1edc7fd64eb21e047a839171b339380a4600190565b3360009081527ff1a6d60bfd7b6b54610eacba8004c6c9c7b9e0e06c38588a4afbb71c5aa147bf6020526040808220549192909160ff1661173f57825482516372ce140760e01b815260048101929092526001600160a01b03929084908390602490829087165afa9384156117345780946115ef575b5050508060c08301511633149182156115de575b82156115d157505090565b60e0919250015116331490565b91508060a0830151163314916115c6565b90919293503d8082853e6116038185610c8f565b83019160208484031261015b57835167ffffffffffffffff948582116114505701926101609485858303126114505782519586018681108282111761172057835284518181116103a4578261165991870161129a565b865260208501518181116103a4578261167391870161129a565b602087015282850151908111611450579061168f91850161129a565b9084015260608201516060840152608082015160808401526116b360a08301611286565b60a08401526116c460c08301611286565b60c08401526116d560e08301611286565b60e0840152610100808301519163ffffffff8316830361062b57508301526101206117018183016112df565b908301526117136101408092016112df565b90820152903880806115b2565b634e487b7160e01b85526041600452602485fd5b9051903d90823e3d90fd5b505050600190565b60ff7ff0c57e16840df040f15088dc2f81fe391c3923bec73e23a9662efc9c229c6a005460401c161561177657565b604051631afcd79f60e31b8152600490fd5b906117af575080511561179d57602081519101fd5b60405163d6bda27560e01b8152600490fd5b815115806117e2575b6117c0575090565b604051639996b31560e01b81526001600160a01b039091166004820152602490fd5b50803b156117b856fe2f8788117e7eff1d82e926ec794901d17c78024a50270940304540a733656f0d02dd7bc7dec4dceedda775e58dd541e08a116c6c53815c0bd028192f7b626800a26469706673582212205fe3db57d0854bb881547e260bc41ce59df771627cb5fd2e04b2da7d0c1ff84464736f6c63430008180033",
  "linkReferences": {},
  "deployedLinkReferences": {}
}