{
  "_format": "hh-sol-artifact-1",
  "contractName": "Marketplace",
  "sourceName": "contracts/Marketplace.sol",
  "abi": [
    {
      "inputs": [],
      "stateMutability": "nonpayable",
      "type": "constructor"
    },
    {
      "inputs": [],
      "name": "AccessControlBadConfirmation",
      "type": "error"
    },
    {
      "inputs": [
        {
          "internalType": "address",
          "name": "account",
          "type": "address"
        },
        {
          "internalType": "bytes32",
          "name": "neededRole",
          "type": "bytes32"
        }
      ],
      "name": "AccessControlUnauthorizedAccount",
      "type": "error"
    },
    {
      "inputs": [
        {
          "internalType": "address",
          "name": "target",
          "type": "address"
        }
      ],
      "name": "AddressEmptyCode",
      "type": "error"
    },
    {
      "inputs": [],
      "name": "AlreadyListed",
      "type": "error"
    },
    {
      "inputs": [],
      "name": "CannotBuyOwnListing",
      "type": "error"
    },
    {
      "inputs": [
        {
          "internalType": "address",
          "name": "implementation",
          "type": "address"
        }
      ],
      "name": "ERC1967InvalidImplementation",
      "type": "error"
    },
    {
      "inputs": [],
      "name": "ERC1967NonPayable",
      "type": "error"
    },
    {
      "inputs": [],
      "name": "EnforcedPause",
      "type": "error"
    },
    {
      "inputs": [],
      "name": "ExpectedPause",
      "type": "error"
    },
    {
      "inputs": [],
      "name": "FailedCall",
      "type": "error"
    },
    {
      "inputs": [],
      "name": "InsufficientPayment",
      "type": "error"
    },
    {
      "inputs": [],
      "name": "InvalidInitialization",
      "type": "error"
    },
    {
      "inputs": [],
      "name": "InvalidPrice",
      "type": "error"
    },
    {
      "inputs": [],
      "name": "ListingExpired",
      "type": "error"
    },
    {
      "inputs": [],
      "name": "ListingNotActive",
      "type": "error"
    },
    {
      "inputs": [],
      "name": "NotApproved",
      "type": "error"
    },
    {
      "inputs": [],
      "name": "NotInitializing",
      "type": "error"
    },
    {
      "inputs": [],
      "name": "NotOwner",
      "type": "error"
    },
    {
      "inputs": [],
      "name": "NotSeller",
      "type": "error"
    },
    {
      "inputs": [],
      "name": "PaymentFailed",
      "type": "error"
    },
    {
      "inputs": [],
      "name": "ReentrancyGuardReentrantCall",
      "type": "error"
    },
    {
      "inputs": [],
      "name": "RefundFailed",
      "type": "error"
    },
    {
      "inputs": [],
      "name": "ResaleNotAllowed",
      "type": "error"
    },
    {
      "inputs": [],
      "name": "TransfersDisabled",
      "type": "error"
    },
    {
      "inputs": [],
      "name": "UUPSUnauthorizedCallContext",
      "type": "error"
    },
    {
      "inputs": [
        {
          "internalType": "bytes32",
          "name": "slot",
          "type": "bytes32"
        }
      ],
      "name": "UUPSUnsupportedProxiableUUID",
      "type": "error"
    },
    {
      "anonymous": false,
      "inputs": [
        {
          "indexed": false,
          "internalType": "uint64",
          "name": "version",
          "type": "uint64"
        }
      ],
      "name": "Initialized",
      "type": "event"
    },
    {
      "anonymous": false,
      "inputs": [
        {
          "indexed": true,
          "internalType": "uint256",
          "name": "listingId",
          "type": "uint256"
        }
      ],
      "name": "ListingCancelled",
      "type": "event"
    },
    {
      "anonymous": false,
      "inputs": [
        {
          "indexed": true,
          "internalType": "uint256",
          "name": "listingId",
          "type": "uint256"
        },
        {
          "indexed": false,
          "internalType": "uint256",
          "name": "newPrice",
          "type": "uint256"
        }
      ],
      "name": "ListingPriceUpdated",
      "type": "event"
    },
    {
      "anonymous": false,
      "inputs": [
        {
          "indexed": false,
          "internalType": "address",
          "name": "account",
          "type": "address"
        }
      ],
      "name": "Paused",
      "type": "event"
    },
    {
      "anonymous": false,
      "inputs": [
        {
          "indexed": true,
          "internalType": "bytes32",
          "name": "role",
          "type": "bytes32"
        },
        {
          "indexed": true,
          "internalType": "bytes32",
          "name": "previousAdminRole",
          "type": "bytes32"
        },
        {
          "indexed": true,
          "internalType": "bytes32",
          "name": "newAdminRole",
          "type": "bytes32"
        }
      ],
      "name": "RoleAdminChanged",
      "type": "event"
    },
    {
      "anonymous": false,
      "inputs": [
        {
          "indexed": true,
          "internalType": "bytes32",
          "name": "role",
          "type": "bytes32"
        },
        {
          "indexed": true,
          "internalType": "address",
          "name": "account",
          "type": "address"
        },
        {
          "indexed": true,
          "internalType": "address",
          "name": "sender",
          "type": "address"
        }
      ],
      "name": "RoleGranted",
      "type": "event"
    },
    {
      "anonymous": false,
      "inputs": [
        {
          "indexed": true,
          "internalType": "bytes32",
          "name": "role",
          "type": "bytes32"
        },
        {
          "indexed": true,
          "internalType": "address",
          "name": "account",
          "type": "address"
        },
        {
          "indexed": true,
          "internalType": "address",
          "name": "sender",
          "type": "address"
        }
      ],
      "name": "RoleRevoked",
      "type": "event"
    },
    {
      "anonymous": false,
      "inputs": [
        {
          "indexed": true,
          "internalType": "uint256",
          "name": "listingId",
          "type": "uint256"
        },
        {
          "indexed": true,
          "internalType": "address",
          "name": "seller",
          "type": "address"
        },
        {
          "indexed": true,
          "internalType": "address",
          "name": "ticketContract",
          "type": "address"
        },
        {
          "indexed": false,
          "internalType": "uint256",
          "name": "tokenId",
          "type": "uint256"
        },
        {
          "indexed": false,
          "internalType": "uint256",
          "name": "price",
          "type": "uint256"
        }
      ],
      "name": "TicketListed",
      "type": "event"
    },
    {
      "anonymous": false,
      "inputs": [
        {
          "indexed": true,
          "internalType": "uint256",
          "name": "listingId",
          "type": "uint256"
        },
        {
          "indexed": true,
          "internalType": "address",
          "name": "buyer",
          "type": "address"
        },
        {
          "indexed": false,
          "internalType": "uint256",
          "name": "finalPrice",
          "type": "uint256"
        },
        {
          "indexed": false,
          "internalType": "uint256",
          "name": "royaltyPaid",
          "type": "uint256"
        }
      ],
      "name": "TicketSold",
      "type": "event"
    },
    {
      "anonymous": false,
      "inputs": [
        {
          "indexed": false,
          "internalType": "address",
          "name": "account",
          "type": "address"
        }
      ],
      "name": "Unpaused",
      "type": "event"
    },
    {
      "anonymous": false,
      "inputs": [
        {
          "indexed": true,
          "internalType": "address",
          "name": "implementation",
          "type": "address"
        }
      ],
      "name": "Upgraded",
      "type": "event"
    },
    {
      "inputs": [],
      "name": "DEFAULT_ADMIN_ROLE",
      "outputs": [
        {
          "internalType": "bytes32",
          "name": "",
          "type": "bytes32"
        }
      ],
      "stateMutability": "view",
      "type": "function"
    },
    {
      "inputs": [],
      "name": "OPERATOR_ROLE",
      "outputs": [
        {
          "internalType": "bytes32",
          "name": "",
          "type": "bytes32"
        }
      ],
      "stateMutability": "view",
      "type": "function"
    },
    {
      "inputs": [],
      "name": "UPGRADER_ROLE",
      "outputs": [
        {
          "internalType": "bytes32",
          "name": "",
          "type": "bytes32"
        }
      ],
      "stateMutability": "view",
      "type": "function"
    },
    {
      "inputs": [],
      "name": "UPGRADE_INTERFACE_VERSION",
      "outputs": [
        {
          "internalType": "string",
          "name": "",
          "type": "string"
        }
      ],
      "stateMutability": "view",
      "type": "function"
    },
    {
      "inputs": [
        {
          "internalType": "address",
          "name": "",
          "type": "address"
        },
        {
          "internalType": "uint256",
          "name": "",
          "type": "uint256"
        }
      ],
      "name": "activeListingByToken",
      "outputs": [
        {
          "internalType": "uint256",
          "name": "",
          "type": "uint256"
        }
      ],
      "stateMutability": "view",
      "type": "function"
    },
    {
      "inputs": [
        {
          "internalType": "uint256",
          "name": "listingId",
          "type": "uint256"
        }
      ],
      "name": "buyTicket",
      "outputs": [],
      "stateMutability": "payable",
      "type": "function"
    },
    {
      "inputs": [
        {
          "internalType": "uint256",
          "name": "listingId",
          "type": "uint256"
        }
      ],
      "name": "cancelListing",
      "outputs": [],
      "stateMutability": "nonpayable",
      "type": "function"
    },
    {
      "inputs": [],
      "name": "eventFactory",
      "outputs": [
        {
          "internalType": "address",
          "name": "",
          "type": "address"
        }
      ],
      "stateMutability": "view",
      "type": "function"
    },
    {
      "inputs": [
        {
          "internalType": "address",
          "name": "ticketContract",
          "type": "address"
        }
      ],
      "name": "getActiveListings",
      "outputs": [
        {
          "internalType": "uint256[]",
          "name": "",
          "type": "uint256[]"
        }
      ],
      "stateMutability": "view",
      "type": "function"
    },
    {
      "inputs": [
        {
          "internalType": "uint256",
          "name": "listingId",
          "type": "uint256"
        }
      ],
      "name": "getListing",
      "outputs": [
        {
          "components": [
            {
              "internalType": "address",
              "name": "seller",
              "type": "address"
            },
            {
              "internalType": "address",
              "name": "ticketContract",
              "type": "address"
            },
            {
              "internalType": "uint256",
              "name": "tokenId",
              "type": "uint256"
            },
            {
              "internalType": "uint256",
              "name": "price",
              "type": "uint256"
            },
            {
              "internalType": "uint256",
              "name": "listedAt",
              "type": "uint256"
            },
            {
              "internalType": "uint256",
              "name": "expiresAt",
              "type": "uint256"
            },
            {
              "internalType": "bool",
              "name": "active",
              "type": "bool"
            }
          ],
          "internalType": "struct IMarketplace.Listing",
          "name": "",
          "type": "tuple"
        }
      ],
      "stateMutability": "view",
      "type": "function"
    },
    {
      "inputs": [
        {
          "internalType": "bytes32",
          "name": "role",
          "type": "bytes32"
        }
      ],
      "name": "getRoleAdmin",
      "outputs": [
        {
          "internalType": "bytes32",
          "name": "",
          "type": "bytes32"
        }
      ],
      "stateMutability": "view",
      "type": "function"
    },
    {
      "inputs": [
        {
          "internalType": "bytes32",
          "name": "role",
          "type": "bytes32"
        },
        {
          "internalType": "address",
          "name": "account",
          "type": "address"
        }
      ],
      "name": "grantRole",
      "outputs": [],
      "stateMutability": "nonpayable",
      "type": "function"
    },
    {
      "inputs": [
        {
          "internalType": "bytes32",
          "name": "role",
          "type": "bytes32"
        },
        {
          "internalType": "address",
          "name": "account",
          "type": "address"
        }
      ],
      "name": "hasRole",
      "outputs": [
        {
          "internalType": "bool",
          "name": "",
          "type": "bool"
        }
      ],
      "stateMutability": "view",
      "type": "function"
    },
    {
      "inputs": [
        {
          "internalType": "address",
          "name": "eventFactory_",
          "type": "address"
        },
        {
          "internalType": "address",
          "name": "pricingController_",
          "type": "address"
        },
        {
          "internalType": "address",
          "name": "royaltyDistributor_",
          "type": "address"
        },
        {
          "internalType": "address",
          "name": "admin",
          "type": "address"
        }
      ],
      "name": "initialize",
      "outputs": [],
      "stateMutability": "nonpayable",
      "type": "function"
    },
    {
      "inputs": [
        {
          "internalType": "address",
          "name": "ticketContract",
          "type": "address"
        },
        {
          "internalType": "uint256",
          "name": "tokenId",
          "type": "uint256"
        },
        {
          "internalType": "uint256",
          "name": "price",
          "type": "uint256"
        },
        {
          "internalType": "uint256",
          "name": "duration",
          "type": "uint256"
        }
      ],
      "name": "listTicket",
      "outputs": [
        {
          "internalType": "uint256",
          "name": "listingId",
          "type": "uint256"
        }
      ],
      "stateMutability": "nonpayable",
      "type": "function"
    },
    {
      "inputs": [
        {
          "internalType": "uint256",
          "name": "",
          "type": "uint256"
        }
      ],
      "name": "listings",
      "outputs": [
        {
          "internalType": "address",
          "name": "seller",
          "type": "address"
        },
        {
          "internalType": "address",
          "name": "ticketContract",
          "type": "address"
        },
        {
          "internalType": "uint256",
          "name": "tokenId",
          "type": "uint256"
        },
        {
          "internalType": "uint256",
          "name": "price",
          "type": "uint256"
        },
        {
          "internalType": "uint256",
          "name": "listedAt",
          "type": "uint256"
        },
        {
          "internalType": "uint256",
          "name": "expiresAt",
          "type": "uint256"
        },
        {
          "internalType": "bool",
          "name": "active",
          "type": "bool"
        }
      ],
      "stateMutability": "view",
      "type": "function"
    },
    {
      "inputs": [],
      "name": "nextListingId",
      "outputs": [
        {
          "internalType": "uint256",
          "name": "",
          "type": "uint256"
        }
      ],
      "stateMutability": "view",
      "type": "function"
    },
    {
      "inputs": [],
      "name": "pause",
      "outputs": [],
      "stateMutability": "nonpayable",
      "type": "function"
    },
    {
      "inputs": [],
      "name": "paused",
      "outputs": [
        {
          "internalType": "bool",
          "name": "",
          "type": "bool"
        }
      ],
      "stateMutability": "view",
      "type": "function"
    },
    {
      "inputs": [],
      "name": "pricingController",
      "outputs": [
        {
          "internalType": "address",
          "name": "",
          "type": "address"
        }
      ],
      "stateMutability": "view",
      "type": "function"
    },
    {
      "inputs": [],
      "name": "proxiableUUID",
      "outputs": [
        {
          "internalType": "bytes32",
          "name": "",
          "type": "bytes32"
        }
      ],
      "stateMutability": "view",
      "type": "function"
    },
    {
      "inputs": [
        {
          "internalType": "bytes32",
          "name": "role",
          "type": "bytes32"
        },
        {
          "internalType": "address",
          "name": "callerConfirmation",
          "type": "address"
        }
      ],
      "name": "renounceRole",
      "outputs": [],
      "stateMutability": "nonpayable",
      "type": "function"
    },
    {
      "inputs": [
        {
          "internalType": "bytes32",
          "name": "role",
          "type": "bytes32"
        },
        {
          "internalType": "address",
          "name": "account",
          "type": "address"
        }
      ],
      "name": "revokeRole",
      "outputs": [],
      "stateMutability": "nonpayable",
      "type": "function"
    },
    {
      "inputs": [],
      "name": "royaltyDistributor",
      "outputs": [
        {
          "internalType": "address",
          "name": "",
          "type": "address"
        }
      ],
      "stateMutability": "view",
      "type": "function"
    },
    {
      "inputs": [
        {
          "internalType": "address",
          "name": "eventFactory_",
          "type": "address"
        }
      ],
      "name": "setEventFactory",
      "outputs": [],
      "stateMutability": "nonpayable",
      "type": "function"
    },
    {
      "inputs": [
        {
          "internalType": "address",
          "name": "pricingController_",
          "type": "address"
        }
      ],
      "name": "setPricingController",
      "outputs": [],
      "stateMutability": "nonpayable",
      "type": "function"
    },
    {
      "inputs": [
        {
          "internalType": "address",
          "name": "royaltyDistributor_",
          "type": "address"
        }
      ],
      "name": "setRoyaltyDistributor",
      "outputs": [],
      "stateMutability": "nonpayable",
      "type": "function"
    },
    {
      "inputs": [
        {
          "internalType": "bytes4",
          "name": "interfaceId",
          "type": "bytes4"
        }
      ],
      "name": "supportsInterface",
      "outputs": [
        {
          "internalType": "bool",
          "name": "",
          "type": "bool"
        }
      ],
      "stateMutability": "view",
      "type": "function"
    },
    {
      "inputs": [],
      "name": "unpause",
      "outputs": [],
      "stateMutability": "nonpayable",
      "type": "function"
    },
    {
      "inputs": [
        {
          "internalType": "uint256",
          "name": "listingId",
          "type": "uint256"
        },
        {
          "internalType": "uint256",
          "name": "newPrice",
          "type": "uint256"
        }
      ],
      "name": "updateListingPrice",
      "outputs": [],
      "stateMutability": "nonpayable",
      "type": "function"
    },
    {
      "inputs": [
        {
          "internalType": "address",
          "name": "newImplementation",
          "type": "address"
        },
        {
          "internalType": "bytes",
          "name": "data",
          "type": "bytes"
        }
      ],
      "name": "upgradeToAndCall",
      "outputs": [],
      "stateMutability": "payable",
      "type": "function"
    }
  ],
  "bytecode": "0x60a080604052346100cc57306080527ff0c57e16840df040f15088dc2f81fe391c3923bec73e23a9662efc9c229c6a009081549060ff8260401c166100bd57506001600160401b036002600160401b031982821601610078575b6040516123e090816100d28239608051818181611485015261156b0152f35b6001600160401b031990911681179091556040519081527fc7f505b2f371ae2175ee4913f4499e1f2633a7b5936321eed1cdaeb6115181d290602090a1388080610059565b63f92ee8a960e01b8152600490fd5b600080fdfe608080604052600436101561001357600080fd5b600090813560e01c90816301ffc9a714611a6e57508063107a274a1461197f578063248a9ca3146119455780632f2ff15d146118fa578063305a67a81461184057806336568abe146117f85780633f4ba83a146117805780634f1ef286146114ef57806352d1902d146114725780635581ed87146114495780635c975abb146114195780636286935b1461136b57806367dd74ca14610fda5780636fdbd3f614610fb357806382102998146109585780638456cb59146108f05780638d03b3a5146108b057806391d14854146108575780639daf65cb14610814578063a217fddf146107f8578063aaccf1ec146107da578063ad3cb1cc14610754578063c460494314610534578063d165ffd2146104f4578063d43cbb15146104b4578063d547741f14610465578063de74e57b146103e9578063f2a51feb146103c0578063f5b541a614610385578063f72c0d8b1461034a5763f8c8765e1461017657600080fd5b346103475760803660031901126103475761018f611ad9565b610197611ac3565b906001600160a01b036044358181169290839003610342576064358281168103610342577ff0c57e16840df040f15088dc2f81fe391c3923bec73e23a9662efc9c229c6a009384549260ff8460401c16159467ffffffffffffffff85169788158061033b575b6001809a149081610331575b159081610328575b506103165767ffffffffffffffff198616891788556102a895876102f7575b50610239612286565b610241612286565b610249612286565b610251612286565b610259612286565b8860008051602061238b83398151915255816001600160601b0360a01b9316838b5416178a551681885416178755600254161760025561029881611e52565b506102a281611ee0565b50611f90565b50826003556102b5578280f35b805468ff0000000000000000191690556040519081527fc7f505b2f371ae2175ee4913f4499e1f2633a7b5936321eed1cdaeb6115181d290602090a138808280f35b68ffffffffffffffffff19166801000000000000000117885538610230565b60405163f92ee8a960e01b8152600490fd5b90501538610211565b303b159150610209565b50866101fd565b600080fd5b80fd5b503461034757806003193601126103475760206040517f189ab7a9244df0848122154315af71fe140f3db0fe014031783b0946b8c9d2e38152f35b503461034757806003193601126103475760206040517f97667070c54ef182b0f5858b034beac1b6f3089aa2d3188bb1e8929f4fa9b9298152f35b50346103475780600319360112610347576001546040516001600160a01b039091168152602090f35b503461034757602036600319011261034757604060e091600435815260046020522060018060a01b03908181541691600182015416906002810154600382015460048301549160ff600660058601549501541694604051968752602087015260408601526060850152608084015260a0830152151560c0820152f35b5034610347576040366003190112610347576104b0600435610485611ac3565b9080845260008051602061234b8339815191526020526104ab6001604086200154611e1f565b6121d8565b5080f35b5034610347576020366003190112610347576104ce611ad9565b6104d6611de5565b60018060a01b03166001600160601b0360a01b600054161760005580f35b50346103475760203660031901126103475761050e611ad9565b610516611de5565b60018060a01b03166001600160601b0360a01b600254161760025580f35b5034610347576040366003190112610347576004356024356105546120af565b818352602060048152604084209160ff600684015416156107425782546001600160a01b039081163303610730576001840154604051630227374360e21b8152879183168582600481845afa9182156107255783926106f2575b50926024938360028901549160405196878092632e82b90f60e21b82528560048301525afa9182156106e757869585936106c0575b5060a0906001541692015192610626604051968795869485946361a92e9360e01b8652600486019094939260609260808301968352602083015260408201520152565b03915afa9081156106b5578691610692575b5015610681578060037f522acc74fb3f21f3b09a9a4667b5faba86eb39c7f6b916a64f9114e68765abb4940155604051908152a2600160008051602061238b8339815191525580f35b60405162bfc92160e01b8152600490fd5b6106ae91503d8088833e6106a68183611b1f565b810190611d08565b5038610638565b6040513d88823e3d90fd5b60a09193506106e0903d8088833e6106d88183611b1f565b810190611c39565b92906105e3565b6040513d86823e3d90fd5b925090508482813d811161071e575b61070b8183611b1f565b81010312610342579051879160246105ae565b503d610701565b6040513d85823e3d90fd5b604051635ec8235160e01b8152600490fd5b6040516366cb03e960e01b8152600490fd5b50346103475780600319360112610347576040516040810181811067ffffffffffffffff8211176107c4576107b69160409182526005815260208101640352e302e360dc1b815282519384926020845251809281602086015285850190611b5d565b601f01601f19168101030190f35b634e487b7160e01b600052604160045260246000fd5b50346103475780600319360112610347576020600354604051908152f35b5034610347578060031936011261034757602090604051908152f35b5034610347576040366003190112610347576020906040906001600160a01b0361083c611ad9565b16815260058352818120602435825283522054604051908152f35b5034610347576040366003190112610347576040610873611ac3565b91600435815260008051602061234b833981519152602052209060018060a01b0316600052602052602060ff604060002054166040519015158152f35b5034610347576020366003190112610347576108ca611ad9565b6108d2611de5565b60018060a01b03166001600160601b0360a01b600154161760015580f35b5034610347578060031936011261034757610909611d6b565b61091161225b565b60008051602061236b833981519152600160ff198254161790557f62e78cea01bee320cd4e420270b5ea74000d11b0c9f74754ebdbfc544b05a2586020604051338152a180f35b503461034757608036600319011261034757610972611ad9565b906064359161097f61225b565b6109876120af565b6040516331a9108f60e11b8152602480356004830152602094919085908290816001600160a01b0387165afa9081156106e7578491610f7e575b50336001600160a01b0390911603610f6c5760405163e985e9c560e01b815233600482015230602482015284816044816001600160a01b0387165afa9081156106e7578491610f37575b501580610eb6575b610ea4576001600160a01b038216835260058452604080842060243585528552832054610e9257604051630227374360e21b815284816004816001600160a01b0387165afa9081156106e7578491610e65575b506040516311d17dfd60e01b815260248035600483015260a0908290816001600160a01b0388165afa908115610daa578591610dd9575b508581015115610dc7575115610db557604051632e82b90f60e21b815260248035600483015285908290816001600160a01b0388165afa908115610daa57918591610b39938391610d90575b5060015460a091909101516040516361a92e9360e01b815260048101939093526024803590840152604480840191909152356064830152909283916001600160a01b031690829081906084820190565b03915afa9081156106e7578491610d75575b5015610681576003549260001991828514610d5a57600185016003558015610d6e574201804211610d5a575b6006604051610b8581611aef565b3381528781019260018060a01b0387168452604082016024358152606083016044358152608084019142835260a0850193845260c0850196600188528b895260048d52604089209560018060a01b039051166001600160601b0360a01b9081885416178755600187019160018060a01b0390511690825416179055516002850155516003840155516004830155516005820155019051151560ff8019835416911617905560018060a01b038316815260058552604081206024358252855283604082205560018060a01b0383168152600685526040812080549068010000000000000000821015610d4657610c848287926001610c9d95018155611d3d565b90919082549060031b91821b91600019901b1916179055565b6001600160a01b0383168152600685526040812054918201918211610d32576001600160a01b03929092168083526007855260408084208585528652928390209190915581516024358152604435818601529091339184917f2e31a8485343b090071b8f59424eafc38300bcf2a480fa1de059aa7b79f31a5591a4600160008051602061238b83398151915255604051908152f35b634e487b7160e01b81526011600452602490fd5b634e487b7160e01b83526041600452602483fd5b634e487b7160e01b82526011600452602482fd5b5080610b77565b610d8991503d8086833e6106a68183611b1f565b5038610b4b565b610da491503d8085833e6106d88183611b1f565b38610ae9565b6040513d87823e3d90fd5b604051638574adcf60e01b8152600490fd5b604051636f07f3bb60e11b8152600490fd5b905060a0813d60a011610e5d575b81610df460a09383611b1f565b81010312610e59576040519060a082019082821067ffffffffffffffff8311176107c457608091604052610e2781611be7565b8352610e34888201611be7565b8884015260408101516040840152606081015160608401520151608082015238610a9d565b8480fd5b3d9150610de7565b90508481813d8311610e8b575b610e7c8183611b1f565b81010312610342575138610a66565b503d610e72565b6040516328f560bb60e21b8152600490fd5b60405163c19f17a960e01b8152600490fd5b5060405163020604bf60e21b815260248035600483015285908290816001600160a01b0387165afa9081156106e7578491610efe575b506001600160a01b0316301415610a13565b90508481813d8311610f30575b610f158183611b1f565b81010312610f2c57610f2690611b80565b38610eec565b8380fd5b503d610f0b565b90508481813d8311610f65575b610f4e8183611b1f565b81010312610f2c57610f5f90611be7565b38610a0b565b503d610f44565b6040516330cd747160e01b8152600490fd5b90508481813d8311610fac575b610f958183611b1f565b81010312610f2c57610fa690611b80565b386109c1565b503d610f8b565b5034610347578060031936011261034757546040516001600160a01b039091168152602090f35b5060208060031936011261136757600435610ff361225b565b610ffb6120af565b80835260048252604083206006810180549160ff831615610742576005810154801515908161135c575b5061134a5760038101918254938434106113385782546001600160a01b039290831633146113265760018401898482541660405193630227374360e21b85528b85600481855afa9485156107255783956112f7575b5060028054908901805460408051631c6e29ef60e11b8152600481018a90526024810192909252604482019d909d529b9097918c9060649082908c165afa9a8b156106e7578c949b6112a2575b5060ff191690558592916110da916120df565b818154168b5260058a5260408b2084548c528a528a604081205554168984865416845490833b1561127457606490836040519586948593632142170760e11b8552600485015233602485015260448401525af180156112975761127c575b5091889391849387611203575b505082918291611156888854611b94565b9154165af1611163611bb7565b50156111f15784611175825434611b94565b806111c3575b505054926040519384528301527fde630edbf1c187aa772b7d32b9d9855bd733b8cd77a6e0fdef1c6d839efe13fc60403393a3600160008051602061238b8339815191525580f35b81808092335af16111d2611bb7565b50156111df57843861117b565b604051633c31275160e21b8152600490fd5b6040516307a4ced160e51b8152600490fd5b9093508160025416935493865490803b156112785760405163d2de6ec560e01b8152600481019390935260248301959095526044820152928490849060649082908a905af19283156106e757849361125c575b80611145565b61126890939193611b0b565b61127457829138611256565b8280fd5b8680fd5b61128c9099919399949294611b0b565b979138939193611138565b6040513d8c823e3d90fd5b919294935099506040813d6040116112ef575b816112c260409383611b1f565b810103126112eb5786936110da928d836112dc8f95611b80565b5001519b9193509193946110c7565b8c80fd5b3d91506112b5565b9094508b81813d831161131f575b61130f8183611b1f565b810103126112745751933861107a565b503d611305565b6040516350eadcb160e01b8152600490fd5b60405163cd1c886760e01b8152600490fd5b604051631cc67e8160e11b8152600490fd5b905042101538611025565b5080fd5b503461034757602080600319360112611367576001600160a01b0361138e611ad9565b168252600681526040822060405192838383549182815201908193835284832090835b81811061140557505050846113c7910385611b1f565b60405193838594850191818652518092526040850193925b8281106113ee57505050500390f35b8351855286955093810193928101926001016113df565b8254845292860192600192830192016113b1565b5034610347578060031936011261034757602060ff60008051602061236b83398151915254166040519015158152f35b50346103475780600319360112610347576002546040516001600160a01b039091168152602090f35b50346103475780600319360112610347577f00000000000000000000000000000000000000000000000000000000000000006001600160a01b031630036114dd5760206040517f360894a13ba1a3210667c828492db98dca3e2076cc3735a920a3ca505d382bbc8152f35b60405163703e46dd60e11b8152600490fd5b50604036600319011261034757611504611ad9565b602491823567ffffffffffffffff811161136757366023820112156113675780600401359261153284611b41565b61153f6040519182611b1f565b848152602094858201933688838301011161172a57818692898993018737830101526001600160a01b037f00000000000000000000000000000000000000000000000000000000000000008116308114908115611752575b506114dd577f189ab7a9244df0848122154315af71fe140f3db0fe014031783b0946b8c9d2e380865260008051602061234b833981519152875260408620338752875260ff6040872054161561173557506040516352d1902d60e01b81529083169580826004818a5afa9182918793611701575b505061162957604051634c9c8ce360e01b8152600481018790528790fd5b8590877f360894a13ba1a3210667c828492db98dca3e2076cc3735a920a3ca505d382bbc918281036116ec5750843b156116d6575080546001600160a01b031916821790556040518592917fbc7cd75a20ee27fd9adebab32041f755214dbc6bffa90cc0225b39da2e5c2d3b8480a28151156116b957506104b09382915190845af46116b3611bb7565b916122c7565b9350505050346116c7575080f35b63b398979f60e01b8152600490fd5b604051634c9c8ce360e01b815260048101849052fd5b60405190632a87526960e21b82526004820152fd5b9080929350813d831161172e575b6117198183611b1f565b8101031261172a575190388061160b565b8580fd5b503d61170f565b876044916040519163e2517d3f60e01b8352336004840152820152fd5b9050817f360894a13ba1a3210667c828492db98dca3e2076cc3735a920a3ca505d382bbc5416141538611597565b5034610347578060031936011261034757611799611d6b565b60008051602061236b833981519152805460ff8116156117e65760ff191690557f5db9ee0a495bf2e6ff9c91a7834c1ba4fdd244a5e8aa4e537bd38aeae4b073aa6020604051338152a180f35b604051638dfc202b60e01b8152600490fd5b503461034757604036600319011261034757611812611ac3565b336001600160a01b0382160361182e576104b0906004356121d8565b60405163334bd91960e11b8152600490fd5b50346103475760203660031901126103475760043561185d6120af565b8082526004602052604082206006810180549060ff8216156107425782546001600160a01b039290831633036107305760ff19169055600182016118a484838354166120df565b54168352600560205260026040842091015483526020528160408120557f411aee90354c51b1b04cd563fcab2617142a9d50da19232d888547c8a1b7fd8a8280a2600160008051602061238b8339815191525580f35b5034610347576040366003190112610347576104b060043561191a611ac3565b9080845260008051602061234b8339815191526020526119406001604086200154611e1f565b61203a565b50346103475760203660031901126103475760016040602092600435815260008051602061234b8339815191528452200154604051908152f35b50346103475760203660031901126103475760408160e09260c083516119a481611aef565b82815282602082015282858201528260608201528260808201528260a0820152015260043581526004602052206040516119dd81611aef565b60018060a01b03918281541692838352806001830154169060208401918252600283015460408501908152600384015491606086019283526004850154936080870194855260c060ff600660058901549860a08b01998a5201541697019615158752604051978852511660208701525160408601525160608501525160808401525160a083015251151560c0820152f35b9050346113675760203660031901126113675760043563ffffffff60e01b81168091036112745760209250637965db0b60e01b8114908115611ab2575b5015158152f35b6301ffc9a760e01b14905038611aab565b602435906001600160a01b038216820361034257565b600435906001600160a01b038216820361034257565b60e0810190811067ffffffffffffffff8211176107c457604052565b67ffffffffffffffff81116107c457604052565b90601f8019910116810190811067ffffffffffffffff8211176107c457604052565b67ffffffffffffffff81116107c457601f01601f191660200190565b60005b838110611b705750506000910152565b8181015183820152602001611b60565b51906001600160a01b038216820361034257565b91908203918211611ba157565b634e487b7160e01b600052601160045260246000fd5b3d15611be2573d90611bc882611b41565b91611bd66040519384611b1f565b82523d6000602084013e565b606090565b5190811515820361034257565b81601f82011215610342578051611c0a81611b41565b92611c186040519485611b1f565b8184526020828401011161034257611c369160208085019101611b5d565b90565b60208183031261034257805167ffffffffffffffff9182821161034257019061010092838382031261034257604051938401848110838211176107c4576040528251845260208301518281116103425781611c95918501611bf4565b6020850152604083015191821161034257611cb1918301611bf4565b6040830152606081015161ffff81168103610342576060830152608081015160ff8116810361034257611d009160e091608085015260a081015160a085015260c081015160c085015201611be7565b60e082015290565b91909160408184031261034257611d1e81611be7565b92602082015167ffffffffffffffff811161034257611c369201611bf4565b8054821015611d555760005260206000200190600090565b634e487b7160e01b600052603260045260246000fd5b3360009081527f448256db8f8fb95ee3eaaf89c1051414494e85cebb6057fcf996cc3d0ccfb45660205260409020547f97667070c54ef182b0f5858b034beac1b6f3089aa2d3188bb1e8929f4fa9b9299060ff1615611dc75750565b6044906040519063e2517d3f60e01b82523360048301526024820152fd5b3360009081527fb7db2dd08fcb62d0c9e08c51941cae53c267786a0b75803fb7960902fc8ef97d602052604081205460ff1615611dc75750565b8060005260008051602061234b83398151915260205260406000203360005260205260ff6040600020541615611dc75750565b6001600160a01b031660008181527fb7db2dd08fcb62d0c9e08c51941cae53c267786a0b75803fb7960902fc8ef97d602052604081205490919060008051602061234b8339815191529060ff16611edb578280526020526040822081835260205260408220600160ff19825416179055339160008051602061232b8339815191528180a4600190565b505090565b6001600160a01b031660008181527fab71e3f32666744d246edff3f96e4bdafee2e9867098cdd118a979a7464786a860205260408120549091907f189ab7a9244df0848122154315af71fe140f3db0fe014031783b0946b8c9d2e39060008051602061234b8339815191529060ff16611f8a578184526020526040832082845260205260408320600160ff1982541617905560008051602061232b833981519152339380a4600190565b50505090565b6001600160a01b031660008181527f448256db8f8fb95ee3eaaf89c1051414494e85cebb6057fcf996cc3d0ccfb45660205260408120549091907f97667070c54ef182b0f5858b034beac1b6f3089aa2d3188bb1e8929f4fa9b9299060008051602061234b8339815191529060ff16611f8a578184526020526040832082845260205260408320600160ff1982541617905560008051602061232b833981519152339380a4600190565b9060009180835260008051602061234b83398151915280602052604084209260018060a01b03169283855260205260ff60408520541615600014611f8a578184526020526040832082845260205260408320600160ff1982541617905560008051602061232b833981519152339380a4600190565b60008051602061238b83398151915260028154146120cd5760029055565b604051633ee5aeb560e01b8152600490fd5b60018060a01b0316600091818352602060078152604092838520838652825283852054818652600683528486205490600019918281019081116121c457808203612179575b50508186526006835284862080548015612165578201916121458383611d3d565b909182549160031b1b191690555584526007815282842091845252812055565b634e487b7160e01b88526031600452602488fd5b61218c9084895260068652878920611d3d565b90549060031b1c838852600685526121aa81610c84848a8c20611d3d565b838852600785528688209088528452858720553880612124565b634e487b7160e01b88526011600452602488fd5b9060009180835260008051602061234b83398151915280602052604084209260018060a01b03169283855260205260ff604085205416600014611f8a57818452602052604083208284526020526040832060ff1981541690557ff6391f5c32d9c69d2a47ea670b442974b53935d1edc7fd64eb21e047a839171b339380a4600190565b60ff60008051602061236b833981519152541661227457565b60405163d93c066560e01b8152600490fd5b60ff7ff0c57e16840df040f15088dc2f81fe391c3923bec73e23a9662efc9c229c6a005460401c16156122b557565b604051631afcd79f60e31b8152600490fd5b906122ee57508051156122dc57602081519101fd5b60405163d6bda27560e01b8152600490fd5b81511580612321575b6122ff575090565b604051639996b31560e01b81526001600160a01b039091166004820152602490fd5b50803b156122f756fe2f8788117e7eff1d82e926ec794901d17c78024a50270940304540a733656f0d02dd7bc7dec4dceedda775e58dd541e08a116c6c53815c0bd028192f7b626800cd5ed15c6e187e77e9aee88184c21f4f2182ab5827cb3b7e07fbedcd63f033009b779b17422d0df92223018b32b4d1fa46e071723d6817e2486d003becc55f00a2646970667358221220c01c98e6d460d1858a09f3e2bac820436800365da660f499ca1396f5a2e4488564736f6c63430008180033",
  "linkReferences": {},
  "deployedLinkReferences": {}
}