{
  "_format": "hh-sol-artifact-1",
  "contractName": "EventFactory",
  "sourceName": "contracts/EventFactory.sol",
  "abi": [
    {
      "inputs": [],
      "stateMutability": "nonpayable",
      "type": "constructor"
    },
    {
      "inputs": [],
      "name": "AccessControlBadConfirmation",
      "type": "error"
    },
    {
      "inputs": [
        {
          "internalType": "address",
          "name": "account",
          "type": "address"
        },
        {
          "internalType": "bytes32",
          "name": "neededRole",
          "type": "bytes32"
        }
      ],
      "name": "AccessControlUnauthorizedAccount",
      "type": "error"
    },
    {
      "inputs": [
        {
          "internalType": "address",
          "name": "target",
          "type": "address"
        }
      ],
      "name": "AddressEmptyCode",
      "type": "error"
    },
    {
      "inputs": [
        {
          "internalType": "address",
          "name": "implementation",
          "type": "address"
        }
      ],
      "name": "ERC1967InvalidImplementation",
      "type": "error"
    },
    {
      "inputs": [],
      "name": "ERC1967NonPayable",
      "type": "error"
    },
    {
      "inputs": [],
      "name": "EnforcedPause",
      "type": "error"
    },
    {
      "inputs": [],
      "name": "EventInPast",
      "type": "error"
    },
    {
      "inputs": [],
      "name": "ExceedsCapacity",
      "type": "error"
    },
    {
      "inputs": [],
      "name": "ExpectedPause",
      "type": "error"
    },
    {
      "inputs": [],
      "name": "FailedCall",
      "type": "error"
    },
    {
      "inputs": [],
      "name": "InvalidInitialization",
      "type": "error"
    },
    {
      "inputs": [],
      "name": "NoTiersProvided",
      "type": "error"
    },
    {
      "inputs": [],
      "name": "NotAuthorized",
      "type": "error"
    },
    {
      "inputs": [],
      "name": "NotInitializing",
      "type": "error"
    },
    {
      "inputs": [],
      "name": "UUPSUnauthorizedCallContext",
      "type": "error"
    },
    {
      "inputs": [
        {
          "internalType": "bytes32",
          "name": "slot",
          "type": "bytes32"
        }
      ],
      "name": "UUPSUnsupportedProxiableUUID",
      "type": "error"
    },
    {
      "anonymous": false,
      "inputs": [
        {
          "indexed": true,
          "internalType": "uint256",
          "name": "eventId",
          "type": "uint256"
        },
        {
          "indexed": true,
          "internalType": "address",
          "name": "ticketContract",
          "type": "address"
        },
        {
          "indexed": true,
          "internalType": "address",
          "name": "creator",
          "type": "address"
        },
        {
          "indexed": false,
          "internalType": "string",
          "name": "name",
          "type": "string"
        },
        {
          "indexed": false,
          "internalType": "uint256",
          "name": "eventDate",
          "type": "uint256"
        }
      ],
      "name": "EventCreated",
      "type": "event"
    },
    {
      "anonymous": false,
      "inputs": [
        {
          "indexed": true,
          "internalType": "uint256",
          "name": "eventId",
          "type": "uint256"
        }
      ],
      "name": "EventPaused",
      "type": "event"
    },
    {
      "anonymous": false,
      "inputs": [
        {
          "indexed": true,
          "internalType": "uint256",
          "name": "eventId",
          "type": "uint256"
        }
      ],
      "name": "EventUnpaused",
      "type": "event"
    },
    {
      "anonymous": false,
      "inputs": [
        {
          "indexed": false,
          "internalType": "uint64",
          "name": "version",
          "type": "uint64"
        }
      ],
      "name": "Initialized",
      "type": "event"
    },
    {
      "anonymous": false,
      "inputs": [
        {
          "indexed": false,
          "internalType": "address",
          "name": "account",
          "type": "address"
        }
      ],
      "name": "Paused",
      "type": "event"
    },
    {
      "anonymous": false,
      "inputs": [
        {
          "indexed": true,
          "internalType": "bytes32",
          "name": "role",
          "type": "bytes32"
        },
        {
          "indexed": true,
          "internalType": "bytes32",
          "name": "previousAdminRole",
          "type": "bytes32"
        },
        {
          "indexed": true,
          "internalType": "bytes32",
          "name": "newAdminRole",
          "type": "bytes32"
        }
      ],
      "name": "RoleAdminChanged",
      "type": "event"
    },
    {
      "anonymous": false,
      "inputs": [
        {
          "indexed": true,
          "internalType": "bytes32",
          "name": "role",
          "type": "bytes32"
        },
        {
          "indexed": true,
          "internalType": "address",
          "name": "account",
          "type": "address"
        },
        {
          "indexed": true,
          "internalType": "address",
          "name": "sender",
          "type": "address"
        }
      ],
      "name": "RoleGranted",
      "type": "event"
    },
    {
      "anonymous": false,
      "inputs": [
        {
          "indexed": true,
          "internalType": "bytes32",
          "name": "role",
          "type": "bytes32"
        },
        {
          "indexed": true,
          "internalType": "address",
          "name": "account",
          "type": "address"
        },
        {
          "indexed": true,
          "internalType": "address",
          "name": "sender",
          "type": "address"
        }
      ],
      "name": "RoleRevoked",
      "type": "event"
    },
    {
      "anonymous": false,
      "inputs": [
        {
          "indexed": false,
          "internalType": "address",
          "name": "account",
          "type": "address"
        }
      ],
      "name": "Unpaused",
      "type": "event"
    },
    {
      "anonymous": false,
      "inputs": [
        {
          "indexed": true,
          "internalType": "address",
          "name": "implementation",
          "type": "address"
        }
      ],
      "name": "Upgraded",
      "type": "event"
    },
    {
      "inputs": [],
      "name": "DEFAULT_ADMIN_ROLE",
      "outputs": [
        {
          "internalType": "bytes32",
          "name": "",
          "type": "bytes32"
        }
      ],
      "stateMutability": "view",
      "type": "function"
    },
    {
      "inputs": [],
      "name": "EVENT_CREATOR_ROLE",
      "outputs": [
        {
          "internalType": "bytes32",
          "name": "",
          "type": "bytes32"
        }
      ],
      "stateMutability": "view",
      "type": "function"
    },
    {
      "inputs": [],
      "name": "UPGRADER_ROLE",
      "outputs": [
        {
          "internalType": "bytes32",
          "name": "",
          "type": "bytes32"
        }
      ],
      "stateMutability": "view",
      "type": "function"
    },
    {
      "inputs": [],
      "name": "UPGRADE_INTERFACE_VERSION",
      "outputs": [
        {
          "internalType": "string",
          "name": "",
          "type": "string"
        }
      ],
      "stateMutability": "view",
      "type": "function"
    },
    {
      "inputs": [
        {
          "components": [
            {
              "internalType": "string",
              "name": "name",
              "type": "string"
            },
            {
              "internalType": "string",
              "name": "symbol",
              "type": "string"
            },
            {
              "internalType": "string",
              "name": "baseURI",
              "type": "string"
            },
            {
              "internalType": "uint256",
              "name": "eventDate",
              "type": "uint256"
            },
            {
              "internalType": "uint256",
              "name": "doorsOpen",
              "type": "uint256"
            },
            {
              "internalType": "address",
              "name": "venue",
              "type": "address"
            },
            {
              "internalType": "address",
              "name": "artist",
              "type": "address"
            },
            {
              "internalType": "address",
              "name": "host",
              "type": "address"
            },
            {
              "internalType": "uint32",
              "name": "maxCapacity",
              "type": "uint32"
            },
            {
              "internalType": "bool",
              "name": "transferable",
              "type": "bool"
            },
            {
              "internalType": "bool",
              "name": "resaleAllowed",
              "type": "bool"
            }
          ],
          "internalType": "struct IEventFactory.EventConfig",
          "name": "config",
          "type": "tuple"
        },
        {
          "components": [
            {
              "internalType": "string",
              "name": "name",
              "type": "string"
            },
            {
              "internalType": "uint256",
              "name": "price",
              "type": "uint256"
            },
            {
              "internalType": "uint32",
              "name": "supply",
              "type": "uint32"
            },
            {
              "internalType": "uint32",
              "name": "maxPerWallet",
              "type": "uint32"
            }
          ],
          "internalType": "struct IEventFactory.TierConfig[]",
          "name": "tiers",
          "type": "tuple[]"
        }
      ],
      "name": "createEvent",
      "outputs": [
        {
          "internalType": "uint256",
          "name": "eventId_",
          "type": "uint256"
        },
        {
          "internalType": "address",
          "name": "ticketContract",
          "type": "address"
        }
      ],
      "stateMutability": "nonpayable",
      "type": "function"
    },
    {
      "inputs": [
        {
          "internalType": "uint256",
          "name": "",
          "type": "uint256"
        },
        {
          "internalType": "uint256",
          "name": "",
          "type": "uint256"
        }
      ],
      "name": "eventTiers",
      "outputs": [
        {
          "internalType": "string",
          "name": "name",
          "type": "string"
        },
        {
          "internalType": "uint256",
          "name": "price",
          "type": "uint256"
        },
        {
          "internalType": "uint32",
          "name": "supply",
          "type": "uint32"
        },
        {
          "internalType": "uint32",
          "name": "maxPerWallet",
          "type": "uint32"
        }
      ],
      "stateMutability": "view",
      "type": "function"
    },
    {
      "inputs": [
        {
          "internalType": "uint256",
          "name": "",
          "type": "uint256"
        }
      ],
      "name": "events",
      "outputs": [
        {
          "internalType": "address",
          "name": "ticketContract",
          "type": "address"
        },
        {
          "components": [
            {
              "internalType": "string",
              "name": "name",
              "type": "string"
            },
            {
              "internalType": "string",
              "name": "symbol",
              "type": "string"
            },
            {
              "internalType": "string",
              "name": "baseURI",
              "type": "string"
            },
            {
              "internalType": "uint256",
              "name": "eventDate",
              "type": "uint256"
            },
            {
              "internalType": "uint256",
              "name": "doorsOpen",
              "type": "uint256"
            },
            {
              "internalType": "address",
              "name": "venue",
              "type": "address"
            },
            {
              "internalType": "address",
              "name": "artist",
              "type": "address"
            },
            {
              "internalType": "address",
              "name": "host",
              "type": "address"
            },
            {
              "internalType": "uint32",
              "name": "maxCapacity",
              "type": "uint32"
            },
            {
              "internalType": "bool",
              "name": "transferable",
              "type": "bool"
            },
            {
              "internalType": "bool",
              "name": "resaleAllowed",
              "type": "bool"
            }
          ],
          "internalType": "struct IEventFactory.EventConfig",
          "name": "config",
          "type": "tuple"
        },
        {
          "internalType": "address",
          "name": "creator",
          "type": "address"
        },
        {
          "internalType": "uint256",
          "name": "createdAt",
          "type": "uint256"
        },
        {
          "internalType": "bool",
          "name": "paused",
          "type": "bool"
        }
      ],
      "stateMutability": "view",
      "type": "function"
    },
    {
      "inputs": [
        {
          "internalType": "address",
          "name": "",
          "type": "address"
        },
        {
          "internalType": "uint256",
          "name": "",
          "type": "uint256"
        }
      ],
      "name": "eventsByCreator",
      "outputs": [
        {
          "internalType": "uint256",
          "name": "",
          "type": "uint256"
        }
      ],
      "stateMutability": "view",
      "type": "function"
    },
    {
      "inputs": [
        {
          "internalType": "uint256",
          "name": "eventId_",
          "type": "uint256"
        }
      ],
      "name": "getEventConfig",
      "outputs": [
        {
          "components": [
            {
              "internalType": "string",
              "name": "name",
              "type": "string"
            },
            {
              "internalType": "string",
              "name": "symbol",
              "type": "string"
            },
            {
              "internalType": "string",
              "name": "baseURI",
              "type": "string"
            },
            {
              "internalType": "uint256",
              "name": "eventDate",
              "type": "uint256"
            },
            {
              "internalType": "uint256",
              "name": "doorsOpen",
              "type": "uint256"
            },
            {
              "internalType": "address",
              "name": "venue",
              "type": "address"
            },
            {
              "internalType": "address",
              "name": "artist",
              "type": "address"
            },
            {
              "internalType": "address",
              "name": "host",
              "type": "address"
            },
            {
              "internalType": "uint32",
              "name": "maxCapacity",
              "type": "uint32"
            },
            {
              "internalType": "bool",
              "name": "transferable",
              "type": "bool"
            },
            {
              "internalType": "bool",
              "name": "resaleAllowed",
              "type": "bool"
            }
          ],
          "internalType": "struct IEventFactory.EventConfig",
          "name": "",
          "type": "tuple"
        }
      ],
      "stateMutability": "view",
      "type": "function"
    },
    {
      "inputs": [
        {
          "internalType": "uint256",
          "name": "eventId_",
          "type": "uint256"
        }
      ],
      "name": "getEventContract",
      "outputs": [
        {
          "internalType": "address",
          "name": "",
          "type": "address"
        }
      ],
      "stateMutability": "view",
      "type": "function"
    },
    {
      "inputs": [
        {
          "internalType": "uint256",
          "name": "eventId_",
          "type": "uint256"
        }
      ],
      "name": "getEventTiers",
      "outputs": [
        {
          "components": [
            {
              "internalType": "string",
              "name": "name",
              "type": "string"
            },
            {
              "internalType": "uint256",
              "name": "price",
              "type": "uint256"
            },
            {
              "internalType": "uint32",
              "name": "supply",
              "type": "uint32"
            },
            {
              "internalType": "uint32",
              "name": "maxPerWallet",
              "type": "uint32"
            }
          ],
          "internalType": "struct IEventFactory.TierConfig[]",
          "name": "",
          "type": "tuple[]"
        }
      ],
      "stateMutability": "view",
      "type": "function"
    },
    {
      "inputs": [
        {
          "internalType": "address",
          "name": "creator",
          "type": "address"
        }
      ],
      "name": "getEventsByCreator",
      "outputs": [
        {
          "internalType": "uint256[]",
          "name": "",
          "type": "uint256[]"
        }
      ],
      "stateMutability": "view",
      "type": "function"
    },
    {
      "inputs": [
        {
          "internalType": "bytes32",
          "name": "role",
          "type": "bytes32"
        }
      ],
      "name": "getRoleAdmin",
      "outputs": [
        {
          "internalType": "bytes32",
          "name": "",
          "type": "bytes32"
        }
      ],
      "stateMutability": "view",
      "type": "function"
    },
    {
      "inputs": [
        {
          "internalType": "bytes32",
          "name": "role",
          "type": "bytes32"
        },
        {
          "internalType": "address",
          "name": "account",
          "type": "address"
        }
      ],
      "name": "grantRole",
      "outputs": [],
      "stateMutability": "nonpayable",
      "type": "function"
    },
    {
      "inputs": [
        {
          "internalType": "bytes32",
          "name": "role",
          "type": "bytes32"
        },
        {
          "internalType": "address",
          "name": "account",
          "type": "address"
        }
      ],
      "name": "hasRole",
      "outputs": [
        {
          "internalType": "bool",
          "name": "",
          "type": "bool"
        }
      ],
      "stateMutability": "view",
      "type": "function"
    },
    {
      "inputs": [
        {
          "internalType": "address",
          "name": "ticketImplementation",
          "type": "address"
        },
        {
          "internalType": "address",
          "name": "pricingController_",
          "type": "address"
        },
        {
          "internalType": "address",
          "name": "royaltyDistributor_",
          "type": "address"
        },
        {
          "internalType": "address",
          "name": "admin",
          "type": "address"
        }
      ],
      "name": "initialize",
      "outputs": [],
      "stateMutability": "nonpayable",
      "type": "function"
    },
    {
      "inputs": [],
      "name": "marketplace",
      "outputs": [
        {
          "internalType": "address",
          "name": "",
          "type": "address"
        }
      ],
      "stateMutability": "view",
      "type": "function"
    },
    {
      "inputs": [],
      "name": "nextEventId",
      "outputs": [
        {
          "internalType": "uint256",
          "name": "",
          "type": "uint256"
        }
      ],
      "stateMutability": "view",
      "type": "function"
    },
    {
      "inputs": [
        {
          "internalType": "uint256",
          "name": "eventId_",
          "type": "uint256"
        }
      ],
      "name": "pauseEvent",
      "outputs": [],
      "stateMutability": "nonpayable",
      "type": "function"
    },
    {
      "inputs": [],
      "name": "paused",
      "outputs": [
        {
          "internalType": "bool",
          "name": "",
          "type": "bool"
        }
      ],
      "stateMutability": "view",
      "type": "function"
    },
    {
      "inputs": [],
      "name": "pricingController",
      "outputs": [
        {
          "internalType": "address",
          "name": "",
          "type": "address"
        }
      ],
      "stateMutability": "view",
      "type": "function"
    },
    {
      "inputs": [],
      "name": "proxiableUUID",
      "outputs": [
        {
          "internalType": "bytes32",
          "name": "",
          "type": "bytes32"
        }
      ],
      "stateMutability": "view",
      "type": "function"
    },
    {
      "inputs": [
        {
          "internalType": "bytes32",
          "name": "role",
          "type": "bytes32"
        },
        {
          "internalType": "address",
          "name": "callerConfirmation",
          "type": "address"
        }
      ],
      "name": "renounceRole",
      "outputs": [],
      "stateMutability": "nonpayable",
      "type": "function"
    },
    {
      "inputs": [
        {
          "internalType": "bytes32",
          "name": "role",
          "type": "bytes32"
        },
        {
          "internalType": "address",
          "name": "account",
          "type": "address"
        }
      ],
      "name": "revokeRole",
      "outputs": [],
      "stateMutability": "nonpayable",
      "type": "function"
    },
    {
      "inputs": [],
      "name": "royaltyDistributor",
      "outputs": [
        {
          "internalType": "address",
          "name": "",
          "type": "address"
        }
      ],
      "stateMutability": "view",
      "type": "function"
    },
    {
      "inputs": [
        {
          "internalType": "address",
          "name": "marketplace_",
          "type": "address"
        }
      ],
      "name": "setMarketplace",
      "outputs": [],
      "stateMutability": "nonpayable",
      "type": "function"
    },
    {
      "inputs": [
        {
          "internalType": "address",
          "name": "pricingController_",
          "type": "address"
        }
      ],
      "name": "setPricingController",
      "outputs": [],
      "stateMutability": "nonpayable",
      "type": "function"
    },
    {
      "inputs": [
        {
          "internalType": "address",
          "name": "royaltyDistributor_",
          "type": "address"
        }
      ],
      "name": "setRoyaltyDistributor",
      "outputs": [],
      "stateMutability": "nonpayable",
      "type": "function"
    },
    {
      "inputs": [
        {
          "internalType": "bytes4",
          "name": "interfaceId",
          "type": "bytes4"
        }
      ],
      "name": "supportsInterface",
      "outputs": [
        {
          "internalType": "bool",
          "name": "",
          "type": "bool"
        }
      ],
      "stateMutability": "view",
      "type": "function"
    },
    {
      "inputs": [],
      "name": "ticketBeacon",
      "outputs": [
        {
          "internalType": "contract UpgradeableBeacon",
          "name": "",
          "type": "address"
        }
      ],
      "stateMutability": "view",
      "type": "function"
    },
    {
      "inputs": [
        {
          "internalType": "uint256",
          "name": "eventId_",
          "type": "uint256"
        }
      ],
      "name": "unpauseEvent",
      "outputs": [],
      "stateMutability": "nonpayable",
      "type": "function"
    },
    {
      "inputs": [
        {
          "internalType": "address",
          "name": "newImplementation",
          "type": "address"
        }
      ],
      "name": "upgradeTicketImplementation",
      "outputs": [],
      "stateMutability": "nonpayable",
      "type": "function"
    },
    {
      "inputs": [
        {
          "internalType": "address",
          "name": "newImplementation",
          "type": "address"
        },
        {
          "internalType": "bytes",
          "name": "data",
          "type": "bytes"
        }
      ],
      "name": "upgradeToAndCall",
      "outputs": [],
      "stateMutability": "payable",
      "type": "function"
    }
  ],
  "bytecode": "0x60a080604052346100cc57306080527ff0c57e16840df040f15088dc2f81fe391c3923bec73e23a9662efc9c229c6a009081549060ff8260401c166100bd57506001600160401b036002600160401b031982821601610078575b60405161311590816100d28239608051818181610af40152610bb50152f35b6001600160401b031990911681179091556040519081527fc7f505b2f371ae2175ee4913f4499e1f2633a7b5936321eed1cdaeb6115181d290602090a1388080610059565b63f92ee8a960e01b8152600490fd5b600080fdfe60808060405260043610156200001457600080fd5b600090813560e01c90816301ffc9a71462001e90575080630b7914301462001e075780630b871eba1462001d1c578063200205811462001c64578063248a9ca31462001c275780632f2ff15d1462001bd357806330f9f0f61462001b7657806336568abe1462001b275780633b093d4e1462000eb75780634abfcac71462000db45780634f1ef2861462000b5f57806352d1902d1462000adf5780635581ed871462000ab4578063576baace1462000a8b5780635c975abb1462000a4757806370416b3b1462000a1257806372ce1407146200097a57806373ad6c2d14620009345780637d51d21414620007bd5780638920dd14146200072f5780638d03b3a514620006e957806391d14854146200068b5780639e73c3a4146200064e5780639f9d903a146200062e578063a217fddf1462000610578063abc8c7af14620005e5578063ad3cb1cc146200056e578063d165ffd21462000528578063d547741f14620004d0578063f2a51feb14620004a5578063f36eedbc1462000414578063f72c0d8b14620003d75763f8c8765e14620001ae57600080fd5b34620003d4576080366003190112620003d457620001cb620021d1565b620001d5620021e8565b6001600160a01b03916044358381169290839003620003cf576064358481168103620003cf577ff0c57e16840df040f15088dc2f81fe391c3923bec73e23a9662efc9c229c6a009384549560ff8760401c1615946001600160401b0380891698891580620003c7575b6001809b149081620003bc575b159081620003b2575b50620003a05767ffffffffffffffff1981168a1789558762000380575b506200027c62002789565b6200028662002789565b6200029062002789565b604051916103c4808401928311848410176200036c579184849260409462002cdc853916815230602082015203019089f090811562000361576200031194816001600160601b0360a01b9316838b5416178a5516818854161787556002541617600255620002fe816200249b565b506200030a816200252c565b50620025df565b50826004556200031f578280f35b805468ff0000000000000000191690556040519081527fc7f505b2f371ae2175ee4913f4499e1f2633a7b5936321eed1cdaeb6115181d290602090a138808280f35b6040513d8a823e3d90fd5b634e487b7160e01b8c52604160045260248cfd5b68ffffffffffffffffff1916680100000000000000011788553862000271565b60405163f92ee8a960e01b8152600490fd5b9050153862000254565b303b1591506200024b565b50876200023e565b600080fd5b80fd5b5034620003d45780600319360112620003d45760206040517f189ab7a9244df0848122154315af71fe140f3db0fe014031783b0946b8c9d2e38152f35b5034620003d4576020366003190112620003d4578062000433620021d1565b6200043d620023ce565b81546001600160a01b039081169190823b15620004a05760248492836040519586948593631b2ce7f360e11b85521660048401525af180156200049557620004825750f35b6200048d9062001f27565b620003d45780f35b6040513d84823e3d90fd5b505050fd5b5034620003d45780600319360112620003d4576001546040516001600160a01b039091168152602090f35b5034620003d4576040366003190112620003d45762000524600435620004f5620021e8565b90808452600080516020620030c08339815191526020526200051e600160408620015462002466565b62002704565b5080f35b5034620003d4576020366003190112620003d45762000546620021d1565b620005506200242b565b60018060a01b03166001600160601b0360a01b600254161760025580f35b5034620003d45780600319360112620003d45760405160408101908082106001600160401b03831117620005cf57620005cb9160405260058152640352e302e360dc1b6020820152604051918291602083526020830190620020dd565b0390f35b634e487b7160e01b600052604160045260246000fd5b5034620003d45780600319360112620003d4576003546040516001600160a01b039091168152602090f35b5034620003d45780600319360112620003d457602090604051908152f35b5034620003d45780600319360112620003d4576020600454604051908152f35b5034620003d45780600319360112620003d45760206040517f16e39bcfd7168cb870487b453080e9500bcbc59d2d5e2f22e941a49ba850f2368152f35b5034620003d4576040366003190112620003d4576040620006ab620021e8565b916004358152600080516020620030c0833981519152602052209060018060a01b0316600052602052602060ff604060002054166040519015158152f35b5034620003d4576020366003190112620003d45762000707620021d1565b620007116200242b565b60018060a01b03166001600160601b0360a01b600154161760015580f35b5034620003d4576040366003190112620003d457602435906004358152600660205260408120908154831015620003d457620007a26200077084846200229b565b506200077c8162001f7a565b906002600182015491015463ffffffff90604051948594608086526080860190620020dd565b926020850152818116604085015260201c1660608301520390f35b5034620003d45760208060031936011262000930576004358252600681526040822080546001600160401b038082116200091c5760405193949162000809600582901b87018662001f58565b80855285850191829484528684209284905b838210620008b7575050505050604051928484019085855251809152604084019460408260051b8601019392955b828710620008575785850386f35b909192938280600192603f19898203018552875190620008816080835190808452830190620020dd565b918381015184830152604081015163ffffffff809116604084015260608092015116910152960192019601959291909262000849565b604098979598516080810181811085821117620005cf576001926003928b92604052620008e48962001f7a565b81528489015483820152600289015463ffffffff908181166040840152841c166060820152815201950191019093979496976200081b565b634e487b7160e01b85526041600452602485fd5b5080fd5b5034620003d4576020366003190112620003d45762000952620021d1565b6200095c6200242b565b60018060a01b03166001600160601b0360a01b600354161760035580f35b5034620003d4576020366003190112620003d457620009fd6001604083620005cb946101408351620009ac8162001f3b565b60608152606060208201526060858201528260608201528260808201528260a08201528260c08201528260e0820152826101008201528261012082015201526004358152600560205220016200202b565b6040519182916020835260208301906200211f565b5034620003d4576020366003190112620003d457602090600435815260058252604060018060a01b0391205416604051908152f35b5034620003d45780600319360112620003d457602060ff7fcd5ed15c6e187e77e9aee88184c21f4f2182ab5827cb3b7e07fbedcd63f0330054166040519015158152f35b5034620003d45780600319360112620003d457546040516001600160a01b039091168152602090f35b5034620003d45780600319360112620003d4576002546040516001600160a01b039091168152602090f35b5034620003d45780600319360112620003d4577f00000000000000000000000000000000000000000000000000000000000000006001600160a01b0316300362000b4d5760206040517f360894a13ba1a3210667c828492db98dca3e2076cc3735a920a3ca505d382bbc8152f35b60405163703e46dd60e11b8152600490fd5b506040366003190112620003d45762000b77620021d1565b6024356001600160401b03811162000db0573660238201121562000db05762000bab9036906024816004013591016200225f565b6001600160a01b037f0000000000000000000000000000000000000000000000000000000000000000811630811490811562000d81575b5062000b4d5762000bf2620023ce565b6040516352d1902d60e01b8152908316926020918281600481885afa86918162000d48575b5062000c3657604051634c9c8ce360e01b815260048101869052602490fd5b9385947f360894a13ba1a3210667c828492db98dca3e2076cc3735a920a3ca505d382bbc9081810362000d305750823b1562000d175780546001600160a01b0319168217905560405185917fbc7cd75a20ee27fd9adebab32041f755214dbc6bffa90cc0225b39da2e5c2d3b8380a284511562000cf957508084846200052496519101845af4903d1562000cef573d62000cd08162002243565b9062000ce0604051928362001f58565b81528581943d92013e620027cb565b60609250620027cb565b93505050503462000d08575080f35b63b398979f60e01b8152600490fd5b604051634c9c8ce360e01b815260048101839052602490fd5b60249060405190632a87526960e21b82526004820152fd5b9091508381813d831162000d79575b62000d63818362001f58565b8101031262000d755751903862000c17565b8680fd5b503d62000d57565b9050817f360894a13ba1a3210667c828492db98dca3e2076cc3735a920a3ca505d382bbc541614153862000be2565b8280fd5b5034620003d4576020366003190112620003d45760043580825260056020526040822060098101546001600160a01b039081163314158062000e85575b62000e735781600b85930160ff1981541690555416803b156200093057818091600460405180948193631fa5d41d60e11b83525af18015620004955762000e5b575b50807f6e944842b926006db1c67ea74cd89fe2c9bae25554171143a28f51db252fa12891a280f35b62000e669062001f27565b6200093057813862000e33565b60405163ea8e4eb560e01b8152600490fd5b50838052600080516020620030c0833981519152602052604084203360005260205260ff604060002054161562000df1565b5034620003d45760031960403682011262000930576001600160401b036004351162000930576101609060043536030112620003d4576024356001600160401b03811162000930573660238201121562000930576001600160401b038160040135116200093057366024826004013560051b8301011162000930573360009081527fc1cf57c041eb05d6965581b2e2eb449e91c103bb91e53b1521608349b090a32660205260409020547f16e39bcfd7168cb870487b453080e9500bcbc59d2d5e2f22e941a49ba850f2369060ff161562001b09575060ff7fcd5ed15c6e187e77e9aee88184c21f4f2182ab5827cb3b7e07fbedcd63f03300541662001af7574260646004350135111562001ae55780600401351562001ad35781825b8260040135811062001a86575063ffffffff8062000ff861010460043501620022dc565b1691161162001a745760045490600019821462001a605760018201600455620010ca62001030600435600401600435600401620022ee565b62001049602460049493943501600435600401620022ee565b600154600254604051631bbdd89b60e21b602082015260c060248201529687956001600160a01b03938416959290931693620010a4939091620010919160e489019162002323565b8681036023190160448801529162002323565b9187606485015233608485015260a484015260c483015203601f19810183528262001f58565b835460405191906001600160a01b03166001600160401b036104a884019081119084111762001a4c5782916200111c916104a86200283485396104a884019081526040602082018190520190620020dd565b039084f090811562001a41576040518060a08101106001600160401b0360a083011117620005cf5760a0810160409081526001600160a01b038416825251620011658162001f3b565b6001600160401b0360043560040135116200181a576200118f366004803580820135010162002344565b81526001600160401b0360246004350135116200181a57620011bc36600480356024810135010162002344565b60208201526001600160401b0360446004350135116200181a57620011ec36600480356044810135010162002344565b60408201526004356064810135606083015260848101356080830152620012169060a401620021ff565b60a08201526200122b60c460043501620021ff565b60c08201526200124060e460043501620021ff565b60e0820152600435610104013563ffffffff811690036200181a5761010460043501356101008201526200127a6101246004350162002365565b610120820152620012916101446004350162002365565b610140820152602082019081523360408301524260608301528560808301528486526005602052604086209060018060a01b038351166001600160601b0360a01b8354161782555180518051906001600160401b03821162001899576200130b8262001301600187015462001eea565b6001870162002373565b602090601f8311600114620019cd576200133e92918a9183620018d5575b50508160011b916000199060031b1c19161790565b60018301555b60208101518051906001600160401b038211620018995762001379826200136f600287015462001eea565b6002870162002373565b602090601f83116001146200195957620013ab92918a9183620018d55750508160011b916000199060031b1c19161790565b60028301555b60408101518051906001600160401b0382116200189957620013e682620013dc600387015462001eea565b6003870162002373565b602090601f8311600114620018e1578260809593600b95936200141f938d92620018d55750508160011b916000199060031b1c19161790565b60038301555b606081015160048301558381015160058301556006820160018060a01b0360a0830151166001600160601b0360a01b8254161790556007820160018060a01b0360c0830151166001600160601b0360a01b825416179055600882019060018060a01b0360e0820151169082549163ffffffff60a01b61010083015160a01b169060ff60c01b610120840151151560c01b169261014060ff60c81b910151151560c81b169365ffffffffffff60d01b161717171790556009810160018060a01b036040860151166001600160601b0360a01b8254161790556060840151600a82015501910151151560ff80198354169116179055835b8160040135811062001601575050338352600760205260408320805493600160401b851015620015ed5750836200155991600160409601815562002214565b815460001960039290921b91821b19169084901b1790556200159662001584600480350180620022ee565b91908551928684528684019162002323565b60043560640135602083015233916001600160a01b0384169185917f2a14e110d02a7d192cdd0b1cbf581b4ad279c3942cb85af960edf7b24025690f9181900390a482519182526001600160a01b03166020820152f35b634e487b7160e01b81526041600452602490fd5b8385526006602052604085206200162182846004013560248601620022b8565b90805490600160401b821015620018c1579062001644916001820181556200229b565b620018ad57620016558280620022ee565b906001600160401b03821162001899576200167d8262001676855462001eea565b8562002373565b8890601f83116001146200182a579180620016b292600295948c926200181e5750508160011b916000199060031b1c19161790565b81555b60208301356001820155019063ffffffff620016d460408301620022dc565b1667ffffffff00000000620016ee606085549401620022dc565b60201b16916001600160401b0319161717905584620017216200171a83856004013560248701620022b8565b80620022ee565b9060206200173885876004013560248901620022b8565b01356200175b60406200175487896004013560248b01620022b8565b01620022dc565b9162001776606062001754888a6004013560248c01620022b8565b916001600160a01b0389163b156200181a5763ffffffff60ff93818896620017c38b966040519a8b998a9963099824f560e41b8b521660048a015260a060248a015260a489019162002323565b60448701959095521660648501521660848301520381836001600160a01b038a165af180156200049557620017fe575b50506001016200151a565b620018099062001f27565b62001816578438620017f3565b8480fd5b8580fd5b01359050388062001329565b838a5260208a20918a5b601f198516811062001880575091839160019360029695601f1981161062001865575b505050811b018155620016b5565b0135600019600384901b60f8161c1916905538808062001857565b9092602060018192868601358155019401910162001834565b634e487b7160e01b89526041600452602489fd5b634e487b7160e01b87526004879052602487fd5b634e487b7160e01b88526041600452602488fd5b01519050388062001329565b90600385018a5260208a20918a5b601f198516811062001940575092600b94926001926080979583601f1981161062001926575b505050811b01600383015562001425565b015160001960f88460031b161c1916905538808062001915565b91926020600181928685015181550194019201620018ef565b9190600285018a5260208a20908a935b601f1984168510620019b1576001945083601f1981161062001997575b505050811b016002830155620013b1565b015160001960f88460031b161c1916905538808062001986565b8181015183556020948501946001909301929091019062001969565b9190600185018a5260208a20908a935b601f198416851062001a25576001945083601f1981161062001a0b575b505050811b01600183015562001344565b015160001960f88460031b161c19169055388080620019fa565b81810151835560209485019460019093019290910190620019dd565b6040513d85823e3d90fd5b634e487b7160e01b86526041600452602486fd5b634e487b7160e01b83526011600452602483fd5b60405163155176b960e11b8152600490fd5b9062001aa160406200175484866004013560248801620022b8565b63ffffffff9182169082160190811162001abf579060010162000fd4565b634e487b7160e01b84526011600452602484fd5b6040516301e135f760e31b8152600490fd5b604051632764c53f60e01b8152600490fd5b60405163d93c066560e01b8152600490fd5b6044906040519063e2517d3f60e01b82523360048301526024820152fd5b5034620003d4576040366003190112620003d45762001b45620021e8565b336001600160a01b0382160362001b6457620005249060043562002704565b60405163334bd91960e11b8152600490fd5b5034620003d4576040366003190112620003d45762001b94620021d1565b6001600160a01b0316815260076020526040812080546024359290831015620003d457602062001bc5848462002214565b90546040519160031b1c8152f35b5034620003d4576040366003190112620003d4576200052460043562001bf8620021e8565b90808452600080516020620030c083398151915260205262001c21600160408620015462002466565b6200268c565b5034620003d4576020366003190112620003d457600160406020926004358152600080516020620030c08339815191528452200154604051908152f35b5034620003d45760208060031936011262000930576001600160a01b0362001c8b620021d1565b168252600781526040822060405192838383549182815201908193835284832090835b81811062001d07575050508462001cc791038562001f58565b60405193838594850191818652518092526040850193925b82811062001cef57505050500390f35b83518552869550938101939281019260010162001cdf565b82548452928601926001928301920162001cae565b5034620003d4576020366003190112620003d4576004359081815260056020526040812060018060a01b0390816009820154163314158062001dd7575b62000e7357600b8101805460ff191660011790555416803b156200093057818091600460405180948193638456cb5960e01b83525af18015620004955762001dc5575b50907ffdb456e665aa5cdbe3bd91babd696c20184ff9664fb5544c37869f078c2cd71c8280a280f35b62001dd09062001f27565b3862001d9c565b50828052600080516020620030c08339815191526020526040832033845260205260ff6040842054161562001d59565b5034620003d4576020366003190112620003d457600435815260056020526040902080546001600160a01b03919082169062001e46600182016200202b565b926009820154169060ff600b600a830154920154169062001e7a604051958695865260a0602087015260a08601906200211f565b9260408501526060840152151560808301520390f35b90503462000930576020366003190112620009305760043563ffffffff60e01b811680910362000db05760209250637965db0b60e01b811490811562001ed8575b5015158152f35b6301ffc9a760e01b1490503862001ed1565b90600182811c9216801562001f1c575b602083101462001f0657565b634e487b7160e01b600052602260045260246000fd5b91607f169162001efa565b6001600160401b038111620005cf57604052565b61016081019081106001600160401b03821117620005cf57604052565b90601f801991011681019081106001600160401b03821117620005cf57604052565b9060405191826000825462001f8f8162001eea565b9081845260209460019160018116908160001462002007575060011462001fc4575b50505062001fc29250038362001f58565b565b600090815285812095935091905b81831062001fee57505062001fc2935082010138808062001fb1565b8554888401850152948501948794509183019162001fd2565b9250505062001fc294925060ff191682840152151560051b82010138808062001fb1565b906040516200203a8162001f3b565b61014060ff82946200204c8162001f7a565b84526200205c6001820162001f7a565b60208501526200206f6002820162001f7a565b60408501526003810154606085015260048101546080850152600760018060a01b03918260058201541660a08701528260068201541660c0870152015490811660e085015263ffffffff8160a01c16610100850152818160c01c16151561012085015260c81c161515910152565b919082519283825260005b8481106200210a575050826000602080949584010152601f8019910116010190565b602081830181015184830182015201620020e8565b9062002164620021516200213e610160855190808652850190620020dd565b60208501518482036020860152620020dd565b60408401518382036040850152620020dd565b91606081015160608301526080810151608083015260a081015160018060a01b0380911660a08401528060c08301511660c084015260e08201511660e083015261010063ffffffff8183015116908301526101208082015115159083015261014080910151151591015290565b600435906001600160a01b0382168203620003cf57565b602435906001600160a01b0382168203620003cf57565b35906001600160a01b0382168203620003cf57565b80548210156200222d5760005260206000200190600090565b634e487b7160e01b600052603260045260246000fd5b6001600160401b038111620005cf57601f01601f191660200190565b9291926200226d8262002243565b916200227d604051938462001f58565b829481845281830111620003cf578281602093846000960137010152565b80548210156200222d576000526003602060002091020190600090565b91908110156200222d5760051b81013590607e1981360301821215620003cf570190565b3563ffffffff81168103620003cf5790565b903590601e1981360301821215620003cf57018035906001600160401b038211620003cf57602001918136038313620003cf57565b908060209392818452848401376000828201840152601f01601f1916010190565b9080601f83011215620003cf5781602062002362933591016200225f565b90565b35908115158203620003cf57565b90601f81116200238257505050565b6000916000526020600020906020601f850160051c83019410620023c3575b601f0160051c01915b828110620023b757505050565b818155600101620023aa565b9092508290620023a1565b3360009081527fab71e3f32666744d246edff3f96e4bdafee2e9867098cdd118a979a7464786a860205260409020547f189ab7a9244df0848122154315af71fe140f3db0fe014031783b0946b8c9d2e39060ff161562001b095750565b3360009081527fb7db2dd08fcb62d0c9e08c51941cae53c267786a0b75803fb7960902fc8ef97d602052604081205460ff161562001b095750565b80600052600080516020620030c083398151915260205260406000203360005260205260ff604060002054161562001b095750565b6001600160a01b031660008181527fb7db2dd08fcb62d0c9e08c51941cae53c267786a0b75803fb7960902fc8ef97d6020526040812054909190600080516020620030c08339815191529060ff1662002527578280526020526040822081835260205260408220600160ff198254161790553391600080516020620030a08339815191528180a4600190565b505090565b6001600160a01b031660008181527fab71e3f32666744d246edff3f96e4bdafee2e9867098cdd118a979a7464786a860205260408120549091907f189ab7a9244df0848122154315af71fe140f3db0fe014031783b0946b8c9d2e390600080516020620030c08339815191529060ff16620025d9578184526020526040832082845260205260408320600160ff19825416179055600080516020620030a0833981519152339380a4600190565b50505090565b6001600160a01b031660008181527fc1cf57c041eb05d6965581b2e2eb449e91c103bb91e53b1521608349b090a32660205260408120549091907f16e39bcfd7168cb870487b453080e9500bcbc59d2d5e2f22e941a49ba850f23690600080516020620030c08339815191529060ff16620025d9578184526020526040832082845260205260408320600160ff19825416179055600080516020620030a0833981519152339380a4600190565b90600091808352600080516020620030c083398151915280602052604084209260018060a01b03169283855260205260ff60408520541615600014620025d9578184526020526040832082845260205260408320600160ff19825416179055600080516020620030a0833981519152339380a4600190565b90600091808352600080516020620030c083398151915280602052604084209260018060a01b03169283855260205260ff604085205416600014620025d957818452602052604083208284526020526040832060ff1981541690557ff6391f5c32d9c69d2a47ea670b442974b53935d1edc7fd64eb21e047a839171b339380a4600190565b60ff7ff0c57e16840df040f15088dc2f81fe391c3923bec73e23a9662efc9c229c6a005460401c1615620027b957565b604051631afcd79f60e31b8152600490fd5b90620027f45750805115620027e257602081519101fd5b60405163d6bda27560e01b8152600490fd5b8151158062002829575b62002807575090565b604051639996b31560e01b81526001600160a01b039091166004820152602490fd5b50803b15620027fe56fe60a06040908082526104a8803803809161001982856102ae565b8339810182828203126101e95761002f826102e7565b60208084015191939091906001600160401b0382116101e9570182601f820112156101e957805190610060826102fb565b9361006d875195866102ae565b8285528383830101116101e957829060005b83811061029a57505060009184010152823b1561027a577fa3f0ad74e5423aebfd80d3ef4346578335a9a72aeaee59ff6cb3582b35133d5080546001600160a01b0319166001600160a01b038581169182179092558551635c60da1b60e01b8082529194928482600481895afa91821561026f57600092610238575b50813b1561021f5750508551847f1cf3b03a6cf19fa2baba4df148e9dcabedea7f8a5c07840e207e5c089be95d3e600080a282511561020057508290600487518096819382525afa9283156101f5576000936101b3575b5091600080848461019096519101845af4903d156101aa573d610174816102fb565b90610181885192836102ae565b8152600081943d92013e610316565b505b6080525161012e908161037a82396080518160180152f35b60609250610316565b92508183813d83116101ee575b6101ca81836102ae565b810103126101e9576000806101e1610190956102e7565b945050610152565b600080fd5b503d6101c0565b85513d6000823e3d90fd5b9350505050346102105750610192565b63b398979f60e01b8152600490fd5b8751634c9c8ce360e01b81529116600482015260249150fd5b9091508481813d8311610268575b61025081836102ae565b810103126101e957610261906102e7565b90386100fb565b503d610246565b88513d6000823e3d90fd5b8351631933b43b60e21b81526001600160a01b0384166004820152602490fd5b81810183015186820184015284920161007f565b601f909101601f19168101906001600160401b038211908210176102d157604052565b634e487b7160e01b600052604160045260246000fd5b51906001600160a01b03821682036101e957565b6001600160401b0381116102d157601f01601f191660200190565b9061033d575080511561032b57602081519101fd5b60405163d6bda27560e01b8152600490fd5b81511580610370575b61034e575090565b604051639996b31560e01b81526001600160a01b039091166004820152602490fd5b50803b1561034656fe60806040819052635c60da1b60e01b81526020816004817f00000000000000000000000000000000000000000000000000000000000000006001600160a01b03165afa90811560a9576000916054575b5060da565b905060203d60201160a3575b601f8101601f191682019167ffffffffffffffff831181841017608d576088926040520160b5565b38604f565b634e487b7160e01b600052604160045260246000fd5b503d6060565b6040513d6000823e3d90fd5b602090607f19011260d5576080516001600160a01b038116810360d55790565b600080fd5b6000808092368280378136915af43d82803e1560f4573d90f35b3d90fdfea26469706673582212205f3fe11094900700b93bfb8bc5daf54e7ed6a72b81d04f26b0f84f27a2f8685d64736f6c6343000818003360803461012057601f6103c438819003918201601f19168301916001600160401b038311848410176101255780849260409485528339810103126101205760206100488261013b565b916001600160a01b0391829161005e910161013b565b1690811561010757600080546001600160a01b0319808216851783556040519295909490929184167f8be0079c531659141344cd1fd0a4f28419497f9722a3daafe3b4186f6b6457e08780a3813b156100f0575016809160015416176001557fbc7cd75a20ee27fd9adebab32041f755214dbc6bffa90cc0225b39da2e5c2d3b6040519280a261027490816101508239f35b63211eb15960e21b81529082166004820152602490fd5b604051631e4fbdf760e01b815260006004820152602490fd5b600080fd5b634e487b7160e01b600052604160045260246000fd5b51906001600160a01b03821682036101205756fe6080604052600436101561001257600080fd5b6000803560e01c80633659cfe61461018c5780635c60da1b14610163578063715018a6146101095780638da5cb5b146100e25763f2fde38b1461005457600080fd5b346100df5760203660031901126100df576004356001600160a01b03818116918290036100db57610083610212565b81156100c25782546001600160a01b0319811683178455167f8be0079c531659141344cd1fd0a4f28419497f9722a3daafe3b4186f6b6457e08380a380f35b604051631e4fbdf760e01b815260048101849052602490fd5b8280fd5b80fd5b50346100df57806003193601126100df57546040516001600160a01b039091168152602090f35b50346100df57806003193601126100df57610122610212565b80546001600160a01b03198116825581906001600160a01b03167f8be0079c531659141344cd1fd0a4f28419497f9722a3daafe3b4186f6b6457e08280a380f35b50346100df57806003193601126100df576001546040516001600160a01b039091168152602090f35b50346100df5760203660031901126100df576004356001600160a01b038116908181036100db576101bb610212565b3b156101fa57600180546001600160a01b031916821790557fbc7cd75a20ee27fd9adebab32041f755214dbc6bffa90cc0225b39da2e5c2d3b8280a280f35b6024906040519063211eb15960e21b82526004820152fd5b6000546001600160a01b0316330361022657565b60405163118cdaa760e01b8152336004820152602490fdfea26469706673582212201a76aaaac6af12a4a00c791ba0b9daa736a50be76ef0b96ac9cf7bba528c834064736f6c634300081800332f8788117e7eff1d82e926ec794901d17c78024a50270940304540a733656f0d02dd7bc7dec4dceedda775e58dd541e08a116c6c53815c0bd028192f7b626800a2646970667358221220b4199636c867e3d263eba7d228787d14c457040f83290eb3e027c00975317aaa64736f6c63430008180033",
  "linkReferences": {},
  "deployedLinkReferences": {}
}